:0400000080313128F2
:100008007E1480314E01961E0A280B2813288C1E58
:100018000E280F2813288131502180312F28161CD3
:10002800162817281F280C1C1A281B281F2881315E
:10003800FD2180312F280B1F222823282F28971EC7
:10004800262827282F288D1E2A282B282F2881315B
:100058003A2180312F287E10090080313328F90198
:100068007E1040018031382880319F2080318131D5
:1000780024218031813192218031D4304001A60081
:100088000130A7008131F72180314E0116108031EF
:10009800D6208031F0304001A6000030A700813121
:1000A800EB2180318031BB2080310A304001A6002D
:1000B8000130A7008131EB218031813184218031E9
:1000C8008131DD21803140011A111A101A122030B5
:1000D8004001A8002808A600BF3081317521803171
:1000E8006B2880313128400198019A013F309200F5
:1000F800023094001F307E01CE000330B800B901F1
:10010800CF01BA01D0013730BB003F30D1003F30BA
:10011800BC003F30D20002307D01900005309200D3
:100128001530C50008307E01A3000730A500043053
:100138007D01C6000800813124218031803177207B
:1001480080318131F1218031823107228031813142
:10015800DD2180318131842180318031BB208031A3
:100168008131922180318031D620803108004401CC
:100178008F01900191018D018C014E018D12440176
:100188000D08F6000C08F5004E0197160A304001DC
:10019800A6000230A7008131E521803105304401F5
:1001A8008E00080090304B019F000D309D00D0302C
:1001B8009C001D08F8001C08F7004E018C129616CA
:1001C8000B304001A6000230A7008131EB218031BD
:1001D80090304B019E00080079080319F428F5288F
:1001E800FF282030F3007308F100BF308131BA21B5
:1001F8008031F90109292030F3007308F100BF307C
:100208008131BA218031F901F90A08007908031906
:100218000E290F2919292030F3007308F100BF3087
:100228008131BA218131F90123292030F300730883
:10023800F100BF308131BA218131F901F90A080092
:1002480015307D01C5000430C60007307E01A500C9
:100258000830A300403043018F0020309000013067
:100268008D00400194124301901208004E018D1236
:100278007608F1007508F000813164218131400170
:1002880020082104031949294A294F2921088A00ED
:1002980020080A00813108004E018C1278084B01B1
:1002A8009D0077089C0040012208230403195D295A
:1002B8005E29632923088A0022080A008131080080
:1002C80044010E1D6829692970290E1071088D00D6
:1002D80070088C000E14742971088D0070088C0049
:1002E80008004001A70026088131A0218131400182
:1002F80027088131A021813140011A161A120800FD
:100308000130450190008F019101FF308D008C0173
:100318004E010D13D03045018E0008004E010C101F
:100328000B140C304001A6000230A7008131F721E0
:1003380081314E0116140800F400740843018C0042
:100348004E018D1CA829A929A4298D1043010C0848
:1003580008004001240825040319B329B429B92940
:1003680025088A0024080A0081310800F200710873
:100378008131C721813172088131C7218131400122
:100388001A161A120800F000700843018C004E017A
:100398008D1CCF29D029CB298D1043010C080800CA
:1003A8002030F3007308F100BF308131BA21813168
:1003B80008008030460196007F309500C0309400D8
:1003C800080040012708A1002608A00008004001F5
:1003D8002708A3002608A200080051019101033054
:1003E80093009201080040012708A5002608A400F0
:1003F80008004E010C108131AD21813108002034F4
:1004080040340134003450018C0108000800080011
:020418000800DA
:020000040001F9
:04000E00ED3FE73F9C
:04001400FF3FFF3F6C
:00000001FF
