:0400000080313128F2
:100008007E1480314E01961E0A280B2813288C1E58
:100018000E280F2813288131582180312F28161CCB
:10002800162817281F280C1C1A281B281F2882315D
:10003800052280312F280B1F222823282F28971EBE
:10004800262827282F288D1E2A282B282F2881315B
:100058002D2180312F287E10090080313328FA01A4
:100068007E104001803138288031C92080318B17BB
:100078000B178131432180314301901240019411C3
:1000880012169412430190168131A8218031DC3078
:100098004001A4000130A5008131FF2180314E01CB
:1000A80016108031E520803116304001A40001305F
:1000B800A5008131F32180314B019E138031AB20A3
:1000C8008031FF304001A4000030A5008131ED21CE
:1000D800803144010E1081319A21803145018E17FB
:1000E8008131E521803140011A111A101A12A50137
:1000F800FF3081317D2180318028803131284001D5
:1001080098019A011F309200023094001F307E013E
:10011800CE002330B800B901CF01BA01D001373081
:10012800BB003F30D1003F30BC003F30D20002302E
:100138007D0190001530C50008307E01A300033012
:1001480095000730A50004307D01C6000800440171
:100158008F019001043091000D308D00D0308C005B
:100168004E018D1244010D08F1000C08F0004E01FB
:10017800971612304001A4000230A5008131ED210C
:100188008031053044018E000800813143218031DF
:100198008031832080318131F921803182310F22F1
:1001A80080318131E521803181319A21803180315E
:1001B800AB2080318131A82180318031E520803128
:1001C800080090304B019F000D309D00D0309C00FE
:1001D8001D08F3001C08F2004E018C12961613300D
:1001E8004001A4000230A5008131F3218031903014
:1001F8004B019E0008007A080319032904290E29D7
:100208002030F9007908F700BF308131B6218031FC
:10021800FA011529F701FF308131B6218031FA0141
:10022800FA0A08007A0803191A291B2925292030F7
:10023800F9007908F700BF308131B6218131FA0120
:100248002C29F701FF308131B6218131FA01FA0AF0
:1002580008004E018D127108F7007008F600813110
:100268006C21813140012008210403193C293D29D2
:10027800422921088A0020080A0081310800153027
:100288007D01C5000430C60007307E01A500083096
:10029800A300403043018F00900101308D004001E0
:1002A80094124301901208004E018C1273084B01FE
:1002B8009D0072089C004001220823040319652947
:1002C80066296B2923088A0022080A008131080060
:1002D80044010E1D7029712978290E1077088D00A8
:1002E80076088C000E147C2977088D0076088C001F
:1002F80008004001A600250881318C218131400188
:10030800260881318C21813140011A161A12080001
:100318004001A400240843018C004E018D1C95293E
:10032800962991298D1043010C08080001304501D8
:1003380090008F019101FF308D008C014E010D134B
:10034800D03045018E0008004E010C100B141430FB
:100358004001A4000230A5008131FF2181314E0106
:1003680016140800F80077088131C3218131780814
:100378008131C321813140011A161A120800F60092
:10038800760843018C004E018D1CCB29CC29C72946
:100398008D1043010C080800740875040319D52949
:1003A800D629DB2975088A0074080A0081310800FB
:1003B8002030F9007908F700BF308131B62181314A
:1003C80008008030460196007F309500C0309400C8
:1003D800080040012508A1002408A00008004001E9
:1003E8002508A3002408A200080051019101033048
:1003F80093009201080040012508F5002408F40044
:1004080008004E010C108131D021823108000034DF
:1004180040340134003450018C0108000800080001
:020428000800CA
:020000040001F9
:04000E00ED3FE73F9C
:04001400FF3FFF3F6C
:00000001FF
