:0400000080313128F2
:100008007E1480314E01961E0A280B2813288C1E58
:100018000E280F2813288631CB2680312F28161C4E
:10002800162817281F280C1C1A281B281F28873158
:100038008F2780312F280B1F222823282F28971E2F
:10004800262827282F288D1E2A282B282F28863156
:10005800B42680312F287E100900803133280E30D5
:10006800840084308500DC3086002230870001302F
:10007800FF00143087315A2780319C308400863045
:10008800850020308600003087000030FF001830DF
:1000980087315A2780310830840087308500A030A6
:1000A8008600003087000030FF00103087315A2763
:1000B8008031223084008530850020308600013070
:1000C80087000030FF00423087315A278031643082
:1000D800840085308500A03086000130870000301C
:1000E800FF00423087315A278031F801F901D501E4
:1000F800D601D701D801D901DA01DB01DC017E1074
:1001080040018231A62A01304001D5070030D63D92
:100118005C080319902891285C295608803AF00059
:1001280080307002031D9A2818305502031C9D2840
:100138009E28BA2840015608803AF00080307002A4
:10014800031DA82831305502031CAB28AC28FB2816
:1001580040015608803AF00080307002031DB6282E
:10016800603055020318B928BA28FB286630F00019
:100178002330F10040015508700786005608713D8C
:100188008700010858060319CA28CB285C29C3012F
:10019800C40140014308793E860087010108F00048
:1001A8000730F036890BD5287008F1007108B800BF
:1001B8004308793E8600870101353807F000430877
:1001C800793E86008701700881000130C30700303E
:1001D800C43D4408803AF00080307002031DF628C0
:1001E80007304302031CF928FA28CD285C2940016E
:1001F8005608803AF00080307002031D05297F30D0
:100208005502031C082909292C294001BD01BE01FA
:1002180040013D08793E860087010314010DF00076
:100228003D08793E86008701700881000130BD07CE
:100238000030BE3D3E08803AF00080307002031D59
:10024800272907303D02031C2A292B290C295C2960
:100258004001C501C60140014508793E8600870175
:100268000108F0000730F036890B37297008F100D3
:100278007108B9004508793E8600870101353907BC
:10028800F0004508793E860087017008810001303A
:10029800C5070030C63D4608803AF000803070023D
:1002A800031D582907304502031C5B295C292F29A7
:1002B80040015A08031961296229E6295608803A3B
:1002C800F00080307002031D6B29083055020318B6
:1002D8006E296F2991294001BF01C00140013F08E3
:1002E800793E860087010135F0003F08793E860097
:1002F8008701700881000130BF070030C03D400809
:10030800803AF00080307002031D8C2907303F02CC
:10031800031C8F2990297229E629083040015506C7
:100328005604031D98299929B629BB01BC01AA3096
:10033800F00040013B08793E860087017008810083
:100348000130BB070030BC3D3C08803AF0008030EB
:100358007002031DB12907303B02031CB429B529DB
:100368009B29E629551CB929BA29E6297908F000FC
:100378000730F036890BBD297008F1007108BA0002
:10038800C101C20140014108793E8600870101355B
:100398003A07F0004108793E86008701700881001D
:1003A8000130C1070030C23D4208803AF000803079
:1003B8007002031DE12907304102031CE429E529E5
:1003C800C629E62940015B080319EB29EC294D2AC7
:1003D8005608803AF00080307002031DF5293E303F
:1003E80055020318F829F9294D2A40015508203EDD
:1003F80086008701010858060319032A042A4D2A92
:10040800C701C80140014708793E860087010314E7
:10041800010DF0004708793E8600870170088100C9
:100428004708023EC7000030483DC8004808803AE7
:10043800F00080307002031D232A07304702031C96
:10044800262A272A062A01304001C9000030CA009E
:1004580040014908793E860087010136803EF00058
:100468004908793E86008701700881004908023EE4
:10047800C90000304A3DCA004A08803AF00080307E
:100488007002031D492A07304902031C4C2A4D2AD1
:100498002C2A40015A080319522A532A5A2A360884
:1004A80044018D004001350844018C0040015B087F
:1004B80003195F2A602A672A330844018D00400126
:1004C800320844018C0040015608803AF000803020
:1004D8007002031D712A8B305502031C742A752A79
:1004E8007F2A40015C0803197A2A7B2A7F2AF801AF
:1004F800D501D601A52A40015608803A803C031D43
:10050800872A5508340203188A2A8B2A922A40011E
:100518005A080319902A912A922A7B2A40015608E0
:10052800803A803C031D9A2A5508310203189D2AF7
:100538009E2AA52A40015B080319A32AA42AA52AF2
:100548007B2A08008631492682318B170B178631A2
:10055800E22682314301901240019411121694123E
:10056800430190168731402782318130F2000630EE
:10057800F3008731892782314E01161486316526AA
:1005880082319930F2000730F30087317D278231BC
:100598004B019E1386310A2682318730F2000030E3
:1005A800F30087317727823144010E1087311827ED
:1005B800823145018E1387316F27823140011A112C
:1005C8001A121A104B019E1708304101B400340862
:1005D800F300FE3087312627823140011A111A10A4
:1005E80078080319F82AF92AF32B59080319FD2A60
:1005F800FE2AF32B4B019E13612B8830B40034087C
:10060800F9004430B4003408FA002230B400340849
:10061800FB001130B4003408FC008830B400340802
:10062800FD004430B4003408FE002230B400340821
:10063800FF004001DC01DC0A752BFE30B4003408F1
:10064800F900FE30B4003408FA00FE30B400340873
:10065800FB00FE30B4003408FC00FE30B40034085F
:10066800FD00FE30B4003408FE00FE30B40034084B
:10067800FF004001DA01DA0A752BAA30B400340809
:10068800F900AA30B4003408FA00AA30B4003408DB
:10069800FB00AA30B4003408FC00AA30B4003408C7
:1006A800FD00AA30B4003408FE00AA30B4003408B3
:1006B800FF004001DB01DB0A752B78084101B4001B
:1006C800B5013508003A03196A2B752B3408013A2D
:1006D8000319012B033A0319212B013A0319412B62
:1006E800752B44010E1445018E17A32BDC304101F4
:1006F800B4002230B5004001550841013407860096
:10070800400156084101353D87000108B60036080A
:10071800F2006630B7002330B800400155084101A7
:1007280037078600400156084101383D8700010817
:1007380086312A26823179308531A625823178039F
:100748000319A72BA82B7A2BC02B40015508A03ED4
:100758008600870101084101B4003408F200400115
:100768005508203E86008701010886312A268231F5
:1007780079308531A6258231023078060319C52BD8
:10078800C62BA92BE42B40015508A03E860001305A
:10079800870001084101B4003408F7007708B40065
:1007A8003408F20040015508203E860001308700D9
:1007B800010886312A26823179308531A625823191
:1007C800033078060319E92BEA2BC72BF8014001FF
:1007D800DC01DA01DB0144010E1045018E134001F2
:1007E80059080319F82BF92BE62A7808031DFD2B65
:1007F800FE2BE62A4B019E1344010E1045018E1371
:100808004E010C10161440011A151A146300E62A3A
:1008180080313128D034D034D034D034D034D034AE
:10082800D034D034D034D034D034D034D034D034A0
:10083800D034D034D034D034D034D034D034D03490
:10084800D034D034C034C034C034C034C034C034E0
:10085800C034C034C034C034C034C034C034C034F0
:10086800C034C034C034C034D034D034D034D034A0
:10087800D034D034D034D034D034D034D034D03450
:10088800C034C034C034C034D034D034D034D03480
:10089800D034D034D034D034D034D034D034D03430
:1008A800D034D034D034D034D034D034D034D03420
:1008B800C034C034C034C034D034D034D034D03450
:1008C800D034D034D034D034D034D034D034D03400
:1008D800D034D034C034C034C034C034C034C03450
:1008E800C034C034C034C034C034C034C034C03460
:1008F800C034C034C034C034C034C034C034C03450
:10090800C034C034C034C034D034D034D034D034FF
:10091800D034D034D034D034D034D034D034D034AF
:10092800D034D034D034D0349E349E349E348D3478
:100938009E349E34BC34BC34BC34BC34BC34BC346B
:100948009E349E349E348D349E349E34BC34BC34E4
:10095800BC34BC34BC34BC34D334D334D334D334B3
:10096800D334D334FC34FC34FC34FC34FC34FC3451
:10097800EE34EE34EE34EE34EE34EE349E349E34FF
:100988009E349E349E349E348D348D348D348D3413
:100998008D348D34ED34ED34ED34FC348D348D34B8
:1009A8009E349E349E348D349E349E34BC34BC3484
:1009B800BC34BC34BC34BC348D348D348D348D346B
:1009C8008D348D34ED34ED34ED34FC348D348D3488
:1009D8009E349E349E348D349E349E34BC34BC3454
:1009E800BC34BC34BC34BC34D334D334D334D33423
:1009F800D334D334B134B134B134D334FC34FC34CB
:100A0800ED34ED34ED34ED34ED34ED34BC34BC3438
:100A1800BC34BC34BC34BC34ED34ED349E349E3428
:100A2800BC34BC349E349E349E34B134D334D33475
:100A3800EE34EE34EE34EE34EE34EE34003400347A
:100A4800D434D434D434D434D434D434D434D4345E
:100A5800D434D4340034D434D434D434D434D43422
:100A6800D434D434D434D434D434D434D434D4343E
:100A7800D434D4340034D434D434D43400340034AA
:100A8800D434D434D434D434D434D434D434D4341E
:100A9800D434D4340034D434D434D434D434D434E2
:100AA800D434D434D434D434D434D434D434D434FE
:100AB800D434D43400340034ED34D434B034B034C5
:100AC800E034E034D034D034E034E034D034D034BE
:100AD800E034E034D034E0340034E034D034D0347E
:100AE800E034E034D034D034E034E034D034D0349E
:100AF800E034E034D034E0340034E034D034D0345E
:100B0800E034E034D034D034E034E034D034D0347D
:100B1800E034E034D034E0340034E034D034D0343D
:100B2800E034E034D034D034E034E034D034D0345D
:100B3800E034E034D034E03400340034D034D034FD
:100B4800D034D0344101B000B301B101B201410148
:100B58003308031DB02DB12DB62D0130F5007508F1
:100B6800B307BA2D3335F5007508B3003308F5001F
:100B78007508F30031083007F6007608860087010B
:100B880001088731262785310330F5009830890B15
:100B9800CB2DF50BCB2D01304101B1070030B23D13
:100BA8003208803AF50080307502031DDD2D0730CC
:100BB8003102031CE02DE12DAB2D08004001980106
:100BC8009A011F309200023094001F307E01CE003F
:100BD8002330B800B901CF01BA01D0013730BB00CA
:100BE8003F30D1003F30BC003F30D20002307D01A1
:100BF80090001530C50008307E01A3000330950031
:100C08000730A50004307D01C600080044018F01AB
:100C1800900104309100E1308D00BA308C004E0113
:100C28008D1244010D084001CE0044010C0840011A
:100C3800CD004E019716A030F2000730F30087313F
:100C480077278631053044018E000800F4007408C7
:100C5800400158060319312E322E352E74084501ED
:100C68008D0072084001570603193B2E3C2E3F2E7B
:100C7800720845018E007408F30073084001D8001B
:100C88007208F3007308D70008008631E22686311F
:100C98008531E225863187318327863187319D2743
:100CA800863187316F27863187311827863186311B
:100CB8000A26863187314027863186316526863176
:100CC800080090304B019F0086309D00E8309C0062
:100CD8001D084001D2004B011C084001D1004E0103
:100CE8008C129616A130F2000730F30087317D2769
:100CF800863190304B019E0008000130F0007008EA
:100D0800F80787316627863144010E1C8C2E8D2EFC
:100D1800922EF8014001D501D601942E4001D90147
:100D2800780837020318992E9A2E9B2EF80108008E
:100D3800D3349E348D34D334BC34BC3400340034C2
:100D4800BC34BC349E349E34BC34BC348D348D34B5
:100D58008D3442343434EA341034E434F334033414
:100D68004E018D1240014E08F1004D08F000863109
:100D7800F726863140014B084C040319C42EC52EB2
:100D8800CA2E4C088A004B080A00863108004E011A
:100D98008C12400152084B019D00400151084B0143
:100DA8009C0040014F0850040319DB2EDC2EE12E75
:100DB80050088A004F080A008631080015307D0166
:100DC800C5000430C60007307E01A5000830A30026
:100DD800403043018F00900101308D004001941292
:100DE80043019012080044010E1DFB2EFC2E032F18
:100DF8000E1071088D0070088C000E14072F7108F2
:100E08008D0070088C000800B034B034B034A034C1
:100E1800A034A034A034A034C034C034C034C034AA
:100E2800C034C034C034C0340130450190008F0153
:100E38009101FF308D008C014E010D13B03045013A
:100E48008E000800F400730887313327873174084F
:100E580087313327873140011A161A120800F20029
:100E6800720843018C004E018D1C3B2F3C2F372FFD
:100E78008D1043010C0808004E010C100B14A23011
:100E8800F2000730F3008731892787314E011614A5
:100E980008004001530854040319532F542F592FA5
:100EA80054088A0053080A0087310800FE0012001F
:100EB8001E000130FE020030FF3B7F087E04031D48
:100EC8005B2F0034400152084B019D00400151083E
:100ED8004B019C0008008030460196007F30950049
:100EE800C0309400080073084001CC007208CB00A1
:100EF800080073084001D0007208CF0008005101B3
:100F08009101033093009201080073084001D40056
:100F18007208D30008004E010C1087314D27873125
:100F2800080000344034013400344001D901D90AA2
:0E0F3800080050018C010800080008000800A5
:020000040001F9
:04000E00ED3FE73F9C
:04001400FF3FFF3F6C
:00000001FF
