:1000000080313128080003347E1480314E01961E61
:100010000A280B2813288C1E0E280F2813288C3131
:100020005B2480312F28161C162817281F280C1C2B
:100030001A281B281F288B318E2380312F280B1F55
:10004000222823282F28971E262827282F288D1E70
:100050002A282B282F288C31452480312F287E10E8
:100060000900803133288E3084008C3085007E304A
:100070008600203087000330FF0072308B31CD23A3
:100080008031803103208031FD00FA3084008730D8
:10009000850050308600003087000030FF000630B9
:1000A0008B31CD2380319A3084008B308500B7307E
:1000B0008600003087000030FF0007308B31CD23F1
:1000C0008031CA01CB01CC01CD01CE01CF0141016C
:1000D000BE01BF01C001C101C2017E1040018431D7
:1000E000912C01304101BE070030BF3D40014F0857
:1000F00003197B287C28692941013F08803AF900CF
:1001000080307902031D862818303E02031C89289E
:100110008A28A62841013F08803AF90080307902F8
:10012000031D942831303E02031C97289828E828A4
:1001300041013F08803AF90080307902031DA2286E
:1001400060303E020318A528A628E828DB30F90015
:100150002230FA0041013E08790786003F087A3DC7
:100160008700010840014C060319B728B8286929FF
:10017000BC01BD0140013C08B73E86008701010873
:10018000F9000730F936890BC2287908FA007A0895
:10019000A0003C08B73E8600870101352007F90022
:1001A0003C08B73E86008701790881000130BC0712
:1001B0000030BD3D3D08803AF90080307902031DD2
:1001C000E32807303C02031CE628E728BA286929FF
:1001D00041013F08803AF90080307902031DF2287E
:1001E00078303E02031CF528F6282A29DB30F90076
:1001F0002230FA0041013E08790786003F087A3D27
:100200008700010840014C060319072908292A29FB
:10021000B801B90140013808B73E860087010314D0
:10022000010DF9003808B73E860087017908810082
:100230000130B8070030B93D3908803AF900803004
:100240007902031D252907303802031C2829292992
:100250000A29692941013F08803AF9008030790272
:10026000031D342978303E020318372938296929BB
:100270004001BE01BF0140013E08B73E8600870134
:100280000108F9000730F936890B43297908FA008B
:100290007A08A1003E08B73E860087010135210794
:1002A000F9003E08B73E86008701790881000130D9
:1002B000BE070030BF3D3F08803AF9008030790228
:1002C000031D642907303E02031C672968293B2966
:1002D000692940014E0803196E296F29FA2B410143
:1002E0003F08803AF90080307902031D79290A30ED
:1002F0003E0203187C297D299B294001A401A50108
:10030000F330F90040012408B73E860087017908E0
:1003100081000130A4070030A53D2508803AF9008E
:1003200080307902031D962907302402031C992985
:100330009A298029FA2B41013F08803AF900803040
:100340007902031DA52914303E020318A829A92902
:10035000C7294001A601A7010F30F9004001260876
:10036000B73E86008701790881000130A60700307A
:10037000A73D2708803AF90080307902031DC22981
:1003800007302602031CC529C629AC29FA2B4101D6
:100390003F08803AF90080307902031DD1291D30D1
:1003A0003E020318D429D529F3294001A801A90147
:1003B000FC30F90040012808B73E86008701790823
:1003C00081000130A8070030A93D2908803AF900D2
:1003D00080307902031DEE2907302802031CF12921
:1003E000F229D829FA2B1D3041013E063F04031D96
:1003F000FA29FB29192A4001AA01AB017F30F90033
:1004000040012A08B73E8600870179088100013043
:10041000AA070030AB3D2B08803AF9008030790202
:10042000031D142A07302A02031C172A182AFE2942
:10043000FA2B1C30F9002130FA003E0879078600BB
:100440003F087A3D87000108031D272A282A472AEA
:100450004001AC01AD012D08803AF90080307902ED
:10046000031D342A07302C02031C372A382A392A64
:10047000FA2B7F30F90040012C08B73E8600870137
:10048000790881000130AC070030AD3D2B2A3F08D0
:10049000803AF90080307902031D502A2E303E0246
:1004A0000318532A542A882A1C30F9002130FA00F4
:1004B00041013E08790786003F087A3D8700010820
:1004C00040014C060319652A662A882ABA01BB0135
:1004D0003B08803AF90080307902031D712A073009
:1004E0003A02031C742A752A762AFA2B40013A082C
:1004F000B73E860087010136F9003A08B73E86000C
:100500008701790881000130BA070030BB3D682AB5
:1005100041013F08803AF90080307902031D922A98
:100520003E303E020318952A962AC02A41013F0810
:10053000803AF90080307902031DA02A2E303E0255
:10054000031CA32AA42AC02A4001AE01AF012F0830
:10055000803AF90080307902031DB02A07302E025C
:10056000031CB32AB42AB52AFA2B40012E08B73E41
:100570008600870181010130AE070030AF3DA72A18
:1005800041013F08803AF90080307902031DCA2AF0
:100590003E303E02031CCD2ACE2AFA2B0130F90050
:1005A00079084001CA074A03031DD72AD82AF62A28
:1005B0008830F90079084101B7004430F900790822
:1005C000B8002230F9007908B9001130F900790833
:1005D000BA008830F9007908BB004430F900790886
:1005E000BC002230F9007908BD00FA2B09304A021C
:1005F0000318FB2AFC2A3F2B1C30F9002130FA009B
:1006000041013E08790786003F087A3D87000108CE
:1006100040014C0603190D2B0E2BFA2BC001C10112
:100620004108803AF90080307902031D192B073008
:100630004002031C1C2B1D2B1E2BFA2B40014008D3
:10064000B73E860087010108F9000730F936890BAB
:10065000262B7908FA007A08A2004008B73E8600E7
:10066000870101352207F9004008B73E860087015F
:10067000790881000130C0070030C13D102B1030D7
:100680004A020318442B452BF92B1C30F90021306A
:10069000FA0041013E08790786003F087A3D87004D
:1006A000010840014C060319562B572BFA2B023038
:1006B000F0000030F1004A08F83EF200FF30031865
:1006C0000030F3008631812680317008F900790806
:1006D0004001A300E32BB001B1013108803AF900D9
:1006E00080307902031D762B07303002031C792BF2
:1006F0007A2B7B2BFA2B8130F90040013008B73E72
:1007000086008701790881000130B0070030B13DD3
:100710006D2BB201B3013308803AF90080307902C1
:10072000031D942B07303202031C972B982B992B17
:10073000FA2BC330F90040013208B73E860087012A
:10074000790881000130B2070030B33D8B2BB40132
:10075000B5013508803AF90080307902031DB22BCB
:1007600007303402031CB52BB62BB72BFA2BE7301E
:10077000F90040013408B73E8600870179088100FE
:100780000130B4070030B53DA92BB601B7013708D9
:10079000803AF90080307902031DD02B07303602F1
:1007A000031CD32BD42BD52BFA2BFF30F90040019F
:1007B0003608B73E86008701790881000130B60708
:1007C0000030B73DC72B2308F900FA017A08003A38
:1007D0000319EB2BFA2B7908003A03196B2B013A1A
:1007E0000319892B033A0319A72B013A0319C52BC7
:1007F000FA2BCA0140014D080319FF2B002C422C93
:10080000BA30F9002130FA0041013E08790786002C
:100810003F087A3D8700D4300106031D102C112CAF
:10082000272C4B30F9002230FA003E087907860069
:100830003F087A3D8700D0300106031D202C212C73
:10084000272CF00100308731A02780313A2C6E3000
:100850003E063F0403192D2C2E2C352C6F303E06FE
:100860003F04031D342C352C3A2CF0010030873125
:10087000A02780314001550844018D0040015408F3
:1008800044018C0040014E080319472C482C4F2C82
:10089000520844018D004001510844018C0041017F
:1008A0003F08803AF90080307902031D592C8B30C3
:1008B0003E02031C5C2C5D2C682C40014F08031980
:1008C000622C632C682C4101C101BE01BF01902C38
:1008D00041013F08803A803C031D712C3E084001D5
:1008E00053020318742C752C7C2C40014D080319FD
:1008F0007A2C7B2C7C2C632C41013F08803A803C75
:10090000031D852C3E08400150020318882C892CB9
:10091000902C40014E0803198E2C8F2C902C632CA8
:1009200008008C31722484318B170B178C313024E2
:100930008431430190124001941112169412430124
:1009400090168B31E62384311E304101A000073020
:10095000A1008B31B22384314E0116148731DD277B
:1009600084318A304101A0000B30A1008B31BB23C0
:1009700084314B019E138731BF278431713041018F
:10098000A0000030A1008B31C423843144010E103B
:100990008B31F423843145018E138B31A1238431B3
:1009A00040011A111A121A104101B101B20141019C
:1009B000AF01B001B7308631E0268431013041010A
:1009C000AF070030B03D3008803AA90080302902DE
:1009D000031DEC2C0C302F02031CEF2CF02CDA2C16
:1009E00041013208803AA90080302902031DFA2C07
:1009F000073031020318FD2CFE2C362D4101B301C6
:100A0000B40141013308B73E860087010109A900FE
:100A10000630A935FF3E031D092D2935AA002A08F5
:100A2000AE002E08A9000730A936890B142D330813
:100A3000B73E8600870101352907AA003308B73E73
:100A4000860087012A0881000130B3070030B43DD9
:100A50003408803AA90080302902031D312D073067
:100A60003302031C342D352D012D582D4101B501C4
:100A7000B60141013508B73E860087010314010D18
:100A8000A9003508B73E860087012908810001309A
:100A9000B5070030B63D3608803AA90080302902FB
:100AA000031D542D07303502031C572D582D392DA9
:100AB00001304101B1070030B23D3208803AA9004F
:100AC00080302902031D662D0F303102031C692D71
:100AD0006A2DD72C4B019E1708304101A900290827
:100AE000A100FE308C311024843140011A111A10FB
:100AF0004101410803197D2D7E2D662E4208031900
:100B0000822D832D662E4B019E13CE2D8830A90099
:100B10002908B7004430A9002908B8002230A900EC
:100B20002908B9001130A9002908BA008830A900A5
:100B30002908BB004430A9002908BC002230A900C4
:100B40002908BD004001CF01CF0AE22D4001CD01AF
:100B5000CD0AE22DFF30A9002908B700FF30A90017
:100B60002908B800FF30A9002908B900FF30A90002
:100B70002908BA00FF30A9002908BB00FF30A900EE
:100B80002908BC00FF30A9002908BD004001CA01A6
:100B90004101C0014001CE01CE0AE22D41014108D0
:100BA000A900AA012A08003A0319D72DE22D290825
:100BB000013A0319862D033A0319A62D013A0319A8
:100BC000AA2DE22D44010E1445018E17072E663022
:100BD000A9002330AA003E08290786003F082A3DC5
:100BE00087000108AB002B08A000DB30AC002230EE
:100BF000AD003E082C0786003F082D3D8700010808
:100C000087317A278431B7308631E026843141013B
:100C1000410303190C2E0D2EE72D2E2E4B30A9006B
:100C20002230AA003E08290786003F082A3D870097
:100C30000108AB002B08A000BA30AC002130AD0099
:100C40003E082C0786003F082D3D870001088731AC
:100C50007A278431B7308631E02684310230410171
:100C600041060319342E352E0E2E562E7E30A90045
:100C70002030AA003E08290786003F082A3D870049
:100C80000108AB002B08A0001C30AC002130AD00E7
:100C90003E082C0786003F082D3D8700010887315C
:100CA0007A278431B7308631E02684310330410120
:100CB000410603195C2E5D2E362EC1014001CF0185
:100CC000CD01CE0144010E1045018E1341014208B1
:100CD00003196B2E6C2E6A2D4108031D702E712E88
:100CE0006A2D4B019E1344010E1045018E134E01D7
:100CF0000C10161440011A151A1463006A2D803165
:100D00003128F601F11F852E862E8D2EF009F1096E
:100D1000F00A0319F10AF601F60AF31F902E912E3C
:100D20009A2EF209F309F20A0319F30A0130F400CA
:100D30007408F606F701F801700871040319A12E72
:100D4000A22ED12EF501F50AAE2E0130F035F10DAF
:100D5000890BA62E0130F4007408F507F11FB12E9F
:100D6000B22EA52E0130F735F80D890BB32E710880
:100D70007302031DBD2E70087202031CC02EC12E0B
:100D8000C62E7008F2027108F33B77140130F13679
:100D9000F00C890BC72E0130F502031DD02ED12E89
:100DA000B22E76080319D52ED62EDB2EF709F809B8
:100DB000F70A0319F80A7808F1007708F00008002C
:100DC0004101A500A801A601A70141012808031DB2
:100DD000EA2EEB2EF02E0130A3002308A807F42EF4
:100DE0002835A3002308A8002808A3002308A10091
:100DF00026082507A40024088600870101088C31F5
:100E00001024863103304101A3009730890B062F4F
:100E1000A30B062F003201304101A6070030A73D89
:100E20002708803AA30080302302031D192F0730C2
:100E30002602031C1C2F1D2FE52E0800F101302F68
:100E400040010C1D242F252F1E2F0130F0007008AB
:100E5000F1070330F0009830890B2C2FF00B2C2F6A
:100E600014307102031C352F362F202F0130F00073
:100E700070084101C1078B31A923873144010E1C41
:100E8000422F432F482F4101C101BE01BF014A2F0C
:100E90004101C20141087D0203184F2F502F512FED
:100EA000C1010800400198019A011F3092000230F0
:100EB00094001F307E01CE002330B800B901CF016D
:100EC000BA01D0013730BB003F30D1003F30BC0009
:100ED0003F30D20002307D0190001530C50008304F
:100EE0007E01A300033095000730A50004307D018A
:100EF000C60008004101A200220840014C06031967
:100F0000822F832F872F4101220845018D00410147
:100F1000200840014B0603198E2F8F2F932F41017C
:100F2000200845018E0041012208A100210840014E
:100F3000CC0041012008A10021084001CB0008009D
:100F4000F200720840014C060319A72FA82FAB2FFF
:100F5000720845018D00700840014B060319B12F3E
:100F6000B22FB52F700845018E007208F10071088C
:100F70004001CC007008F1007108CB00080044016A
:100F80008F01900104309100E1308D00BA308C0067
:100F90004E018D1244010D08FC000C08FB004E01AF
:100FA000971602304101A0000030A1008B31C4230C
:100FB0008731053044018E00080090304B019F00BE
:100FC00086309D00E8309C001D084001C7004B01A1
:100FD0001C084001C6004E018C1296168630410155
:100FE000A0000B30A1008B31BB23873190304B0127
:100FF0009E0008009E343A34F13490341C34ED34B1
:10170A000800080050018C0108004101C201C20A08
:10171A0008004E010C108B31D9238B31080051017E
:10172A0091010330930092010800FE34FF34FE3425
:10173A00FF34FE34FF34FE348030460196007F3099
:10174A009500C03094000800400147084B019D00F5
:10175A00400146084B019C00080041012108400154
:10176A00C900410120084001C800080041012108C0
:10177A004001C500410120084001C40008004101A0
:10178A0021084001C300410120084001C2000800AD
:10179A00FE0012001E000130FE020030FF3B7F08EF
:1017AA007E04031DCE2B0034400148084904031966
:1017BA00DF2BE02BE52B49088A0048080A008B3109
:1017CA0008004E010C100B1485304101A0000B30AB
:1017DA00A1008B31B2238B314E011614080001305F
:1017EA00450190008F019101FF308D008C014E015F
:1017FA000D13B03045018E0008004101A0002008F9
:10180A0043018C004E018D1C0B2C0C2C072C8D10C7
:10181A0043010C0808004101A20021088C3102246E
:10182A008C31410122088C3102248C3140011A1674
:10183A001A12080044010E1D232C242C2B2C0E10E6
:10184A0071088D0070088C000E142F2C71088D0001
:10185A0070088C00080015307D01C5000430C600F0
:10186A0007307E01A5000830A300403043018F00F5
:10187A00900101308D00400194124301901208003A
:10188A004E018D127C08F1007B08F0008C311F2478
:10189A008C314001420843040319542C552C5A2C0C
:1018AA0043088A0042080A008C3108004E018C1253
:1018BA00400147084B019D00400146084B019C002E
:1018CA0040014408450403196B2C6C2C712C450803
:1018DA008A0044080A008C3108008C3130248C318B
:1018EA00873152278C318B3194238C318B3187236A
:1018FA008C318B31A1238C318B31F4238C3187319C
:10190A00BF278C318B31E6238C318731DD278C312F
:10191A000800E034E034E034E034E034E034E03429
:10192A00E034E034E034E034E034E034E034E0340D
:10193A00E034E034E034E034E034E034E034E034FD
:10194A00E034E034E034E034E034E034E034E034ED
:10195A00E034D034D034D034D034D034D034D0344D
:10196A00D034D034D034C034C034C034C034D0348D
:10197A00D034D034D034D034D034D034D034D0343D
:10198A00D034D034D034D034D034C034C034D0344D
:10199A00D034D034D034D034D034E034D034D0340D
:1019AA00D034D034D034D034D034D034D034D0340D
:1019BA00D034D034D034D034D034E034D034D034ED
:1019CA00D034D034D034D034D034D034D034D034ED
:1019DA00D034D034D034D034D034E034D034D034CD
:1019EA00D034D034D034D034D034D034D034D034CD
:1019FA00D034D034D034D034D034E034D034D034AD
:101A0A00D034D034D034D034D034D034D034D034AC
:101A1A00D034D034D034D034D034E034D034D0348C
:101A2A00D034D034D034D034D034D034D034D0348C
:101A3A00D034D034D034D034D034E034D034D0346C
:101A4A00D034D034D034D034D034D034D034D43468
:101A5A00D434D434D434D434D434D434D434D4343C
:101A6A00D434FC34FC34FC34FC34FC34FC34FC3414
:101A7A00FC34FC34FC34B234B234B234B234B2344E
:101A8A00B234B234B234B234B2348D348D34EE342A
:101A9A00EE34D434D434BD34BD349E349E348D34C3
:101AAA008D34EE34EE34D434D434BD340034BD3401
:101ABA000034BD340034BD340034BD340034BD3488
:101ACA000034BD340034BD34BD349E349E349E345B
:101ADA009E34B234B2349E349E349E349E34B23430
:101AEA00B234BD34BD34D434D4349E349E349E349E
:101AFA009E34B234B2349E349E349E349E34B23410
:101B0A00B234BD34BD34D434D4349E349E349E347D
:101B1A009E34B234B2349E349E349E349E34B234EF
:101B2A00B234BD34BD34D434D4349E349E349E345D
:101B3A009E34B234B2349E349E349E349E34B234CF
:101B4A00B234BD34BD34D434D4349E349E349E343D
:101B5A009E34B234B2349E349E349E349E34B234AF
:101B6A00B234BD34BD34D434D4349E349E349E341D
:101B7A009E34B234B2349E349E349E349E34B2348F
:101B8A00B234BD34BD34D434D43432343234D4349F
:101B9A00D434EE34EE34FC34FC349E349E349E3419
:101BAA009E34FC34FC349E349E34FC34FC34EE34D3
:101BBA00EE34EE34EE34FC34FC34FC34FC34EE34D3
:101BCA00EE34EE34EE34FC34FC3400340034D434D5
:101BDA00D434EE34EE34FC34FC349E349E349E34D9
:101BEA009E34FC34FC349E349E348D348D34FC3463
:101BFA00FC348D348D349E349E34B234B234B234D3
:101C0A00B234A834A834A834A83400340034D43404
:101C1A00D434EE34EE34FC34FC349E349E349E3498
:101C2A009E34FC34FC349E349E34003400349E349A
:101C3A0000349E349E349E349E34003400348D34F5
:101C4A0000348D348D348D348D3400340034D434E2
:101C5A00D434EE34EE34FC34FC349E349E349E3458
:101C6A009E34003400349E349E34FC34FC34EE340A
:101C7A00EE34EE34EE34FC34FC34FC34FC34FC3404
:101C8A00FC34EE34EE34EE34EE3400340034D43422
:101C9A00D434EE34EE34FC34FC349E349E349E3418
:101CAA009E34003400349E349E34003400340034B0
:101CBA00D034D034D034D034D034D034E034E034DA
:101CCA00E034E034D034D034E034E034D034D034AA
:101CDA00D034D034D034D034D034D034D034D034DA
:101CEA00D034D034D034D034D034D034D034D034CA
:101CFA00D034D034D034D034D034D034E034E0349A
:101D0A00E034E034D034D034E034E034E034E03449
:101D1A00D034D034E034E034E034E034E034E03439
:101D2A00E034E034E034E034E034E034D034D03429
:101D3A00D034D034D034D034D034D034E034E03459
:101D4A00E034E034D034D034E034E034E034E03409
:101D5A00E034E034E034E034E034E034E034E034D9
:101D6A00E034E034E034E034E034E034D034D034E9
:101D7A00D034D034D034D034D034D034E034E03419
:101D8A00E034E034D034D034E034E034D034D034E9
:101D9A00D034D034D034D034D034D034D034D03419
:101DAA00D034D034D034D034D034D034D034D03409
:101DBA00D034D034D034D034D034D034E034E034D9
:101DCA00E034E034D034D034E034E0349E349E340D
:101DDA009E348D349E349E34BC34BC34BC34BC3402
:101DEA00BC34BC349E349E349E348D349E349E342E
:101DFA00BC34BC34BC34BC34BC34BC34D334D3342B
:101E0A00D334D334D334D334FC34FC34FC34FC34EC
:101E1A00FC34FC34EE34EE34EE34EE34EE34EE348C
:101E2A009E349E349E349E349E349E348D348D343A
:101E3A008D348D348D348D34ED34ED34ED34FC3401
:101E4A008D348D349E349E349E348D349E349E342B
:101E5A00BC34BC34BC34BC34BC34BC348D348D3456
:101E6A008D348D348D348D34ED34ED34ED34FC34D1
:101E7A008D348D349E349E349E348D349E349E34FB
:101E8A00BC34BC34BC34BC34BC34BC34D334D3349A
:101E9A00D334D334D334D334B134B134B134D33466
:101EAA00FC34FC34ED34ED34ED34ED34ED34ED3402
:101EBA00BC34BC34BC34BC34BC34BC34ED34ED3436
:101ECA009E349E34BC34BC349E349E349E34B13429
:101EDA00D334D334EE34EE34EE34EE34EE34EE341E
:101EEA000034D034D034D034D034D034D034D03498
:101EFA00D034D034D034D034D034D034D034D034B8
:101F0A00D034D034D034D034D034D034D034D034A7
:101F1A00D034C034C034C034C034C034C034C03407
:101F2A00C034C034C034C034C034C034C034C03407
:101F3A00C034C034C034D034D034D034D034D034A7
:101F4A00D034D034D034D034D034D034D034C03477
:101F5A00C034C034C034D034D034D034D034D03487
:101F6A00D034D034D034D034D034D034D034D03447
:101F7A00D034D034D034D034D034D034D034C03447
:101F8A00C034C034C034D034D034D034D034D03457
:101F9A00D034D034D034D034D034D034D034D03417
:101FAA00D034C034C034C034C034C034C034C03477
:101FBA00C034C034C034C034C034C034C034C03477
:101FCA00C034C034C034C034C034C034C034C03467
:101FDA00C034C034C034D034D034D034D034D03407
:101FEA00D034D034D034D034D034D034D034D034C7
:101FFA00D034D034D03400344034013400348D34F9
:0C200A009E34B234BD34D434EE34FC34C7
:020000040001F9
:04000E00ED3FE73F9C
:04001400FF3FFF3F6C
:00000001FF
