:0400000080313128F2
:100008007E1480314E01961E0A280B2813288C1E58
:100018000E280F2813288231CE2280312F28161C53
:10002800162817281F280C1C1A281B281F2883315C
:10003800882380312F280B1F222823282F28971E3A
:10004800262827282F288D1E2A282B282F2882315A
:100058008E2280312F287E100900803133284830C5
:10006800840080308500DC30860022308700013033
:10007800FF001430833153238031F801F901FA016C
:100088007E10400181315C29D034D034D034D03452
:10009800D034D034D034D034D034D034D034D03438
:1000A800D034D034D034D034D034D034D034D03428
:1000B800D034D034D034D034C034C034C034C03458
:1000C800C034C034C034C034C034C034C034C03488
:1000D800C034C034C034C034C034C034D034D03458
:1000E800D034D034D034D034D034D034D034D034E8
:1000F800D034D034C034C034C034C034D034D03418
:10010800D034D034D034D034D034D034D034D034C7
:10011800D034D034D034D034D034D034D034D034B7
:10012800D034D034C034C034C034C034D034D034E7
:10013800D034D034D034D034D034D034D034D03497
:10014800D034D034D034D034C034C034C034C034C7
:10015800C034C034C034C034C034C034C034C034F7
:10016800C034C034C034C034C034C034C034C034E7
:10017800C034C034C034C034C034C034D034D034B7
:10018800D034D034D034D034D034D034D034D03447
:10019800D034D034D034D034D034D0349E349E349B
:1001A8009E348D349E349E34BC34BC34BC34BC3450
:1001B800BC34BC349E349E349E348D349E349E347C
:1001C800BC34BC34BC34BC34BC34BC34D334D33479
:1001D800D334D334D334D334FC34FC34FC34FC343B
:1001E800FC34FC34EE34EE34EE34EE34EE34EE34DB
:1001F8009E349E349E349E349E349E348D348D3489
:100208008D348D348D348D34ED34ED34ED34FC344F
:100218008D348D349E349E349E348D349E349E3479
:10022800BC34BC34BC34BC34BC34BC348D348D34A4
:100238008D348D348D348D34ED34ED34ED34FC341F
:100248008D348D349E349E349E348D349E349E3449
:10025800BC34BC34BC34BC34BC34BC34D334D334E8
:10026800D334D334D334D334B134B134B134D334B4
:10027800FC34FC34ED34ED34ED34ED34ED34ED3450
:10028800BC34BC34BC34BC34BC34BC34ED34ED3484
:100298009E349E34BC34BC349E349E349E34B13477
:1002A800D334D334EE34EE34EE34EE34EE34EE346C
:1002B80082312A2281318B170B178231B922813181
:1002C80043019012400194111216941243019016A2
:1002D80083311E2381315F304001A0000330A1002B
:1002E8008331822381314E011610823146228131B9
:1002F80077304001A0000230A1008331762381319C
:100308004B019E1382310C22813160304001A000E4
:100318000230A10083317023813144010E108331F2
:100328001023813145018E138331682381314001C7
:100338001A111A101A12A101FF308231F3228131E9
:10034800DC304001A3002230A4007808230786008F
:100358007908243D87000108A5002508A00066301B
:10036800A6002330A7007808260786007908273DCD
:10037800870001088231A42281310130F80700305A
:10038800F93D7908803A4001A30080302302031D1B
:10039800CF298B307802031CD229D329D4296300B2
:1003A80003304001A4008A30A3005530890BDA29B4
:1003B800A30BDA29A40BDA290032A42980313128C9
:1003C800400198019A011F309200023094001F30BA
:1003D8007E01CE002330B800B901CF01BA01D001A7
:1003E8003730BB003F30D1003F30BC003F30D20037
:1003F80002307D0190001530C50008307E01A30051
:10040800033095000730A50004307D01C6000800C0
:1004180044018F019001043091000D308D00D030DF
:100428008C004E018D1244010D08F1000C08F000FB
:100438004E01971695304001A0000330A10083318A
:1004480070238231053044018E0008008231B922C0
:1004580082318131E421823183317C2382318331BD
:100468009223823183316823823183311023823190
:1004780083311E23823182310C228231823146221D
:100488008231080090304B019F000D309D00D03024
:100498009C001D08F3001C08F2004E018C129616F1
:1004A80096304001A0000330A100833176238231C9
:1004B80090304B019E0008007A080319642A652AC7
:1004C8006F2A2030F7007708F500BF3083313923D1
:1004D8008231FA01762AF501FF30833139238231DE
:1004E800FA01FA0A08007A0803197B2A7C2A862A64
:1004F8002030F7007708F500BF3083313923823187
:10050800FA018D2AF501FF30833139238231FA014E
:10051800FA0A08004E018D127108F5007008F400FF
:100528008231E222823140012808290403199D2AD8
:100538009E2AA32A29088A0028080A00823108006E
:100548004001A10045018E17400121080319AD2A79
:10055800AE2AB62A200845018E004001210845012F
:100568008D00B82A45018E13080015307D01C5009D
:100578000430C60007307E01A5000830A3004030D3
:1005880043018F00900101308D0040019412430116
:10059800901208004E018C1273084B019D007208DE
:1005A8009C0040012A082B040319DB2ADC2AE12AD3
:1005B8002B088A002A080A008231080044010E1D0F
:1005C800E62AE72AEE2A0E1075088D0074088C00BA
:1005D8000E14F22A75088D0074088C00080040017A
:1005E800A20021088331022382314001220883318D
:1005F8000223823140011A161A1208004001A00095
:10060800200843018C004E018D1C0B2B0C2B072B53
:100618008D1043010C0808000130450190008F013E
:100628009101FF308D008C014E010D13C030450142
:100638008E0008004E010C100B1497304001A000EA
:100648000330A1008331822383314E011614080040
:1006580040012C082D040319322B332B382B2D087D
:100668008A002C080A0083310800F60075088331D7
:1006780046238331760883314623833140011A1695
:100688001A120800F400740843018C004E018D1CF6
:100698004E2B4F2B4A2B8D1043010C080800FE00EF
:1006A80012001E000130FE020030FF3B7F087E046E
:1006B800031D542B00342030F7007708F500BF30B5
:1006C80083313923833108008030460196007F301A
:1006D8009500C0309400080040012108A9002008B6
:1006E800A800080040012108AB002008AA00080063
:1006F8005101910103309300920108004001210843
:10070800AD002008AC0008004E010C1083312C23EA
:1007180083310800003440340134003450018C0126
:080728000800080008000800A9
:020000040001F9
:04000E00ED3FE73F9C
:04001400FF3FFF3F6C
:00000001FF
