:1000000080313128080003347E1480314E01961E61
:100010000A280B2813288C1E0E280F2813288D3130
:10002000942580312F28161C162817281F280C1CF1
:100030001A281B281F288C31C12480312F280B1F20
:10004000222823282F28971E262827282F288D1E70
:100050002A282B282F288D317E2580312F287E10AD
:100060000900803133286A308400843085009F3055
:100070008600213087000230FF0051308D31062587
:100080008031803103208031FD00CD3084008C3000
:10009000850050308600003087000030FF000630B9
:1000A0008D3106258031D33084008C308500B73007
:1000B0008600003087000030FF0007308D310625B4
:1000C0008031583084008730850020308600013030
:1000D00087000030FF003C308D3106258031CA0199
:1000E000CB01CC01CD01CE01CF014101BE01BF0149
:1000F000C001C101C2017E1040018E311F2E0130AE
:100100004101BE070030BF3D40014F080319892857
:100110008A28772941013F08803AF9008030790226
:10012000031D942818303E02031C97289828B428F1
:1001300041013F08803AF90080307902031DA2286E
:1001400031303E02031CA528A628F62841013F08AD
:10015000803AF90080307902031DB02860303E02F9
:100160000318B328B428F628DB30F9002230FA004F
:1001700041013E08790786003F087A3D8700010863
:1001800040014C060319C528C6287729BC01BD01CA
:1001900040013C08B73E860087010108F90007309E
:1001A000F936890BD0287908FA007A08A0003C08B3
:1001B000B73E8600870101352007F9003C08B73EAD
:1001C00086008701790881000130BC070030BD3D01
:1001D0003D08803AF90080307902031DF12807308C
:1001E0003C02031CF428F528C828772941013F0860
:1001F000803AF90080307902031D002978303E02F0
:10020000031C032904293829DB30F9002230FA00C5
:1002100041013E08790786003F087A3D87000108C2
:1002200040014C060319152916293829B801B901CE
:1002300040013808B73E860087010314010DF9001C
:100240003808B73E86008701790881000130B80779
:100250000030B93D3908803AF90080307902031D39
:10026000332907303802031C362937291829772902
:1002700041013F08803AF90080307902031D42298C
:1002800078303E0203184529462977294001BE01EE
:10029000BF0140013E08B73E860087010108F90012
:1002A0000730F936890B51297908FA007A08A1003C
:1002B0003E08B73E8600870101352107F9003E0858
:1002C000B73E86008701790881000130BE07003003
:1002D000BF3D3F08803AF90080307902031D722942
:1002E00007303E02031C75297629492977294001E8
:1002F0004E0803197C297D29082C41013F08803ACA
:10030000F90080307902031D87290A303E02031864
:100310008A298B29A9294001A401A501F330F900FC
:1003200040012408B73E860087017908810001302A
:10033000A4070030A53D2508803AF90080307902F5
:10034000031DA42907302402031CA729A8298E29EC
:10035000082C41013F08803AF90080307902031DE2
:10036000B32914303E020318B629B729D529400114
:10037000A601A7010F30F90040012608B73E86000C
:100380008701790881000130A6070030A73D2708C2
:10039000803AF90080307902031DD0290730260207
:1003A000031CD329D429BA29082C41013F08803ADB
:1003B000F90080307902031DDF291D303E02031849
:1003C000E229E329012A4001A801A901FC30F90032
:1003D00040012808B73E8600870179088100013076
:1003E000A8070030A93D2908803AF9008030790239
:1003F000031DFC2907302802031CFF29002AE629D7
:10040000082C1D3041013E063F04031D082A092A1D
:10041000272A4001AA01AB017F30F90040012A08D8
:10042000B73E86008701790881000130AA070030B5
:10043000AB3D2B08803AF90080307902031D222A57
:1004400007302A02031C252A262A0C2A082C3D30B4
:10045000F9002230FA003E08790786003F087A3D0D
:1004600087000108031D352A362A552A4001AC01B0
:10047000AD012D08803AF90080307902031D422A2F
:1004800007302C02031C452A462A472A082C7F30B5
:10049000F90040012C08B73E8600870179088100E9
:1004A0000130AC070030AD3D392A3F08803AF900F1
:1004B00080307902031D5E2A2E303E020318612A25
:1004C000622A962A3D30F9002230FA0041013E08A6
:1004D000790786003F087A3D8700010840014C06F5
:1004E0000319732A742A962ABA01BB013B08803A81
:1004F000F90080307902031D7F2A07303A02031C7D
:10050000822A832A842A082C40013A08B73E8600B2
:1005100087010136F9003A08B73E8600870179085D
:1005200081000130BA070030BB3D762A41013F0807
:10053000803AF90080307902031DA02A3E303E0245
:100540000318A32AA42ACE2A41013F08803AF900C1
:1005500080307902031DAE2A2E303E02031CB12AE0
:10056000B22ACE2A4001AE01AF012F08803AF9002D
:1005700080307902031DBE2A07302E02031CC12AD7
:10058000C22AC32A082C40012E08B73E86008701E4
:1005900081010130AE070030AF3DB52A41013F086F
:1005A000803AF90080307902031DD82A3E303E029D
:1005B000031CDB2ADC2A082C0130F90079084001F1
:1005C000CA074A03031DE52AE62A042B8830F900EE
:1005D00079084101B7004430F9007908B8002230A9
:1005E000F9007908B9001130F9007908BA008830AB
:1005F000F9007908BB004430F9007908BC002230CA
:10060000F9007908BD00082C09304A020318092BAB
:100610000A2B4D2B3D30F9002230FA0041013E08F3
:10062000790786003F087A3D8700010840014C06A3
:1006300003191B2B1C2B082CC001C1014108803A57
:10064000F90080307902031D272B07304002031C7C
:100650002A2B2B2B2C2B082C40014008B73E860060
:1006600087010108F9000730F936890B342B790826
:10067000FA007A08A2004008B73E860087010135DB
:100680002207F9004008B73E8600870179088100FB
:100690000130C0070030C13D1E2B10304A02031844
:1006A000522B532B072C3D30F9002230FA00410128
:1006B0003E08790786003F087A3D8700010840011F
:1006C0004C060319642B652B082C0230F000003017
:1006D000F1004A08F83EF200FF3003180030F30042
:1006E0008631BB2680317008F90079084001A300EB
:1006F000F12BB001B1013108803AF9008030790264
:10070000031D842B07303002031C872B882B892B79
:10071000082C8130F90040013008B73E860087017F
:10072000790881000130B0070030B13D7B2BB20168
:10073000B3013308803AF90080307902031DA22BFF
:1007400007303202031CA52BA62BA72B082CC33085
:10075000F90040013208B73E860087017908810020
:100760000130B2070030B33D992BB401B501350813
:10077000803AF90080307902031DC02B0730340223
:10078000031CC32BC42BC52B082CE730F9004001F8
:100790003408B73E86008701790881000130B4072C
:1007A0000030B53DB72BB601B7013708803AF900E4
:1007B00080307902031DDE2B07303602031CE12B4B
:1007C000E22BE32B082CFF30F90040013608B73E3E
:1007D00086008701790881000130B6070030B73DF7
:1007E000D52B2308F900FA017A08003A0319F92BEE
:1007F000082C7908003A0319792B013A0319972B31
:10080000033A0319B52B013A0319D32B082CCA015B
:1008100040014D0803190D2C0E2C1B2CF00100304B
:100820008E31002680314001550844018D00400181
:10083000540844018C0040014E080319202C212C3F
:10084000282C520844018D004001510844018C00BD
:1008500041013F08803AF90080307902031D322CB3
:100860008B303E02031C352C362C412C40014F08A6
:1008700003193B2C3C2C412C4101C101BE01BF019D
:10088000692C41013F08803A803C031D4A2C3E08F8
:100890004001530203184D2C4E2C552C40014D089D
:1008A0000319532C542C552C3C2C41013F08803A01
:1008B000803C031D5E2C3E08400150020318612C51
:1008C000622C692C40014E080319672C682C692C96
:1008D0003C2C0800E034E034E034E034E034E03430
:1008E000E034E034E034E034E034E034E034E03468
:1008F000E034E034E034E034E034E034E034E03458
:10090000E034E034E034E034E034E034E034E03447
:10091000E034E034D034D034D034D034D034D03497
:10092000D034D034D034D034C034C034C034C034E7
:10093000D034D034D034D034D034D034D034D03497
:10094000D034D034D034D034D034D034C034C034A7
:10095000D034D034D034D034D034D034E034D03467
:10096000D034D034D034D034D034D034D034D03467
:10097000D034D034D034D034D034D034E034D03447
:10098000D034D034D034D034D034D034D034D03447
:10099000D034D034D034D034D034D034E034D03427
:1009A000D034D034D034D034D034D034D034D03427
:1009B000D034D034D034D034D034D034E034D03407
:1009C000D034D034D034D034D034D034D034D03407
:1009D000D034D034D034D034D034D034E034D034E7
:1009E000D034D034D034D034D034D034D034D034E7
:1009F000D034D034D034D034D034D034E034D034C7
:100A0000D034D034D034D034D034D034D034D034C6
:100A1000D434D434D434D434D434D434D434D43496
:100A2000D434D434FC34FC34FC34FC34FC34FC3496
:100A3000FC34FC34FC34FC34B234B234B234B2345E
:100A4000B234B234B234B234B234B2348D348D34C0
:100A5000EE34EE34D434D434BD34BD349E349E34BC
:100A60008D348D34EE34EE34D434D434BD3400348B
:100A7000BD340034BD340034BD340034BD340034E2
:100A8000BD340034BD340034BD34BD349E349E3496
:100A90009E349E34B234B2349E349E349E349E349E
:100AA000B234B234BD34BD34D434D4349E349E34E4
:100AB0009E349E34B234B2349E349E349E349E347E
:100AC000B234B234BD34BD34D434D4349E349E34C4
:100AD0009E349E34B234B2349E349E349E349E345E
:100AE000B234B234BD34BD34D434D4349E349E34A4
:100AF0009E349E34B234B2349E349E349E349E343E
:100B0000B234B234BD34BD34D434D4349E349E3483
:100B10009E349E34B234B2349E349E349E349E341D
:100B2000B234B234BD34BD34D434D4349E349E3463
:100B30009E349E34B234B2349E349E349E349E34FD
:100B4000B234B234BD34BD34D434D4349E349E3443
:100B50009E348D349E349E34BC34BC34BC34BC349E
:100B6000BC34BC349E349E349E348D349E349E34CA
:100B7000BC34BC34BC34BC34BC34BC34D334D334C7
:100B8000D334D334D334D334FC34FC34FC34FC3489
:100B9000FC34FC34EE34EE34EE34EE34EE34EE3429
:100BA0009E349E349E349E349E349E348D348D34D7
:100BB0008D348D348D348D34ED34ED34ED34FC349E
:100BC0008D348D349E349E349E348D349E349E34C8
:100BD000BC34BC34BC34BC34BC34BC348D348D34F3
:100BE0008D348D348D348D34ED34ED34ED34FC346E
:100BF0008D348D349E349E349E348D349E349E3498
:100C0000BC34BC34BC34BC34BC34BC34D334D33436
:100C1000D334D334D334D334B134B134B134D33402
:100C2000FC34FC34ED34ED34ED34ED34ED34ED349E
:100C3000BC34BC34BC34BC34BC34BC34ED34ED34D2
:100C40009E349E34BC34BC349E349E349E34B134C5
:100C5000D334D334EE34EE34EE34EE34EE34EE34BA
:100C60000034D034D034D034D034D034D034D03434
:100C7000D034D034D034D034D034D034D034D03454
:100C8000D034D034D034D034D034D034D034D03444
:100C9000D034C034C034C034C034C034C034C034A4
:100CA000C034C034C034C034C034C034C034C034A4
:100CB000C034C034C034D034D034D034D034D03444
:100CC000D034D034D034D034D034D034D034C03414
:100CD000C034C034C034D034D034D034D034D03424
:100CE000D034D034D034D034D034D034D034D034E4
:100CF000D034D034D034D034D034D034D034C034E4
:100D0000C034C034C034D034D034D034D034D034F3
:100D1000D034D034D034D034D034D034D034D034B3
:100D2000D034C034C034C034C034C034C034C03413
:100D3000C034C034C034C034C034C034C034C03413
:100D4000C034C034C034C034C034C034C034C03403
:100D5000C034C034C034D034D034D034D034D034A3
:100D6000D034D034D034D034D034D034D034D03463
:100D7000D034D034D034F601F11FBF2EC02EC72E90
:100D8000F009F109F00A0319F10AF601F60AF31F56
:100D9000CA2ECB2ED42EF209F309F20A0319F30A54
:100DA0000130F4007408F606F701F80170087104C8
:100DB0000319DB2EDC2E0B2FF501F50AE82E01308E
:100DC000F035F10D890BE02E0130F4007408F507C1
:100DD000F11FEB2EEC2EDF2E0130F735F80D890BCD
:100DE000ED2E71087302031DF72E70087202031CAA
:100DF000FA2EFB2E002F7008F2027108F33B7714D5
:100E00000130F136F00C890B012F0130F502031D82
:100E10000A2F0B2FEC2E760803190F2F102F152FEA
:100E2000F709F809F70A0319F80A7808F1007708B2
:100E3000F00008004101A500A801A601A701410199
:100E40002808031D242F252F2A2F0130A300230853
:100E5000A8072E2F2835A3002308A8002808A300E0
:100E60002308A10026082507A4002408860087017E
:100E700001088D314925873103304101A3009730A6
:100E8000890B402FA30B402F003201304101A607F0
:100E90000030A73D2708803AA30080302302031DBD
:100EA000532F07302602031C562F572F1F2F0800E1
:100EB000FC34FC34FC34FC34FC340034FC34FC34AE
:100EC000FC34FC34FC34FC34FC340034BD34BD341C
:100ED000BD34BD34BD34BD34BD340034D434D43419
:100EE000D434D434D434D434D4348D34FC34FC34B9
:100EF000FC34FC34FC34FC340034FC34FC34FC346E
:100F0000FC34FC34FC34FC34BD340034FC34FC349C
:100F1000FC34FC34FC340034FC34FC34FC34FC344D
:100F2000FC34FC34FC34D434400198019A011F3065
:100F30009200023094001F307E01CE002330B800B2
:100F4000B901CF01BA01D0013730BB003F30D10029
:100F50003F30BC003F30D20002307D0190001530A0
:100F6000C50008307E01A300033095000730A500BE
:100F700004307D01C60008004101A20022084001A2
:100F80004C060319C42FC52FC92F41012208450162
:100F90008D004101200840014B060319D02FD12FAD
:100FA000D52F4101200845018E0041012208A100F2
:100FB00021084001CC0041012008A1002108400186
:100FC000CB00080044018F01900104309100E13012
:100FD0008D00BA308C004E018D1244010D08FC00CA
:100FE0000C08FB004E01971602304101A0000030B2
:100FF000A1008C31FD248731053044018E000800AA
:101970000800080050018C0108004101C201C20AA0
:1019800008004E010C108D3112258C3108005101D8
:10199000910103309300920108009E343A34F134EF
:1019A0003C34C834E734FE34FF34FE34FF34FE34B4
:1019B000FF34FE348030460196007F309500C03001
:1019C00094000800400147084B019D004001460873
:1019D0004B019C000800410121084001C900410160
:1019E00020084001C8000800410121084001C5004D
:1019F000410120084001C4000800410121084001C4
:101A0000C300410120084001C2000800FE0012008E
:101A10001E000130FE020030FF3B7F087E04031DE4
:101A2000072D00344001480849040319182D192DC9
:101A30001E2D49088A0048080A008D3108004E0111
:101A40000C100B14B8304101A0000C30A1008C31F7
:101A5000EB248D314E011614080001304501900031
:101A60008F019101FF308D008C014E010D13B030BC
:101A700045018E0008004101A000200843018C00B0
:101A80004E018D1C442D452D402D8D1043010C0819
:101A900008004101A20021088D313B258D31410113
:101AA00022088D313B258D3140011A161A1208008B
:101AB00044010E1D5C2D5D2D642D0E1071088D00EE
:101AC00070088C000E14682D71088D0070088C0051
:101AD000080015307D01C5000430C60007307E01C6
:101AE000A5000830A300403043018F009001013071
:101AF0008D00400194124301901208004E018D1296
:101B00007C08F1007B08F0008D3158258D314001B3
:101B10004208430403198D2D8E2D932D43088A000E
:101B200042080A008D3108004E018C12400147081E
:101B30004B019D00400146084B019C0040014408B8
:101B400045040319A42DA52DAA2D45088A00440893
:101B50000A008D3108000130F00070084101C10712
:101B60008C31E2248D3144010E1CB72DB82DBD2DD2
:101B70004101C101BE01BF01BF2D4101C2014108A8
:101B80007D020318C42DC52DC62DC10108008D315D
:101B900069258D31873194278D318C31C7248D3162
:101BA0008C31BA248D318C31DA248D318D312D2553
:101BB0008D318731E2278D318D311F258D318D316A
:101BC000E3258D31080090304B019F0086309D0049
:101BD000E8309C001D084001C7004B011C08400173
:101BE000C6004E018C129616B9304101A0000C308F
:101BF000A1008C31F4248D3190304B019E000800FF
:101C0000F200720840014C060319072E082E0B2E15
:101C1000720845018D00700840014B060319112E12
:101C2000122E152E700845018E007208F100710801
:101C30004001CC007008F1007108CB0008008D3124
:101C4000C7258E318B170B178D3169258E314301D6
:101C500090124001941112169412430190168D3186
:101C60001F258E31AB304101A0000D30A1008C3119
:101C7000EB248E314E0116148D31E3258E31BD30AB
:101C80004101A0000C30A1008C31F4248E314B01B5
:101C90009E138731E2278E317F304101A000003052
:101CA000A1008C31FD248E3144010E108D312D2583
:101CB0008E3145018E138C31DA248E3140011A1198
:101CC0001A121A104101B101B2014101AF01B00174
:101CD000B73087311A278E3101304101AF0700300C
:101CE000B03D3008803AA90080302902031D7A2EC9
:101CF0000C302F02031C7D2E7E2E682E41013208EF
:101D0000803AA90080302902031D882E0730310255
:101D100003188B2E8C2EC42E4101B301B401410156
:101D20003308B73E860087010109A9000630A935AE
:101D3000FF3E031D972E2935AA002A08AE002E0863
:101D4000A9000730A936890BA22E3308B73E8600BA
:101D5000870101352907AA003308B73E86008701AD
:101D60002A0881000130B3070030B43D3408803ABE
:101D7000A90080302902031DBF2E07303302031C47
:101D8000C22EC32E8F2EE62E4101B501B6014101B0
:101D90003508B73E860087010314010DA9003508F8
:101DA000B73E86008701290881000130B507003061
:101DB000B63D3608803AA90080302902031DE22E84
:101DC00007303502031CE52EE62EC72E01304101F7
:101DD000B1070030B23D3208803AA90080302902B4
:101DE000031DF42E0F303102031CF72EF82E652E42
:101DF0004B019E1708304101A9002908A100FE30BF
:101E00008D3149258E3140011A111A1041014108C6
:101E100003190B2F0C2FE52F42080319102F112F38
:101E2000E52F4B019E135C2F8830A9002908B700CD
:101E30004430A9002908B8002230A9002908B900B7
:101E40001130A9002908BA008830A9002908BB0070
:101E50004430A9002908BC002230A9002908BD008F
:101E60004001CF01CF0A702F4001CD01CD0A702F64
:101E7000FF30A9002908B700FF30A9002908B800E1
:101E8000FF30A9002908B900FF30A9002908BA00CD
:101E9000FF30A9002908BB00FF30A9002908BC00B9
:101EA000FF30A9002908BD004001CA014101C0015D
:101EB0004001CE01CE0A702F41014108A900AA01BC
:101EC0002A08003A0319652F702F2908013A0319CF
:101ED000142F033A0319342F013A0319382F702FA6
:101EE00044010E1445018E17952F6630A90023304A
:101EF000AA003E08290786003F082A3D87000108FE
:101F0000AB002B08A000DB30AC002230AD003E0857
:101F10002C0786003F082D3D870001088731BC272C
:101F20008E31B73087311A278E31410141030319B1
:101F30009A2F9B2F752FAD2FD030A9002908A00014
:101F40003E08203E86000130870001088731BC270B
:101F50008E31B73087311A278E3102304101410668
:101F60000319B32FB42F9C2FD52F9F30A9002130F8
:101F7000AA003E08290786003F082A3D870001087D
:101F8000AB002B08A0003D30AC002230AD003E0875
:101F90002C0786003F082D3D870001088731BC27AC
:101FA0008E31B73087311A278E3103304101410617
:101FB0000319DB2FDC2FB52FC1014001CF01CD016B
:101FC000CE0144010E1045018E1341014208031950
:101FD000EA2FEB2FF82E4108031DEF2FF02FF82EDC
:101FE0004B019E1344010E1045018E134E010C103F
:101FF000161440011A151A146300F82E8031312886
:1020000000344034013400348D349E34B234BD3455
:06201000D434EE34FC3470
:020000040001F9
:04000E00ED3FE73F9C
:04001400FF3FFF3F6C
:00000001FF
