:1000000080313128080008007E1480314E01961E90
:100010000A280B2813288C1E0E280F281328873136
:100020007D2780312F28161C162817281F280C1C06
:100030001A281B281F288F31B82780312F280B1F23
:10004000222823282F28971E262827282F288D1E70
:100050002A282B282F288731662780312F287E10C9
:10006000090080313328BA30840084308500DC30C8
:100070008600223087000130FF0014308F31E727DF
:100080008031F530840086308500203086000030D5
:1000900087000030FF001E308F31E7278031A93004
:1000A000840087308500A030860000308700003053
:1000B000FF0011308F31E7278031CE30840085304A
:1000C000850020308600013087000030FF0042307C
:1000D0008F31E72780311030840086308500A030D2
:1000E0008600013087000030FF0042308F31E72763
:1000F0008031F801F901E201E301E401E501E601E3
:10010000E701E801E901EA017E10400183315B2B40
:1001100001304001E2070030E33D6A0803199128ED
:1001200092285D296308803AF00080307002031D38
:100130009B2818306202031C9E289F28BB28400180
:100140006308803AF00080307002031DA928313026
:100150006202031CAC28AD28FC2840016308803AE9
:10016000F00080307002031DB7286030620203186F
:10017000BA28BB28FC286630F0002330F10040018B
:100180006208700786006308713D870001086606F3
:100190000319CB28CC285D29D401D501400154088E
:1001A000793E860087010108F0000730F036890BA0
:1001B000D6287008F1007108BE005408793E860008
:1001C000870101353E07F0005408793E860087011B
:1001D000700881000130D4070030D53D5508803AC1
:1001E000F00080307002031DF72807305402031C12
:1001F000FA28FB28CE285D2940016308803AF000E8
:1002000080307002031D06297F306202031C092919
:100210000A292D294001C801C90140014808793E39
:10022000860087010314010DF0004808793E86001E
:100230008701700881000130C8070030C93D4908B6
:10024000803AF00080307002031D282907304802F0
:10025000031C2B292C290D295D294001D601D7012A
:1002600040015608793E860087010108F0000730FA
:10027000F036890B38297008F1007108BF00560864
:10028000793E8600870101353F07F0005608793E28
:1002900086008701700881000130D6070030D73D05
:1002A0005708803AF00080307002031D592907304A
:1002B0005602031C5C295D29302940016808031996
:1002C00062296329E7296308803AF00080307002D0
:1002D000031D6C290830620203186F2970299229C6
:1002E0004001CA01CB0140014A08793E86008701DE
:1002F0000135F0004A08793E8600870170088100C8
:100300000130CA070030CB3D4B08803AF000803006
:100310007002031D8D2907304A02031C9029912980
:100320007329E7290830400162066304031D9929F7
:100330009A29B729C201C301AA30F000400142083E
:10034000793E86008701700881000130C2070030C5
:10035000C33D4308803AF00080307002031DB2298B
:1003600007304202031CB529B6299C29E729621CE3
:10037000BA29BB29E7297908F0000730F036890B44
:10038000BE297008F1007108C000CC01CD01400108
:100390004C08793E8600870101354007F0004C0883
:1003A000793E86008701700881000130CC0700305B
:1003B000CD3D4D08803AF00080307002031DE229E7
:1003C00007304C02031CE529E629C729E72940012B
:1003D00069080319EC29ED29022B6308803AF00023
:1003E00080307002031DF6293A3062020318F929A1
:1003F000FA295C2A40016208A03E8600013087008D
:10040000010865060319052A062A022B6208203E08
:10041000860001308700010803190F2A102A022BD9
:1004200064080319142A152A382ACE01CF01400185
:100430004E08303E860087010108F0004E08793EE4
:1004400086008701700881000130CE070030CF3D63
:100450004F08803AF00080307002031D312A0730C7
:100460004E02031C342A352A172A4001E401022BCC
:10047000D001D10140015008303E860087010109BA
:10048000F0005008793E8600870170088100013035
:10049000D0070030D13D5108803AF0008030700222
:1004A000031D542A07305002031C572A582A3A2A9F
:1004B0004001E401E40A022B40016308803AF000A5
:1004C00080307002031D662A3E3062020318692ADA
:1004D0006A2A882A4001C401C501FF30F0004001AA
:1004E0004408793E86008701700881000130C40706
:1004F0000030C53D4508803AF00080307002031D91
:10050000832A07304402031C862A872A6D2A022B7D
:1005100040016208C33EF0007008C100EF2AFF30BE
:10052000F0007008F900FF30F0007008FA00F330B6
:10053000F0007008FB00E330F0007008FC00E330CE
:10054000F0007008FD00FF30F0007008FE00FF3082
:10055000F0007008FF00022BD201D3015308803A4B
:10056000F00080307002031DB72A07305202031CCE
:10057000BA2ABB2ABC2A022B40015208303E860010
:10058000870101080319C52AC72A0130C82A00308B
:10059000F0005208793E8600870170088100013022
:1005A000D2070030D33DAE2AC601C7014708803AC2
:1005B000F00080307002031DDF2A07304602031C62
:1005C000E22AE32AE42A022B40014608793E86000B
:1005D000870181010130C6070030C73DD62A410896
:1005E000F000F1017108003A0319F72A022B700894
:1005F000013A03198F2A033A0319AC2A013A031965
:10060000D42A022B400168080319072B082B0F2B53
:100610003C0844018D0040013B0844018C0040012E
:1006200069080319142B152B1C2B390844018D0064
:100630004001380844018C0040016308803AF00012
:1006400080307002031D262B8B306202031C292B85
:100650002A2B342B40016A0803192F2B302B342B03
:10066000F801E201E3015A2B40016308803A803C23
:10067000031D3C2B62083A0203183F2B402B472BEB
:10068000400168080319452B462B472B302B4001AE
:100690006308803A803C031D4F2B62083702031821
:1006A000522B532B5A2B400169080319582B592BF5
:1006B0005A2B302B08008731132783318B170B17E8
:1006C000873194278331430190124001941112160F
:1006D0009412430190168731F32783314B30F20097
:1006E0000730F3008F31BE2783314E011614873156
:1006F0002F278331B430F2000F30F3008F31CA2737
:1007000083314B019E138631B62683318830F20047
:100710000030F3008F31D027833144010E10873130
:10072000CB27833145018E138F31D627833140018A
:100730001A111A121A104B019E17F301F30A023014
:100740008731D927833140011A111A10780803190B
:10075000AA2BAB2B9F2C67080319AF2BB02B9F2C18
:100760004B019E130D2C8830B5003508F90044303C
:10077000B5003508FA002230B5003508FB0011300D
:10078000B5003508FC008830B5003508FD00443060
:10079000B5003508FE002230B5003508FF004001E5
:1007A000EA01EA0A212CFE30B5003508F900FE30D6
:1007B000B5003508FA00FE30B5003508FB00FE3004
:1007C000B5003508FC00FE30B5003508FD00FE30F0
:1007D000B5003508FE00FE30B5003508FF004001C9
:1007E000E801E80A212CF901E830B5003508FA00E3
:1007F000BE30B5003508FB00FE30B5003508FC0002
:10080000BD30B5003508FD00A030B5003508FE004C
:10081000FF014001E901E90A212C78084101B500F6
:10082000B6013608003A0319162C212C3508013A76
:100830000319B32B033A0319D32B013A0319F32BF2
:10084000212C44010E1445018E174F2CDC30410140
:10085000B5002230B600400162084101350786002C
:10086000400163084101363D87000108B7003708A1
:10087000F2006630B8002330B9004001620841013F
:1008800038078600400163084101393D87000108AF
:100890008631D626833179308631522683317803EA
:1008A0000319532C542C262C6C2C40016208203E3A
:1008B0008600870101084101B5003508F2004001BA
:1008C0006208A03E8600870101088631D626833162
:1008D0007930863152268331023078060319712C23
:1008E000722C552C902C40016208A03E86000130ED
:1008F000870001084101B5003508F7007708B50009
:100900003508F20040016208203E86000130870071
:1009100001088631D62683317930863152268331DB
:10092000033078060319952C962C732CF80140019E
:10093000EA01E801E90144010E1045018E1340016E
:1009400067080319A42CA52C9B2B7808031DA92C40
:10095000AA2C9B2B4B019E1344010E1045018E13B4
:100960004E010C10161440011A151A1463009B2B2B
:1009700080313128D034D034D034D034D034D03455
:10098000D034D034D034D034D034D034D034D03447
:10099000D034D034D034D034D034D034D034D03437
:1009A000D034D034C034C034C034C034C034C03487
:1009B000C034C034C034C034C034C034C034C03497
:1009C000C034C034C034C034D034D034D034D03447
:1009D000D034D034D034D034D034D034D034D034F7
:1009E000C034C034C034C034D034D034D034D03427
:1009F000D034D034D034D034D034D034D034D034D7
:100A0000D034D034D034D034D034D034D034D034C6
:100A1000C034C034C034C034D034D034D034D034F6
:100A2000D034D034D034D034D034D034D034D034A6
:100A3000D034D034C034C034C034C034C034C034F6
:100A4000C034C034C034C034C034C034C034C03406
:100A5000C034C034C034C034C034C034C034C034F6
:100A6000C034C034C034C034D034D034D034D034A6
:100A7000D034D034D034D034D034D034D034D03456
:100A8000D034D034D034D0349E349E349E348D341F
:100A90009E349E34BC34BC34BC34BC34BC34BC3412
:100AA0009E349E349E348D349E349E34BC34BC348B
:100AB000BC34BC34BC34BC34D334D334D334D3345A
:100AC000D334D334FC34FC34FC34FC34FC34FC34F8
:100AD000EE34EE34EE34EE34EE34EE349E349E34A6
:100AE0009E349E349E349E348D348D348D348D34BA
:100AF0008D348D34ED34ED34ED34FC348D348D345F
:100B00009E349E349E348D349E349E34BC34BC342A
:100B1000BC34BC34BC34BC348D348D348D348D3411
:100B20008D348D34ED34ED34ED34FC348D348D342E
:100B30009E349E349E348D349E349E34BC34BC34FA
:100B4000BC34BC34BC34BC34D334D334D334D334C9
:100B5000D334D334B134B134B134D334FC34FC3471
:100B6000ED34ED34ED34ED34ED34ED34BC34BC34DF
:100B7000BC34BC34BC34BC34ED34ED349E349E34CF
:100B8000BC34BC349E349E349E34B134D334D3341C
:100B9000EE34EE34EE34EE34EE34EE340034003421
:100BA000D434D434D434D434D434D434D434D43405
:100BB000D434D4340034D434D434D434D434D434C9
:100BC000D434D434D434D434D434D434D434D434E5
:100BD000D434D4340034D434D434D4340034003451
:100BE000D434D434D434D434D434D434D434D434C5
:100BF000D434D4340034D434D434D434D434D43489
:100C0000D434D434D434D434D434D434D434D434A4
:100C1000D434D43400340034ED34D434B034B0346B
:100C2000E034E034D034D034E034E034D034D03464
:100C3000E034E034D034E0340034E034D034D03424
:100C4000E034E034D034D034E034E034D034D03444
:100C5000E034E034D034E0340034E034D034D03404
:100C6000E034E034D034D034E034E034D034D03424
:100C7000E034E034D034E0340034E034D034D034E4
:100C8000E034E034D034D034E034E034D034D03404
:100C9000E034E034D034E03400340034D034D034A4
:100CA000D034D0344101B100B401B201B3014101EB
:100CB0003408031D5C2E5D2E622E0130F500750890
:100CC000B407662E3435F5007508B4003408F50015
:100CD0007508F30032083107F600760886008701B0
:100CE00001088731D92786310330F5009830890B08
:100CF000772EF50B772E01304101B2070030B33D5E
:100D00003308803AF50080307502031D892E0730C4
:100D10003202031C8C2E8D2E572E080040019801A4
:100D20009A011F309200023094001F307E01CE00E5
:100D30002330B800B901CF01BA01D0013730BB0070
:100D40003F30D1003F30BC003F30D20002307D0147
:100D500090001530C50008307E01A30003309500D7
:100D60000730A50004307D01C600080044018F0152
:100D7000900104309100E1308D00BA308C004E01BA
:100D80008D1244010D084001DB0044010C084001B4
:100D9000DA004E0197160330F2000030F3008F3175
:100DA000D0278631053044018E000800F400740815
:100DB000400166060319DD2EDE2EE12E7408450182
:100DC0008D007208400165060319E72EE82EEB2E10
:100DD000720845018E007408F30073084001E600B4
:100DE0007208F3007308E5000800B034B034B03482
:100DF000A034A034A034A034A034C034C034C034F3
:100E0000C034C034C034C034C0340034E834BE34DC
:100E1000FE34BD34A034003442343434EA34103467
:100E2000E434F334033487319427873186318E26B6
:100E300087318F31C42787318F31B12787318F3187
:100E4000D62787318731CB2787318631B626873140
:100E50008731F327873187312F278731080090307A
:100E60004B019F0086309D00E8309C001D0840012A
:100E7000DF004B011C084001DE004E018C1296166B
:100E80000230F2000030F3008F31CA2787319030F2
:100E90004B019E0008000130F0007008F8078F3108
:100EA000DE27873144010E1C562F572F5C2FF80187
:100EB0004001E201E3015E2F4001E70178083D02B5
:100EC0000318632F642F652FF80108004E018D125F
:100ED00040015B08F1005A08F0008731BA278731DA
:100EE0004001580859040319762F772F7C2F590891
:100EF0008A0058080A00873108004E018C12400110
:100F00005F084B019D0040015E084B019C004001C1
:100F10005C085D0403198D2F8E2F932F5D088A00C6
:100F20005C080A008731080015307D01C5000430D7
:100F3000C60007307E01A5000830A3004030430101
:100F40008F00900101308D004001941243019012F6
:100F50000800D3349E348D34D334BC34BC340034D4
:100F60000034BC34BC349E349E34BC34BC348D3428
:100F70008D348D3444010E1DBE2FBF2FC62F0E1091
:100F800071088D0070088C000E14CA2F71088D0036
:100F900070088C0008000130450190008F0191011C
:100FA000FF308D008C014E010D13B03045018E00D5
:100FB0000800F40073088731E62787317408873109
:100FC000E627873140011A161A120800F20072084B
:100FD00043018C004E018D1CEE2FEF2FEA2F8D1058
:100FE00043010C0808004E010C100B14B030F20045
:100FF0000F30F3008F31BE2787314E0116140800E1
:101F6000080050018C0108004001E701E70A080061
:101F70004E010C108F31F3278F3108007308400198
:101F8000E1007208E0000800510191010330930064
:101F90009201080073084001DD007208DC000800AF
:101FA00073084001D9007208D8000800803046014B
:101FB00096007F309500C0309400080040015F0813
:101FC0004B019D0040015E084B019C000800FE0093
:101FD00012001E000130FE020030FF3B7F087E042D
:101FE000031DE82F00344001600861040319F92F34
:101FF000FA2FFF2F61088A0060080A008F3108005D
:082000000034403401340034C7
:020000040001F9
:04000E00ED3FE73F9C
:04001400FF3FFF3F6C
:00000001FF
