:0400000080313128F2
:100008007E1480314E01961E0A280B2813288C1E58
:100018000E280F2813288631FD2680312F28161C1C
:10002800162817281F280C1C1A281B281F28873158
:10003800902780312F280B1F222823282F28971E2E
:10004800262827282F288D1E2A282B282F28863156
:10005800D12680312F287E1009008031332858306E
:10006800840084308500DC3086002230870001302F
:10007800FF001430873164278031023084008630D5
:10008800850020308600003087000030FF002030D7
:10009800873164278031A830840085308500A030FE
:1000A8008600003087000030FF0032308731642737
:1000B800803122308400863085002030860001306F
:1000C80087000030FF002030873164278031F90134
:1000D800CF01D001D101D201D301D401D501D6017C
:1000E800D7017E1040018031792886318026803101
:1000F8008B170B178631E826803143019012400197
:100108009411121694124301901687314A278031B0
:100118009C30F2000630F30087318A2780314E0187
:1001280016148631B8268031A030F2000730F3006B
:1001380087317E2780314B019E13863142268031DC
:100148008D30F2000230F300873178278031440186
:100158000E1087312227803145018E138731702791
:10016800803140011A111A121A104101DE01DF0113
:100178004101DC01DD01393085316C2580310130E8
:100188004101DC070030DD3D5D08803AD600803053
:100198005602031DD1280C305C02031CD428D52834
:1001A800BF2841015F08803AD60080305602031DFF
:1001B800DF2807305E020318E228E3281B294101E3
:1001C800E001E10141016008393E8600870101092B
:1001D800D6000630D635FF3E031DEE285635D7002B
:1001E8005708DB005B08D6000730D636890BF9289C
:1001F8006008393E8600870101355607D700600838
:10020800393E86008701570881000130E007003039
:10021800E13D6108803AD60080305602031D162958
:1002280007306002031C19291A29E6283D294101D3
:10023800E201E30141016208393E860087010314A7
:10024800010DD6006208393E8600870156088100F4
:100258000130E2070030E33D6308803AD600803081
:100268005602031D392907306202031C3C293D2927
:100278001E2901304101DE070030DF3D5F08803A6A
:10028800D60080305602031D4B290F305E02031C36
:100298004E294F29BC284B019E17F301F30A02305F
:1002A80087313027803140011A111A10520803197A
:1002B8005E295F29722A5408031963296429722A5E
:1002C8004B019E13E4298830D60056084001B90036
:1002D80044304101D60056084001BA00223041019D
:1002E800D60056084001BB0011304101D60056081F
:1002F8004001BC0088304101D60056084001BD00CD
:1003080044304101D60056084001BE002230410168
:10031800D60056084001BF00D701D70AF929FE3098
:10032800D60056084001B900FE304101D6005608F3
:100338004001BA00FE304101D60056084001BB001A
:10034800FE304101D60056084001BC00FE30410194
:10035800D60056084001BD00FE304101D6005608BF
:100368004001BE00FE304101D60056084001BF00E2
:10037800D501D50AF9294001B901E8304101D60073
:1003880056084001BA00BE304101D6005608400167
:10039800BB00FE304101D60056084001BC00BD300C
:1003A8004101D60056084001BD00A0304101D600E9
:1003B80056084001BE00BF01D601D60AD101F9296D
:1003C800400152084101D600D7015708003A0319E5
:1003D800EE29F9295608013A03196729033A03193E
:1003E8009329013A0319BF29F92944010E1445013B
:1003F8008E17272ADC304101D6002230D700400171
:100408004F08410156078600400150084101573DF9
:1004180087000108D8005808F2006630D900233058
:10042800DA0040014F084101590786004001500891
:1004380041015A3D870001088631622680313930F2
:1004480085316C2580314001520303192C2A2D2A4D
:10045800FE29442A4F08C03E860087010108410151
:10046800D6005608F20040014F08203E860087015A
:100478000108863162268031393085316C2580311A
:1004880002304001520603194A2A4B2A2E2A632AAF
:100498004F08203E86000130870001084101D60040
:1004A8005608F20040014F08A03E86008701010867
:1004B800863162268031393085316C2580310330B0
:1004C800400152060319692A6A2A4C2AD201D70127
:1004D800D501D60144010E1045018E134001540880
:1004E8000319772A782A4F295208031D7C2A7D2A66
:1004F8004F294B019E1344010E1045018E134E01E6
:100508000C10161440011A151A1463004F29803173
:10051800312801304001CF070030D03D570803197A
:10052800962A972A622B5008803AF0008030700291
:10053800031DA02A18304F02031CA32AA42AC02A8C
:1005480040015008803AF00080307002031DAE2A46
:1005580031304F02031CB12AB22A012B4001500846
:10056800803AF00080307002031DBC2A60304F02D0
:100578000318BF2AC02A012B6630F0002330F1008F
:1005880040014F08700786005008713D8700010838
:1005980053060319D02AD12A622BCB01CC01400182
:1005A8004B08393E860087010108F0000730F03615
:1005B800890BDB2A7008F1007108C0004B08393E2E
:1005C8008600870101354007F0004B08393E860058
:1005D8008701700881000130CB070030CC3D4C0802
:1005E800803AF00080307002031DFC2A07304B026D
:1005F800031CFF2A002BD32A622B40015008803AA3
:10060800F00080307002031D0B2B7F304F02031C5B
:100618000E2B0F2B322B4001C501C60140014508A6
:10062800393E860087010314010DF0004508393E64
:1006380086008701700881000130C5070030C63D7B
:100648004608803AF00080307002031D2D2B0730D9
:100658004502031C302B312B122B622B4001CD019C
:10066800CE0140014D08393E860087010108F0009F
:100678000730F036890B3D2B7008F1007108C10076
:100688004D08393E8600870101354107F0004D08C5
:10069800393E86008701700881000130CD0700309F
:1006A800CE3D4E08803AF00080307002031D5E2B6C
:1006B80007304D02031C612B622B352B4001550876
:1006C8000319672B682BEC2B5008803AF000803018
:1006D8007002031D712B08304F020318742B752B01
:1006E800972B4001C701C80140014708393E8600E1
:1006F80087010135F0004708393E860087017008F8
:1007080081000130C7070030C83D4808803AF00032
:1007180080307002031D922B07304702031C952B73
:10072800962B782BEC2B083040014F065004031D04
:100738009E2B9F2BBC2BC301C401AA30F0004001A3
:100748004308393E86008701700881000130C307DD
:100758000030C43D4408803AF00080307002031D28
:10076800B72B07304302031CBA2BBB2BA12BEC2B56
:100778004F1CBF2BC02BEC2B3908F0000730F0368C
:10078800890BC32B7008F1007108C200C901CA01A6
:1007980040014908393E8600870101354207F000CB
:1007A8004908393E86008701700881000130C90771
:1007B8000030CA3D4A08803AF00080307002031DBC
:1007C800E72B07304902031CEA2BEB2BCC2BEC2B35
:1007D800400155080319F12BF22BF92B3708440176
:1007E8008D004001360844018C0040015608031969
:1007F800FE2BFF2B062C340844018D0040013308E2
:1008080044018C0040015008803AF00080307002AA
:10081800031D102C8B304F02031C132C142C1E2C80
:10082800400157080319192C1A2C1E2CD201CF018C
:10083800D001572C40015008803A803C031D262CDB
:100848004F0835020318292C2A2C312C4001550851
:1008580003192F2C302C312C1A2C40015008803AC7
:10086800803C031D392C4F08320203183C2C3D2CC8
:10087800572C400156080319422C432C572CD201FF
:10088800CF01D0010230510203184B2C4C2C572CAD
:10089800CF01D0010330F0007008D2000130F00021
:1008A8007008D107572C0800D034D034D034D03455
:1008B800D034D034D034D034D034D034D034D03410
:1008C800D034D034D034D034D034D034D034D03400
:1008D800D034D034D034D034C034C034C034C03430
:1008E800C034C034C034C034C034C034C034C03460
:1008F800C034C034C034C034C034C034D034D03430
:10090800D034D034D034D034D034D034D034D034BF
:10091800D034D034C034C034C034C034D034D034EF
:10092800D034D034D034D034D034D034D034D0349F
:10093800D034D034D034D034D034D034D034D0348F
:10094800D034D034C034C034C034C034D034D034BF
:10095800D034D034D034D034D034D034D034D0346F
:10096800D034D034D034D034C034C034C034C0349F
:10097800C034C034C034C034C034C034C034C034CF
:10098800C034C034C034C034C034C034C034C034BF
:10099800C034C034C034C034C034C034D034D0348F
:1009A800D034D034D034D034D034D034D034D0341F
:1009B800D034D034D034D034D034D0349E349E3473
:1009C8009E348D349E349E34BC34BC34BC34BC3428
:1009D800BC34BC349E349E349E348D349E349E3454
:1009E800BC34BC34BC34BC34BC34BC34D334D33451
:1009F800D334D334D334D334FC34FC34FC34FC3413
:100A0800FC34FC34EE34EE34EE34EE34EE34EE34B2
:100A18009E349E349E349E349E349E348D348D3460
:100A28008D348D348D348D34ED34ED34ED34FC3427
:100A38008D348D349E349E349E348D349E349E3451
:100A4800BC34BC34BC34BC34BC34BC348D348D347C
:100A58008D348D348D348D34ED34ED34ED34FC34F7
:100A68008D348D349E349E349E348D349E349E3421
:100A7800BC34BC34BC34BC34BC34BC34D334D334C0
:100A8800D334D334D334D334B134B134B134D3348C
:100A9800FC34FC34ED34ED34ED34ED34ED34ED3428
:100AA800BC34BC34BC34BC34BC34BC34ED34ED345C
:100AB8009E349E34BC34BC349E349E349E34B1344F
:100AC800D334D334EE34EE34EE34EE34EE34EE3444
:100AD8004101D200D501D301D40141015508031DBC
:100AE800762D772D7C2D0130F5007508D507802DE2
:100AF8005535F5007508D5005508F5007508F3005B
:100B080053085207F60076088600870101088731E6
:100B1800302785310330F5009830890B912DF50B7E
:100B2800912D01304101D3070030D43D5408803A5B
:100B3800F50080307502031DA32D07305302031CF6
:100B4800A62DA72D712D0800D4340034D434EE34EA
:100B5800FC34EE34FC348D349E349E34D43400346A
:100B6800D434D4340034003400340034D434EE3473
:100B7800FC34EE34FC348D349E349E34D43400344A
:100B8800D434D43400340034C034C034C034B03425
:100B9800B034B034B034B034B034D034D034D034CD
:100BA800D034D034D034D034D034D034400198014B
:100BB8009A011F309200023094001F307E01CE004F
:100BC8002330B800B901CF01BA01D0013730BB00DA
:100BD8003F30D1003F30BC003F30D20002307D01B1
:100BE80090001530C50008307E01A3000330950041
:100BF8000730A50004307D01C6000800D3349E34B8
:100C08008D34D334BC34BC34003400340034BC34A8
:100C1800BC349E349E34BC34BC348D348D348D3415
:100C280020348834EF341034E434F3340334FE349D
:100C3800FF34FE34FF34FE34FF34FE34D034D03475
:100C4800D034D034D034D034D034E034E034E0344C
:100C5800E034E034E034E034D034D034D034D0342C
:100C6800D034D034D034D034D034E034E034E0342C
:100C7800E034E034E034E034D034D03444018F013F
:100C8800900104309100E1308D00BA308C004E01A3
:100C98008D1244010D084001DB0044010C0840019D
:100CA800DA004E019716A730F2000730F3008731BB
:100CB80078278631053044018E000800F400740856
:100CC800400153060319692E6A2E6D2E74084501DA
:100CD8008D00720879060319722E732E762E72080B
:100CE80045018E007408F30073084001D3007208B0
:100CF800F3007308F90008008631E826863185314B
:100D0800DA2586318731842786318731A4278631D1
:100D180087317027863187312227863186314226EE
:100D2800863187314A2786318631B82686310800D0
:100D38000130F00070084001D207873196278631CC
:100D480044010E1CA82EA92EAE2E4001D201CF01BF
:100D5800D001B02E4001D401520838020318B52E34
:100D6800B62EB72ED201080090304B019F00863076
:100D78009D00E8309C001D08F8001C08F7004E0193
:100D88008C129616A830F2000730F30087317E27C0
:100D9800863190304B019E0008004E018D124001B3
:100DA8005B08F1005A08F0008731112786314001AD
:100DB800580859040319E12EE22EE72E59088A0033
:100DC80058080A008631080015307D01C500043036
:100DD800C60007307E01A5000830A300403043015B
:100DE8008F00900101308D00400194124301901250
:100DF80008004E018C1278084B019D0077089C0072
:100E080040015C085D0403190A2F0B2F102F5D08A1
:100E18008A005C080A008731080044010E1D152F5E
:100E2800162F1D2F0E1071088D0070088C000E14DF
:100E3800212F71088D0070088C00080001304501D1
:100E480090008F019101FF308D008C014E010D1330
:100E5800B03045018E000800F400730887313D2743
:100E68008731740887313D27873140011A161A12D5
:100E78000800F200720843018C004E018D1C452FBA
:100E8800462F412F8D1043010C0808004E010C100D
:100E98000B14A930F2000730F30087318A27873115
:100EA8004E011614080040015E085F0403195D2F07
:100EB8005E2F632F5F088A005E080A0087310800EA
:100EC800FE0012001E000130FE020030FF3B7F08CA
:100ED8007E04031D652F00348030460196007F3064
:100EE8009500C0309400080073084001D9007208CA
:100EF800D800080073084001DD007208DC00080013
:100F080051019101033093009201080073084001D8
:100F1800DF007208DE0008004E010C1087315727E9
:100F28008731080078084B019D0077089C0008006D
:100F380000344034013400344001D401D40A08009C
:0C0F480050018C0108000800080008009F
:020000040001F9
:04000E00ED3FE73F9C
:04001400FF3FFF3F6C
:00000001FF
