:0400000080313128F2
:100008007E1480314E01961E0A280B2813288C1E58
:100018000E280F2813288431502480312F28161CCD
:10002800162817281F280C1C1A281B281F2885315A
:10003800242580312F280B1F222823282F28971E9C
:10004800262827282F288D1E2A282B282F28843158
:10005800392480312F287E100900803133285F3001
:10006800840080308500DC30860022308700013033
:10007800FF0014308431E824803185313525803102
:10008800FC0005308400853085003830860000305B
:1000980087000030FF0007308431E8248031FA01FE
:1000A800FB01BF01C001C101C201C301C4017E102F
:1000B800400181317329D034D034D034D034D03495
:1000C800D034D034D034D034D034D034D034D03408
:1000D800D034D034D034D034D034D034D034D034F8
:1000E800D034D034D034C034C034C034C034C03438
:1000F800C034C034C034C034C034C034C034C03458
:10010800C034C034C034C034C034D034D034D03417
:10011800D034D034D034D034D034D034D034D034B7
:10012800D034C034C034C034C034D034D034D034E7
:10013800D034D034D034D034D034D034D034D03497
:10014800D034D034D034D034D034D034D034D03487
:10015800D034C034C034C034C034D034D034D034B7
:10016800D034D034D034D034D034D034D034D03467
:10017800D034D034D034C034C034C034C034C034A7
:10018800C034C034C034C034C034C034C034C034C7
:10019800C034C034C034C034C034C034C034C034B7
:1001A800C034C034C034C034C034D034D034D03477
:1001B800D034D034D034D034D034D034D034D03417
:1001C800D034D034D034D034D0349E349E349E349D
:1001D8008D349E349E34BC34BC34BC34BC34BC3402
:1001E800BC349E349E349E348D349E349E34BC344C
:1001F800BC34BC34BC34BC34BC34D334D334D33432
:10020800D334D334D334FC34FC34FC34FC34FC34E1
:10021800FC34EE34EE34EE34EE34EE34EE349E3408
:100228009E349E349E349E349E348D348D348D3469
:100238008D348D348D34ED34ED34ED34FC348D341F
:100248008D349E349E349E348D349E349E34BC341A
:10025800BC34BC34BC34BC34BC348D348D348D34A3
:100268008D348D348D34ED34ED34ED34FC348D34EF
:100278008D349E349E349E348D349E349E34BC34EA
:10028800BC34BC34BC34BC34BC34D334D334D334A1
:10029800D334D334D334B134B134B134D334FC345B
:1002A800FC34ED34ED34ED34ED34ED34ED34BC3460
:1002B800BC34BC34BC34BC34BC34ED34ED349E3472
:1002C8009E34BC34BC349E349E349E34B134D33412
:1002D800D334EE34EE34EE34EE34EE34EE3484318E
:1002E800012481318B170B1784317C248131430120
:1002F8009012400194111216941243019016843101
:10030800CD2481311D304001A0000430A100853189
:100318001E2581314E0116148331E42381312E309C
:100328004001A0000530A1008531122581314B0123
:100338009E138331C323813171304001A000023004
:10034800A10085310C25813144010E108431BF2470
:10035800813145018E138431FD24813140011A1504
:100368001A141A12A101FF308431A22481314B01E1
:100378009E174001A101A10A00308431A2248131D5
:1003880040011A111A1043080319CB29CC29602AF5
:1003980041080319D029D129602A1A111A104B01D2
:1003A8009E13FD298830A9002908C4004430A900FB
:1003B8002908C5002230A9002908C6001130A90063
:1003C8002908C7008830A9002908C8004430A900B6
:1003D8002908C9002230A9002908CA00FA01FA0A26
:1003E8000E2AC401C501C601C701C801C901CA0155
:1003F8000E2A40014308A900AA012A08003A031955
:10040800062A0E2A2908013A0319D629033A03199C
:10041800F5290E2A44010E1445018E17332ADC30C3
:10042800A9002230AA003F082907860040082A3D73
:1004380087000108AB002B08A0006630AC00233011
:10044800AD003F082C07860040082D3D87000108B5
:10045800843167248131443083315D238131400107
:1004680043030319382A392A132A502ADC30860014
:100478002230870041310108A9002908A000663010
:100488008600233087004131010884316724813197
:10049800443083315D238131023040014306031922
:1004A800562A572A3A2AC301FA0144010E10450177
:1004B8008E1340011A151A1441080319642A652A73
:1004C800BB294B019E134E010C10161440011A153E
:1004D8001A146300BB29803131287A080319752A58
:1004E800762A412B40014008803AF00080307002A3
:1004F800031D802A18303F02031C832A842AA02A5D
:1005080040014008803AF00080307002031D8E2AB6
:1005180031303F02031C912A922AE42A4001400804
:10052800803AF00080307002031D9C2A60303F0240
:1005380003189F2AA02AE42A40013F08013EF00040
:100548000030403DF100F01CAA2AAB2A412B3F089D
:10055800013EF0000030403DF100701CB42AB52A7D
:10056800412BF601F7017608443E86008701010811
:10057800F0000730F036890BBE2A7008F1007108C8
:10058800F2007608443E8600870101357207F000C4
:100598007608443E86008701700881000130F6071E
:1005A8000030F73D7708803AF00080307002031D74
:1005B800DF2A07307602031CE22AE32AB72A412BF6
:1005C80040014008803AF00080307002031DEE2A96
:1005D8007F303F02031CF12AF22A132BF401F501A4
:1005E8007408443E860087010314010DF000740866
:1005F800443E86008701700881000130F40700300E
:10060800F53D7508803AF00080307002031D0E2B0E
:1006180007307402031C112B122BF42A412BF8010A
:10062800F9017808443E860087010108F000073088
:10063800F036890B1C2B7008F1007108F30078085C
:10064800443E8600870101357307F0007808443E70
:1006580086008701700881000130F8070030F93DF5
:100668007908803AF00080307002031D3D2B073076
:100678007802031C402B412B152B01304001BF078A
:100688000030C03D4008803AF00080307002031D01
:100698004F2B8B303F02031C522B532B5C2B7A08B9
:1006A8000319572B582B5C2B4001C301BF01C00114
:1006B80008004001A500A801A601A70140012808DB
:1006C800031D672B682B6D2B0130A3002308A80797
:1006D800712B2835A3002308A8002808A3002308A5
:1006E800A10026082507A400240886008701010820
:1006F8008431A224833103304001A3009730890B51
:10070800832BA30B832B003201304001A607003056
:10071800A73D2708803AA30080302302031D962BAB
:1007280007302602031C992B9A2B622B08004001E4
:1007380098019A011F309200023094001F307E0108
:10074800CE002330B800B901CF01BA01D00137304B
:10075800BB003F30D1003F30BC003F30D2000230F8
:100768007D0190001530C50008307E01A3000330DC
:1007780095000730A50004307D01C600080044013B
:100788008F01900104309100E1308D00BA308C0067
:100798004E018D1244010D084001B10044010C08BE
:1007A8004001B0004E01971636304001A0000530D8
:1007B800A10085310C258331053044018E000800E5
:1007C80090304B019F0086309D00E8309C001D084A
:1007D8004001B5004B011C084001B4004E018C12C9
:1007E800961637304001A0000530A100853112254A
:1007F800833190304B019E00080084317C24843181
:1008080083319B2384318531182584318531322504
:1008180084318431FD2484318431BF24843183318F
:10082800C32384318431CD2484318331E42384315A
:1008380008000130F00070084001C3078431F42437
:10084800843144010E1C292C2A2C2F2C4001C30171
:10085800BF01C001312C4001C10143087C020318CB
:10086800362C372C382CC30108004E018D1240015C
:100878003108F1003008F0008431912484314001BE
:100888002E082F040319492C4A2C4F2C2F088A00B4
:100898002E080A00843108004E018C1240013508E8
:1008A8004B019D00400134084B019C004001320877
:1008B80033040319602C612C662C33088A00320833
:1008C8000A00843108004001A200220842060319E8
:1008D8006E2C6F2C762C200845018E0040012208D2
:1008E80045018D0040012208A1002108C20008002E
:1008F80015307D01C5000430C60007307E01A50013
:100908000830A300403043018F00900101308D0072
:100918004001941243019012080044010E1D952CC9
:10092800962C9D2C0E1071088D0070088C000E14EA
:10093800A12C71088D0070088C0008004001A200ED
:1009480021088431B1248431400122088431B12442
:10095800843140011A161A1208004001A00020082C
:1009680043018C004E018D1CBA2CBB2CB62C8D106B
:1009780043010C0808000130450190008F019101E6
:10098800FF308D008C014E010D13C03045018E00E3
:1009980008004E010C100B1438304001A00005303F
:1009A800A10085311E2584314E011614080040012E
:1009B800360837040319E12CE22CE72C37088A00A3
:1009C80036080A0084310800FE0012001E000130BB
:1009D800FE020030FF3B7F087E04031DE92C003433
:1009E800400135084B019D00400134084B019C0033
:1009F80008008030460196007F309500C030940092
:100A0800080088344434223411348834443422347D
:100A180040012108AF002008AE000800400121086D
:100A2800B3002008B200080051019101033093007F
:100A38009201080040012108B7002008B60008000C
:100A48004E010C108431DB24853108000034403419
:100A5800013400344001C101C10A080050018C0171
:0A0A6800080002340800080008002E
:020000040001F9
:04000E00ED3FE73F9C
:04001400FF3FFF3F6C
:00000001FF
