:1000000080313128080008007E1480314E01961E90
:100010000A280B2813288C1E0E280F2813288F312E
:10002000EC2780312F28161C162817281F280C1C97
:100030001A281B281F288F31592780312F280B1F82
:10004000222823282F28971E262827282F288D1E70
:100050002A282B282F288731D32780312F287E105C
:100060000900803133286830840085308500DC3019
:100070008600223087000130FF0014308F317F2747
:100080008031CD3084008F308500383086000030DC
:1000900087000030FF000E308F317F2780317C30A9
:1000A000840086308500A030860000308700003054
:1000B000FF0044308F317F27803124308400873027
:1000C000850020308600013087000030FF0020309E
:1000D0008F317F278031F901C601C701C801C901ED
:1000E000CA01CB01CC01CD01CE017E10400183318C
:1000F000362B01304001C6070030C73D4E080319BA
:10010000822883286D294708803AF00080307002E9
:10011000031D8C2818304602031C8F289028AC2819
:1001200040014708803AF00080307002031D9A2891
:1001300031304602031C9D289E28ED2840014708C7
:10014000803AF00080307002031DA828603046021B
:100150000318AB28AC28ED286630F0002330F100FE
:1001600040014608700786004708713D8700010876
:100170004A060319BC28BD286D29B201B30140010C
:1001800032083F3E860087010108F0000730F03654
:10019000890BC7287008F1007108A00032083F3EA3
:1001A0008600870101352007F00032083F3E8600B7
:1001B0008701700881000130B2070030B33D330879
:1001C000803AF00080307002031DE82807303202C8
:1001D000031CEB28EC28BF286D2940014708803A12
:1001E000F00080307002031DF72878304602031CAF
:1001F000FA28FB282E296630F0002330F100400158
:100200004608700786004708713D870001084A06C6
:1002100003190B290C292E29AB01AC0140012B0835
:100220003F3E860087010314010DF0002B083F3E7E
:1002300086008701700881000130AB070030AC3DBB
:100240002C08803AF00080307002031D2929073005
:100250002B02031C2C292D290E296D29400147084A
:10026000803AF00080307002031D38297830460251
:1002700003183B293C296D294001B401B501400117
:1002800034083F3E860087010108F0000730F03651
:10029000890B47297008F1007108A10034083F3E1E
:1002A0008600870101352107F00034083F3E8600B3
:1002B0008701700881000130B4070030B53D350872
:1002C000803AF00080307002031D68290730340244
:1002D000031C6B296C293F296D2940014C08031927
:1002E00072297329F7294708803AF000803070029C
:1002F000031D7C290830460203187F298029A22982
:100300004001AD01AE0140012D083F3E860087014E
:100310000135F0002D083F3E8600870170088100FE
:100320000130AD070030AE3D2E08803AF00080303D
:100330007002031D9D2907302D02031CA029A1294D
:100340008329F7290830400146064704031DA929DF
:10035000AA29C729A301A401AA30F000400123085B
:100360003F3E86008701700881000130A3070030FE
:10037000A43D2408803AF00080307002031DC22999
:1003800007302302031CC529C629AC29F729461CBE
:10039000CA29CB29F7293F08F0000730F036890B2E
:1003A000CE297008F1007108A200AF01B001400130
:1003B0002F083F3E8600870101352207F0002F08F5
:1003C0003F3E86008701700881000130AF07003092
:1003D000B03D3008803AF00080307002031DF229F1
:1003E00007302F02031CF529F629D729F7294001E8
:1003F0004D080319FC29FD29CA2A4608A03E86009B
:100400008701D4300106031D062A072A212AA501E7
:10041000A601400125083F3E860087018101013089
:10042000A5070030A63D2608803AF0008030700213
:10043000031D1C2A07302502031C1F2A202A092A13
:10044000CA2A4608A03E860087010108031D292A02
:100450002A2A472AA701A801FF30F00040012708F7
:100460003F3E86008701700881000130A7070030F9
:10047000A83D2808803AF00080307002031D422A0F
:1004800007302702031C452A462A2C2ACA2A40087C
:1004900003194B2A4C2A512A400A031D502A512A7B
:1004A0006E2AA901AA01F930F000400129083F3E57
:1004B00086008701700881000130A9070030AA3D3D
:1004C0002A08803AF00080307002031D692A073044
:1004D0002902031C6C2A6D2A532ACA2A4608A03E08
:1004E0008600870101084A060319772A782ACA2A52
:1004F000B601B701400136083F3E8600870101354D
:10050000F0007008B1003108F0000730F036890BB8
:10051000862A7008F1007108B10036083F3E860057
:10052000870101353107F00036083F3E860087011C
:100530007008810036083F3E860087010135F000D3
:100540007008B1003108F0000730F036890BA52A99
:100550007008F1007108B10036083F3E860087013F
:1005600001353107F00036083F3E860087017008EC
:1005700081000130B6070030B73D3708803AF000FF
:1005800080307002031DC62A07303602031CC92AB8
:10059000CA2A7A2A40014C080319CF2AD02AD72A1E
:1005A0003D0844018D0040013C0844018C0040019D
:1005B0004D080319DC2ADD2AE42A3A0844018D009B
:1005C0004001390844018C0040014708803AF0009E
:1005D00080307002031DEE2A8B304602031CF12A84
:1005E000F22AFC2A40014E080319F72AF82AFC2AAD
:1005F000C901C601C701352B40014708803A803C3C
:10060000031D042B46083B020318072B082B0F2B56
:1006100040014C0803190D2B0E2B0F2BF82A40011B
:100620004708803A803C031D172B46083802031800
:100630001A2B1B2B352B40014D080319202B212B86
:10064000352BC901C601C701023048020318292B06
:100650002A2B352BC601C7010330F0007008C900F2
:100660000130F0007008C807352B08008731822759
:1006700083318B170B178731EA278331430190129F
:100680004001941112169412430190168F3198274D
:1006900083319E30F2000730F3008F315F278331C2
:1006A0004E0116148731BA2783314F30F2000F30D4
:1006B000F3008F316B2783314B019E138731442721
:1006C00083317930F2000030F3008F3171278331AC
:1006D00044010E108F31BF27833145018E138F31B6
:1006E0007727833140011A111A121A104201C301EF
:1006F000C4014201C101C2013F308631C0268331AD
:1007000001304201C1070030C23D4208803A410138
:10071000E80080306802031D902B0C30420141023A
:10072000031C932B942B7C2B42014408803A4101FB
:10073000E80080306802031DA02B0730420143020D
:100740000318A32BA42BE62B4201C501C6014201CD
:1007500045083F3E8600870101094101E800063057
:10076000E835FF3E031DB02B6835E90069084201FA
:10077000C00040084101E8000730E836890BBD2B76
:10078000420145083F3E8600870101354101680767
:10079000E900420145083F3E8600870141016908A2
:1007A000810001304201C5070030C63D4608803A4D
:1007B0004101E80080306802031DE12B073042014F
:1007C0004502031CE42BE52BA72B0E2C4201C7018D
:1007D000C801420147083F3E860087010314010D0E
:1007E0004101E800420147083F3E86008701410180
:1007F0006808810001304201C7070030C83D480841
:10080000803A4101E80080306802031D0A2C07305D
:1008100042014702031C0D2C0E2CE92B0130420132
:10082000C3070030C43D4408803A4101E8008030ED
:100830006802031D1E2C0F3042014302031C212CB1
:10084000222C792B4B019E17F301F30A02308F31D2
:10085000B227833140011A111A1049080319312CAB
:10086000322C4D2D4B080319362C372C4D2D4B01B6
:100870009E13BF2C8830E80068084001BF00443058
:100880004101E80068084001C00022304101E80051
:1008900068084001C10011304101E80068084001CA
:1008A000C20088304101E80068084001C3004430BC
:1008B0004101E80068084001C40022304101E8001D
:1008C00068084001C500CE01CE0AD42CFE30E800F5
:1008D00068084001BF00FE304101E800680840019F
:1008E000C000FE304101E80068084001C100FE3050
:1008F0004101E80068084001C200FE304101E80003
:1009000068084001C300FE304101E800680840016A
:10091000C400FE304101E80068084001C500CC0178
:10092000CC0AD42CFF30E80068084001BF00FF303B
:100930004101E80068084001C000FF304101E800C3
:1009400068084001C100FF304101E800680840012B
:10095000C200FF304101E80068084001C300FF30D9
:100960004101E80068084001C400FF304101E8008F
:1009700068084001C500C801CD01CD0AD42C400152
:1009800049084101E800E9016908003A0319C92C46
:10099000D42C6808013A03193A2C033A0319662C3F
:1009A000013A0319922CD42C44010E1445018E17E0
:1009B000022DDC304101E8002230E9004001460808
:1009C000410168078600400147084101693D8700F1
:1009D0000108EA006A08F2006630EB002330EC0000
:1009E0004001460841016B0786004001470841016C
:1009F0006C3D870001088731642783313F308631A1
:100A0000C0268331400149030319072D082DD92C35
:100A10001F2D4608C03E8600870101084101E800FD
:100A20006808F20040014608D23E860087010108AE
:100A30008731642783313F308631C02683310230CD
:100A4000400149060319252D262D092D3E2D460866
:100A5000203E86000130870001084101E800680857
:100A6000F20040014608A03E860087010108873158
:100A7000642783313F308631C02683310330400103
:100A800049060319442D452D272DC901CE01CC015E
:100A9000CD0144010E1045018E1340014B0803198E
:100AA000522D532D222C4908031D572D582D222C31
:100AB0004B019E1344010E1045018E134E010C1084
:100AC000161440011A151A146300222C80313128A3
:100AD000D034D034D034D034D034D034D034D034F6
:100AE000D034D034D034D034D034D034D034D034E6
:100AF000D034D034D034D034D034D034D034D034D6
:100B0000C034C034C034C034C034C034C034C03445
:100B1000C034C034C034C034C034C034C034C03435
:100B2000C034C034D034D034D034D034D034D034C5
:100B3000D034D034D034D034D034D034C034C034B5
:100B4000C034C034D034D034D034D034D034D034A5
:100B5000D034D034D034D034D034D034D034D03475
:100B6000D034D034D034D034D034D034C034C03485
:100B7000C034C034D034D034D034D034D034D03475
:100B8000D034D034D034D034D034D034D034D03445
:100B9000C034C034C034C034C034C034C034C034B5
:100BA000C034C034C034C034C034C034C034C034A5
:100BB000C034C034C034C034C034C034C034C03495
:100BC000C034C034D034D034D034D034D034D03425
:100BD000D034D034D034D034D034D034D034D034F5
:100BE000D034D0349E349E349E348D349E349E3422
:100BF000BC34BC34BC34BC34BC34BC349E349E34B1
:100C00009E348D349E349E34BC34BC34BC34BC34ED
:100C1000BC34BC34D334D334D334D334D334D334CA
:100C2000FC34FC34FC34FC34FC34FC34EE34EE3460
:100C3000EE34EE34EE34EE349E349E349E349E34E4
:100C40009E349E348D348D348D348D348D348D347A
:100C5000ED34ED34ED34FC348D348D349E349E34DB
:100C60009E348D349E349E34BC34BC34BC34BC348D
:100C7000BC34BC348D348D348D348D348D348D340E
:100C8000ED34ED34ED34FC348D348D349E349E34AB
:100C90009E348D349E349E34BC34BC34BC34BC345D
:100CA000BC34BC34D334D334D334D334D334D3343A
:100CB000B134B134B134D334FC34FC34ED34ED34DC
:100CC000ED34ED34ED34ED34BC34BC34BC34BC34E0
:100CD000BC34BC34ED34ED349E349E34BC34BC346E
:100CE0009E349E349E34B134D334D334EE34EE3457
:100CF000EE34EE34EE34EE34D4340034D434EE3406
:100D0000FC34EE34FC348D349E349E34D4340034C0
:100D1000D434D4340034003400340034D434EE34C9
:100D2000FC34EE34FC348D349E349E34D4340034A0
:100D3000D434D43400340034C034C034C034B0347B
:100D4000B034B034B034B034B034D034D034D03423
:100D5000D034D034D034D034D034D034D3349E34A2
:100D60008D34D334BC34BC34003400340034BC344F
:100D7000BC349E349E34BC34BC348D348D348D34BC
:100D80004101E400E701E501E60141016708031DB7
:100D9000CA2ECB2ED02E0130F5007508E707D42ED1
:100DA0006735F5007508E7006708F5007508F3007A
:100DB00065086407F60076088600870101088F3110
:100DC000B22786310330F5009830890BE52EF50BFC
:100DD000E52E01304101E5070030E63D6608803A26
:100DE000F50080307502031DF72E07306502031CE5
:100DF000FA2EFB2EC52E0800400198019A011F30E3
:100E00009200023094001F307E01CE002330B800E3
:100E1000B901CF01BA01D0013730BB003F30D1005A
:100E20003F30BC003F30D20002307D0190001530D1
:100E3000C50008307E01A300033095000730A500EF
:100E400004307D01C6000800D034D034D034D03412
:100E5000D034D034D034E034E034E034E034E03422
:100E6000E034E034D034D034D034D034D034D03442
:100E7000D034D034D034E034E034E034E034E03402
:100E8000E034E034D034D03444018F019001043098
:100E90009100E1308D00BA308C004E018D1244017A
:100EA0000D084001D20044010C084001D1004E0160
:100EB0009716FF30F2000730F3008F31712787312A
:100EC000053044018E000800F400740840014A0611
:100ED00003196B2F6C2F6F2F740845018D0072085A
:100EE00079060319742F752F782F720845018E002B
:100EF0007408F30073084001CA007208F300730815
:100F0000F90008008731EA2787318631FC268731CE
:100F10008F31652787318F314C2787318F31772784
:100F200087318F31BF2787318731442787318F3110
:100F3000982787318731BA27873108000130F000C0
:100F400070084001C9078F315327873144010E1CB7
:100F5000AA2FAB2FB02F4001C901C601C701B22F84
:100F60004001CB0149083E020318B72FB82FB92F13
:100F7000C901080090304B019F0086309D00E83089
:100F80009C001D08F8001C08F7004E018C129616F4
:100F90000330F2000030F3008F316B27873190303F
:100FA0004B019E0008004E018D1240015208F100D5
:100FB0005108F0008F31DB27873140014F08500482
:100FC0000319E32FE42FE92F50088A004F080A0085
:100FD0008731080015307D01C5000430C600073098
:100FE0007E01A5000830A300403043018F0090012E
:100FF00001308D0040019412430190120800080056
:101E980050018C0108004001CB01CB0A08007808EA
:101EA8004B019D0077089C0008004E010C108F31F3
:101EB8008B278F31080073084001D6007208D500BF
:101EC8000800510191010330930092010800730842
:101ED8004001D4007208D300080073084001D00004
:101EE8007208CF0008008030460196007F309500C8
:101EF800C03094000800FE0012001E000130FE02EF
:101F08000030FF3B7F087E04031D802F0034400112
:101F1800550856040319912F922F972F56088A00B7
:101F280055080A008F3108004E010C100B140230BE
:101F3800F2000030F3008F315F278F314E01161405
:101F48000800F200720843018C004E018D1CAD2F71
:101F5800AE2FA92F8D1043010C080800F400730858
:101F68008F31A5278F3174088F31A5278F31400114
:101F78001A161A1208000130450190008F019101CC
:101F8800FF308D008C014E010D13B03045018E00DD
:101F980008001F34D634ED341034E434F3340334F9
:101FA800FE34FF34FE34FF34FE34FF34FE34440183
:101FB8000E1DDF2FE02FE72F0E1071088D0070081F
:101FC8008C000E14EB2F71088D0070088C0008002F
:101FD8004E018C1278084B019D0077089C00400147
:101FE800530854040319F92FFA2FFF2F54088A00B5
:101FF80053080A008F31080000344034013400349B
:020000040001F9
:04000E00ED3FE73F9C
:04001400FF3FFF3F6C
:00000001FF
