:0400000080313128F2
:100008007E1480314E01961E0A280B2813288C1E58
:100018000E280F2813288331612380312F28161CBE
:10002800162817281F280C1C1A281B281F2884315B
:10003800282480312F280B1F222823282F28971E99
:10004800262827282F288D1E2A282B282F28833159
:10005800092380312F287E10090080313328593038
:10006800840080308500DC30860022308700013033
:10007800FF0014308331F523803109308400843047
:10008800850036308600003087000030FF000730DA
:100098008331F5238031F501F601F701F801BD013F
:1000A800BE017E10400181316D29D034D034D03466
:1000B800D034D034D034D034D034D034D034D03418
:1000C800D034D034D034D034D034D034D034D03408
:1000D800D034D034D034D034D034C034C034C03428
:1000E800C034C034C034C034C034C034C034C03468
:1000F800C034C034C034C034C034C034C034D03448
:10010800D034D034D034D034D034D034D034D034C7
:10011800D034D034D034C034C034C034C034D034F7
:10012800D034D034D034D034D034D034D034D034A7
:10013800D034D034D034D034D034D034D034D03497
:10014800D034D034D034C034C034C034C034D034C7
:10015800D034D034D034D034D034D034D034D03477
:10016800D034D034D034D034D034C034C034C03497
:10017800C034C034C034C034C034C034C034C034D7
:10018800C034C034C034C034C034C034C034C034C7
:10019800C034C034C034C034C034C034C034D034A7
:1001A800D034D034D034D034D034D034D034D03427
:1001B800D034D034D034D034D034D034D0349E3449
:1001C8009E349E348D349E349E34BC34BC34BC344E
:1001D800BC34BC34BC349E349E349E348D349E343E
:1001E8009E34BC34BC34BC34BC34BC34BC34D3348E
:1001F800D334D334D334D334D334FC34FC34FC3444
:10020800FC34FC34FC34EE34EE34EE34EE34EE34AC
:10021800EE349E349E349E349E349E349E348D3407
:100228008D348D348D348D348D34ED34ED34ED349E
:10023800FC348D348D349E349E349E348D349E34FB
:100248009E34BC34BC34BC34BC34BC34BC348D3473
:100258008D348D348D348D348D34ED34ED34ED346E
:10026800FC348D348D349E349E349E348D349E34CB
:100278009E34BC34BC34BC34BC34BC34BC34D334FD
:10028800D334D334D334D334D334B134B134B13494
:10029800D334FC34FC34ED34ED34ED34ED34ED344A
:1002A800ED34BC34BC34BC34BC34BC34BC34ED3464
:1002B800ED349E349E34BC34BC349E349E349E341B
:1002C800B134D334D334EE34EE34EE34EE34EE3489
:1002D800EE348231D32281318B170B1783314C23B3
:1002E8008131430190124001941112169412430176
:1002F80090168331C023813195304001A00003302E
:10030800A1008431222481314E0116108231EF225E
:10031800813120304001A0000330A100843116242F
:1003280081314B019E138231B2228131FA30400172
:10033800A0000130A10084311024813144010E1045
:100348008331B223813145018E13843101248131F7
:1003580040011A151A141A12A101FF30833186239D
:1003680081317703031DB929BA29F32940011A11EC
:100378001A1044010E1445018E17E529F501F50AF6
:10038800DC304001A9002230AA003D082907860078
:100398003E082A3D87000108AB002B08A000663004
:1003A800AC002330AD003D082C0786003E082D3DEB
:1003B80087000108833137238131363082314C225E
:1003C800813177030319E929EA29C229F501440192
:1003D8000E1045018E1340011A151A14B5294E0145
:1003E8000C1016146300B5298031312875080319DB
:1003F800FE29FF29352AF301F40140013608F000EF
:100408000430F035FF3E031D052A7035F1007108F0
:10041800F2007208F0000730F036890B102A7008D5
:10042800F1007108F2007308363E86008701013535
:100438007207F0007308363E860087017008810055
:100448000130F3070030F43D7408803AF000803042
:100458007002031D312A07307302031C342A352A1F
:10046800012A01304001BD070030BE3D3E08803AF8
:10047800F00080307002031D432A8B303D02031CBC
:10048800462A472A4B2AF7014001BD01BE01080050
:100498004001A500A801A601A70140012808031DE5
:1004A800562A572A5C2A0130A3002308A807602A85
:1004B8002835A3002308A8002808A3002308A100C2
:1004C80026082507A400240886008701010883312F
:1004D8008623823103304001A3009730890B722AAA
:1004E800A30B722A003201304001A6070030A73D55
:1004F8002708803AA30080302302031D852A07308D
:100508002602031C882A892A512A080040019801DA
:100518009A011F309200023094001F307E01CE00F5
:100528002330B800B901CF01BA01D0013730BB0080
:100538003F30D1003F30BC003F30D20002307D0157
:1005480090001530C50008307E01A30003309500E7
:100558000730A50004307D01C600080044018F0162
:10056800900104309100E1308D00BA308C004E01CA
:100578008D1244010D084001B10044010C084001EE
:10058800B0004E01971635304001A0000430A1009C
:10059800843110248231053044018E0008008331F3
:1005A8004C23823182318A22823184311C24823167
:1005B8008431322482318431012482318331B2235F
:1005C80082318331C02382318231B2228231823139
:1005D800EF228231080090304B019F000D309D00C2
:1005E800D0309C001D08FA001C08F9004E018C123E
:1005F800961636304001A0000430A100843116243C
:10060800823190304B019E0008004E018D1240014E
:100618003108F1003008F00083317523833140013F
:100628002E082F040319192B1A2B1F2B2F088A00A9
:100638002E080A008331080078080319242B252B7B
:100648002F2B2030F3007308F100BF308331CE2305
:100658008331F801362BF101FF308331CE2383310A
:10066800F801F80A08004001A200220876060319DA
:100678003E2B3F2B462B200845018E0040012208C7
:1006880045018D0040012208A1002108F60008005C
:1006980015307D01C5000430C60007307E01A50075
:1006A8000830A300403043018F00900101308D00D5
:1006B800400194124301901208004E018C127A08EE
:1006C8004B019D0079089C0040013208330403194E
:1006D8006E2B6F2B742B33088A0032080A00833183
:1006E800080044010E1D792B7A2B812B0E107108FE
:1006F8008D0070088C000E14852B71088D00700811
:100708008C0008004001A20021088331A423833112
:10071800400122088331A423833140011A161A129A
:1007280008000130F0007008F70744010E1C9D2BEB
:100738009E2BA32B0E10F7014001BD01BE0108003E
:100748004001A000200843018C004E018D1CAD2BF8
:10075800AE2BA92B8D1043010C0808000130450170
:1007680090008F019101FF308D008C014E010D1317
:10077800C03045018E0008004E010C100B143730B4
:100788004001A0000430A1008431222483314E01AD
:1007980016140800F20071088331DB2383317208D4
:1007A8008331DB23833140011A161A120800F00046
:1007B800700843018C004E018D1CE32BE42BDF2BCA
:1007C8008D1043010C080800400134083504031952
:1007D800EE2BEF2BF42B35088A0034080A008331FE
:1007E8000800FE0012001E000130FE020030FF3B30
:1007F8007F087E04031DF62B0034803046019600E6
:100808007F309500C0309400080092344834483452
:10081800923424344834243440012108AF0020089D
:10082800AE00080040012108B3002008B20008000B
:100838005101910103309300920108004001210801
:10084800B5002008B40008004E010C108331E823DD
:1008580084310800003440340134003450018C01E4
:08086800080008000800080068
:020000040001F9
:04000E00ED3FE73F9C
:04001400FF3FFF3F6C
:00000001FF
