:1000000080313128080008007E1480314E01961E90
:100010000A280B2813288C1E0E280F2813288E312F
:10002000C32680312F28161C162817281F280C1CC1
:100030001A281B281F288E314F2680312F280B1F8E
:10004000222823282F28971E262827282F288D1E70
:100050002A282B282F288F31002780312F287E1027
:100060000900803133285530840085308500943074
:100070008600213087000230FF005C308E3175260B
:1000800080318731FE278031F900D73084008E30EF
:10009000850037308600003087000030FF001430C4
:1000A0008E3175268031CF3084008F308500A030AE
:1000B0008600003087000030FF0031308E31752619
:1000C0008031CB01CC01CD01CE01CF01D001D101D6
:1000D000D201D301D4017E10400180316F288F31CD
:1000E0004C2780318B170B178E31EB268031430163
:1000F00090124001941112169412430190168E3101
:100100008E2680313030F2000F30F3008E315526CC
:1001100080314E0116148F31172780314530F2009F
:100120000E30F3008E31612680314B019E138F31EA
:1001300087278031E530F2000230F3008E316726E8
:10014000803144010E108E31B526803145018E1369
:100150008E316D26803140011A111A121A10410198
:10016000DA01DB014101D801D90144308731B127DF
:10017000803101304101D8070030D93D5908803A1B
:10018000D10080305102031DC7280C305802031CD7
:10019000CA28CB28B52841015B08803AD1008030BD
:1001A0005102031DD52807305A020318D828D92830
:1001B00011294101DC01DD0141015C08443E86005A
:1001C00087010109D1000630D135FF3E031DE42827
:1001D0005135D2005208D6005608D1000730D1362A
:1001E000890BEF285C08443E8600870101355107E2
:1001F000D2005C08443E860087015208810001302D
:10020000DC070030DD3D5D08803AD10080305102CE
:10021000031D0C2907305C02031C0F291029DC2860
:1002200033294101DE01DF0141015E08443E8600C1
:1002300087010314010DD1005E08443E860087014A
:10024000510881000130DE070030DF3D5F08803A51
:10025000D10080305102031D2F2907305E02031C9C
:1002600032293329142901304101DA070030DB3DFE
:100270005B08803AD10080305102031D41290F30C4
:100280005A02031C44294529B2284B019E17F30149
:10029000F30A02308E31A826803140011A111A105B
:1002A0004E08031954295529CA2A510803195929F6
:1002B0005A29CA2A4B019E13D9298830D1005108E6
:1002C0004001C40044304101D10051084001C50043
:1002D00022304101D10051084001C60011304101D6
:1002E000D10051084001C70088304101D1005108B8
:1002F0004001C80044304101D10051084001C9000B
:1003000022304101D10051084001CA00D401D40A71
:10031000EE29FE30D10051084001C400FE304101F9
:10032000D10051084001C500FE304101D100510803
:100330004001C600FE304101D10051084001C70014
:10034000FE304101D10051084001C800FE3041019A
:10035000D10051084001C900FE304101D1005108CF
:100360004001CA00D201D20AEE294001C401E8309E
:100370004101D10051084001C500BE304101D1000A
:1003800051084001C600FE304101D1005108400132
:10039000C700BD304101D10051084001C800A03064
:1003A0004101D10051084001C900CA01D301D30A5B
:1003B000EE2940014E084101D100D2015208003A15
:1003C0000319E329EE295108013A03195D29033A7B
:1003D00003198929013A0319B529EE2944010E149C
:1003E00045018E171C2A94304101D1002130D200E2
:1003F00040014B0841015107860040014C08410172
:10040000523D87000108D3005308F2001E30D4008B
:100410002230D50040014B084101540786004001BD
:100420004C084101553D870001088F316827803114
:1004300044308731B127803140014E030319212A0E
:10044000222AF3298A2A4C08803A4101D1008030BF
:100450005102031D2E2A553040014B02031C312A44
:10046000322A6F2A40014C08803A4101D100803085
:100470005102031D3E2A5B3040014B02031C412AFE
:10048000422A582A40014C08803A4101D10080306C
:100490005102031D4E2A613040014B020318512ABC
:1004A000522A582AC0304101D1005108D7005D2A94
:1004B000D0304101D1005108D7005708D100510870
:1004C000F20040014B084B3E8600870101088F3146
:1004D0006827803144308731B12780318A2AD03073
:1004E0004101D1005108F2009A30D2002330D300EC
:1004F00040014B0841015207860040014C08410170
:10050000533D870001088F3168278031443087319F
:10051000B1278031023040014E060319902A912AFA
:10052000232ABB2AA8304101D1002230D200400149
:100530004B0841015107860040014C084101523DE2
:1005400087000108D3005308F2002130D400233083
:10055000D50040014B0841015407860040014C087A
:100560004101553D870001088F31682780314430B3
:100570008731B1278031033040014E060319C12A6B
:10058000C22A922ACE01D401D201D30144010E1015
:1005900045018E13400151080319CF2AD02A45295D
:1005A0004E08031DD42AD52A45294B019E13440128
:1005B0000E1045018E134E010C10161440011A1531
:1005C0001A14630045298031312801304001CB07DE
:1005D0000030CC3D54080319EE2AEF2AD92B4C08E1
:1005E000803AF00080307002031DF82A18304B0268
:1005F000031CFB2AFC2A182B40014C08803AF0000F
:1006000080307002031D062B31304B02031C092B76
:100610000A2B592B40014C08803AF00080307002C0
:10062000031D142B60304B020318172B182B592B6A
:100630001E30F0002230F10040014B0870078600A8
:100640004C08713D8700010850060319282B292BFF
:10065000D92BAF01B00140012F08443E860087012D
:100660000108F0000730F036890B332B7008F100D9
:100670007108A0002F08443E86008701013520073D
:10068000F0002F08443E8600870170088100013089
:10069000AF070030B03D3008803AF0008030700283
:1006A000031D542B07302F02031C572B582B2B2BC9
:1006B000D92B40014C08803AF00080307002031DB5
:1006C000632B78304B02031C662B672B9A2B1E3052
:1006D000F0002230F10040014B08700786004C0802
:1006E000713D8700010850060319772B782B9A2B50
:1006F000A701A80140012708443E86008701031492
:10070000010DF0002708443E860087017008810033
:100710000130A7070030A83D2808803AF00080305B
:100720007002031D952B07302702031C982B992B71
:100730007A2BD92B40014C08803AF00080307002AF
:10074000031DA42B78304B020318A72BA82BD92B01
:100750004001B101B20140013108443E86008701E9
:100760000108F0000730F036890BB32B7008F10058
:100770007108A1003108443E860087010135210738
:10078000F0003108443E8600870170088100013086
:10079000B1070030B23D3208803AF000803070027C
:1007A000031DD42B07303102031CD72BD82BAB2BC6
:1007B000D92B400153080319DE2BDF2BFC2C4C08EE
:1007C000803AF00080307002031DE82B3A304B0273
:1007D0000318EB2BEC2B582CA830F0002230F10042
:1007E00040014B08700786004C08713D87000108E6
:1007F0004F060319FC2BFD2BFC2C2130F00023307D
:10080000F1004B08700786004C08713D8700010815
:1008100003190B2C0C2CFC2C4D080319102C112C3B
:10082000342CA901AA0140012908373E860087011E
:100830000108F0002908443E860087017008810005
:100840000130A9070030AA3D2A08803AF000803024
:100850007002031D2D2C07302902031C302C312C73
:10086000132C4001CD01FC2CAB01AC0140012B0845
:10087000373E860087010109F0002B08443E8600C0
:100880008701700881000130AB070030AC3D2C08B7
:10089000803AF00080307002031D502C07302B028C
:1008A000031C532C542C362C4001CD01CD0AFC2CBA
:1008B00040014C08803AF00080307002031D622C29
:1008C0003E304B020318652C662C842C4001A3019A
:1008D000A401FF30F00040012308443E8600870158
:1008E000700881000130A3070030A43D2408803A3D
:1008F000F00080307002031D7F2C07302302031CA0
:10090000822C832C692CFC2C40014B08C33EF00048
:100910007008A200E92CFF30F0007008C400FF301E
:10092000F0007008C500F330F0007008C600E33036
:10093000F0007008C700E330F0007008C800FF3016
:10094000F0007008C900FF30F0007008CA00FC2CED
:10095000AD01AE0140012D08373E86008701010838
:100960000319B32CB52C0130B62C0030F0002D0843
:10097000443E86008701700881000130AD070030D9
:10098000AE3D2E08803AF00080307002031DCA2C64
:1009900007302D02031CCD2CCE2CAA2CFC2CA5013B
:1009A000A60140012508443E8600870181010130EF
:1009B000A5070030A63D2608803AF000803070027E
:1009C000031DE42C07302502031CE72CE82CD12C56
:1009D000FC2C2208F000F1017108003A0319F12CF7
:1009E000FC2C7008013A03198B2C033A0319A82C2C
:1009F000013A0319CF2CFC2C400152080319012D98
:100A0000022D092D430844018D0040014208440194
:100A10008C004001530803190E2D0F2D162D400890
:100A200044018D0040013F0844018C0040014C0806
:100A3000803AF00080307002031D202D8B304B0275
:100A4000031C232D242D2E2D400154080319292D7C
:100A50002A2D2E2DCE01CB01CC01542D40014C0866
:100A6000803A803C031D362D4B0841020318392D76
:100A70003A2D412D4001520803193F2D402D412DA3
:100A80002A2D40014C08803A803C031D492D4B081B
:100A90003E0203184C2D4D2D542D400153080319CF
:100AA000522D532D542D2A2D0800D034D034D0345B
:100AB000D034D034D034D034D034D034D034D03416
:100AC000D034D034D034D034D034D034D034D03406
:100AD000D034D034D034D034D034C034C034C03426
:100AE000C034C034C034C034C034C034C034C03466
:100AF000C034C034C034C034C034C034C034D03446
:100B0000D034D034D034D034D034D034D034D034C5
:100B1000D034D034D034C034C034C034C034D034F5
:100B2000D034D034D034D034D034D034D034D034A5
:100B3000D034D034D034D034D034D034D034D03495
:100B4000D034D034D034C034C034C034C034D034C5
:100B5000D034D034D034D034D034D034D034D03475
:100B6000D034D034D034D034D034C034C034C03495
:100B7000C034C034C034C034C034C034C034C034D5
:100B8000C034C034C034C034C034C034C034C034C5
:100B9000C034C034C034C034C034C034C034D034A5
:100BA000D034D034D034D034D034D034D034D03425
:100BB000D034D034D034D034D034D034D0349E3447
:100BC0009E349E348D349E349E34BC34BC34BC344C
:100BD000BC34BC34BC349E349E349E348D349E343C
:100BE0009E34BC34BC34BC34BC34BC34BC34D3348C
:100BF000D334D334D334D334D334FC34FC34FC3442
:100C0000FC34FC34FC34EE34EE34EE34EE34EE34AA
:100C1000EE349E349E349E349E349E349E348D3405
:100C20008D348D348D348D348D34ED34ED34ED349C
:100C3000FC348D348D349E349E349E348D349E34F9
:100C40009E34BC34BC34BC34BC34BC34BC348D3471
:100C50008D348D348D348D348D34ED34ED34ED346C
:100C6000FC348D348D349E349E349E348D349E34C9
:100C70009E34BC34BC34BC34BC34BC34BC34D334FB
:100C8000D334D334D334D334D334B134B134B13492
:100C9000D334FC34FC34ED34ED34ED34ED34ED3448
:100CA000ED34BC34BC34BC34BC34BC34BC34ED3462
:100CB000ED349E349E34BC34BC349E349E349E3419
:100CC000B134D334D334EE34EE34EE34EE34EE3487
:100CD000EE34E034E034D034D034E034E034D03496
:100CE000D034E034E034D034E0340034E034D03474
:100CF000D034E034E034D034D034E034E034D03494
:100D0000D034E034E034D034E0340034E034D03453
:100D1000D034E034E034D034D034E034E034D03473
:100D2000D034E034E034D034E0340034E034D03433
:100D3000D034E034E034D034D034E034E034D03453
:100D4000D034E034E034D034E03400340034D034F3
:100D5000D034D034D034D034D034D034D034D03473
:100D6000D034D034D034D034D034D034D034D03463
:100D7000D034D034D034D034D034D034D034D03453
:100D8000D034D034D034D034D034D034D034D03443
:100D9000D034D034D034D034D034D034D034D03433
:100DA000E034E034D034D034D034D034D034D03403
:100DB000D034D034D034D034D034D034D034D03413
:100DC000D034D03400340034D434D434D434D43493
:100DD000D434D434D434D434D434D4340034D434A7
:100DE000D434D434D434D434D434D434D434D434C3
:100DF000D434D434D434D434D434D4340034D43487
:100E0000D434D43400340034D434D434D434D4344A
:100E1000D434D434D434D434D434D4340034D43466
:100E2000D434D434D434D434D434D434D434D43482
:100E3000D434D434D434D434D434D434003400341A
:100E4000ED34D434B234B234B234B234B234B23415
:100E5000B234D434EE34B234B234D434B234B234E2
:100E6000B234D434EE34D434B234003400340034E8
:100E70000034D434EE348D349E34B234B234B234CF
:100E8000B234B234D434EE34B234003400340034EA
:100E900000348D348D348D348D349E349E349E34A4
:100EA0009E34B2348D348D349E34B234D434D43440
:100EB000D43400340034EE34EE34BD34BD349E34CA
:100EC0009E349E349E349E349E348D348D348D34C5
:100ED0008D349E349E34BD34BD34BD34BD34BD34F8
:100EE0009E348D348D348D348D348D348D349E34D8
:100EF0009E349E349E349E349E3400340034BD347F
:100F00009E348D348D348D348D348D348D349E34B7
:100F10009E349E349E349E349E349E349E349E3441
:100F2000B234B234B234BD34B234B234B2349E349A
:100F30009E348D348D349E349E34BD34BD349E3405
:100F40009E349E349E349E349E348D348D349E3433
:100F50009E349E349E34BD34BD34BD34BD34BD3466
:100F6000BD344001B300B601B401B50140013608FB
:100F7000031DBB2FBC2FC12F0130F5007508B6072C
:100F8000C52F3635F5007508B6003608F50075082A
:100F9000F30034083307F60076088600870101085D
:100FA0008E31A82687310330F5009830890BD62F73
:100FB000F50BD62F01304001B4070030B53D3508A0
:100FC000803AF50080307502031DE82F07303402A7
:100FD000031CEB2FEC2FB62F080044010E1DF12F40
:100FE000F22FF92F0E1071088D0070088C000E146E
:100FF000FD2F71088D0070088C0008000334080074
:101C840050018C0108004001D101D10A08007808F4
:101C94004B019D0077089C0008004E010C108E310A
:101CA40081268E31080073084001DC007208DB00D5
:101CB4000800510191010330930092010800730858
:101CC4004001DA007208D900080073084001D60008
:101CD4007208D50008008030460196007F309500D8
:101CE400C03094000800FE0012001E000130FE0205
:101CF4000030FF3B7F087E04031D762E0034400134
:101D04005B085C040319872E882E8D2E5C088A00DC
:101D14005B080A008E3108004E010C100B140230CF
:101D2400F2000030F3008E3155268E314E01161428
:101D34000800F200720843018C004E018D1CA32E92
:101D4400A42E9F2E8D1043010C080800F400730884
:101D54008E319B268E3174088E319B268E31400144
:101D64001A161A1208000130450190008F019101E2
:101D7400FF308D008C014E010D13B03045018E00F3
:101D840008004E018C1278084B019D0077089C00D6
:101D9400400159085A040319D02ED12ED62E5A08C0
:101DA4008A0059080A008E3108000034E834BE3431
:101DB400FE34BD34A034003479343434EA34853408
:101DC4002534E834FE34FF34FE34FF34FE34FF346B
:101DD400FE3415307D01C5000430C60007307E0195
:101DE400A5000830A300403043018F00900101306A
:101DF4008D00400194124301901208004E018D128F
:101E040040015808F1005708F0008731ED278F3161
:101E14004001550856040319102F112F162F560888
:101E24008A0055080A008F31080090304B019F004A
:101E340086309D00E8309C001D08F8001C08F7005F
:101E44004E018C1296160330F2000030F3008E31EE
:101E540061268F3190304B019E0008000130F00064
:101E640070084001CE078E3149268F3144010E1C83
:101E74003C2F3D2F422F4001CE01CB01CC01442FFA
:101E84004001D1014E0879020318492F4A2F4B2FE4
:101E9400CE0108008E31EB268F318F31A7278F3189
:101EA4008E315B268F318E3142268F318E316D26F5
:101EB4008F318E31B5268F318F3187278F318E3117
:101EC4008E268F318F3117278F310800F400740864
:101ED4004001500603196F2F702F732F74084501AA
:101EE4008D00720840014F060319792F7A2F7D2F38
:101EF400720845018E007408F30073084001D00095
:101F04007208F3007308CF00080044018F019001A8
:101F140004309100E1308D00BA308C004E018D12F6
:101F240044010D084001D80044010C084001D700C9
:101F34004E019716FF30F2000730F3008E3167260A
:101F44008F31053044018E000800400198019A0148
:101F54001F309200023094001F307E01CE002330E7
:101F6400B800B901CF01BA01D0013730BB003F300E
:101F7400D1003F30BC003F30D20002307D019000E0
:101F84001530C50008307E01A300033095000730EA
:101F9400A50004307D01C60008008D348D348D34D5
:101FA4008D348D348D34FC34FC34BD34BD34D434A0
:101FB400D434B234B2348D348D349E349E349E3451
:101FC4009E348D348D348D348D349E349E34BD34A2
:101FD400BD34BD34BD34EE34D434BD34BD34BD342D
:101FE400D434D434D434EE34EE34EE34EE34EE342B
:101FF400EE34EE34EE34EE34EE3400340034403457
:10200400013400348D349E34B234BD34D434EE34CF
:02201400FC349A
:020000040001F9
:04000E00ED3FE73F9C
:04001400FF3FFF3F6C
:00000001FF
