:0400000080313128F2
:100008007E1480314E01961E0A280B2813288C1E58
:100018000E280F2813288131952180312F28161C8E
:10002800162817281F280C1C1A281B281F2882315D
:10003800632280312F280B1F222823282F28971E60
:10004800262827282F288D1E2A282B282F2881315B
:100058003B2180312F287E10090080313328C93098
:1000680084008130850020308600003087000E3003
:10007800823145228031F501F601F7017E104001F9
:10008800803146288131052180318B170B1781314A
:10009800802180314301901240019411121694126C
:1000A800430190168131E521803134304001B6009A
:1000B8000230B70082315D2280314E011610813145
:1000C8002121803169304001B6000130B70082310A
:1000D800512280314B019E138031E420803152300F
:1000E8004001B6000130B70082314B228031440113
:1000F8000E108131D721803145018E1382313D2286
:10010800803140011A111A101A12B601FF308131DC
:10011800BA2180317508203E8600870101088231A6
:100128000022803145018E130130F5070030F63D7D
:100138007608803A4001B80080303802031DA628AE
:100148000F307502031CA928AA28AC28F501F6016E
:1001580006304001B9001330B800AD30890BB22821
:10016800B80BB228B90BB22800328E28803131285A
:10017800400198019A011F309200023094001F300C
:100188007E01CE002330B800B901CF01BA01D001F9
:100198003730BB003F30D1003F30BC003F30D20089
:1001A80002307D0190001530C50008307E01A300A3
:1001B800033095000730A50004307D01C600080013
:1001C80044018F019001043091000D308D00D03032
:1001D8008C004E018D1244010D084001B10044010C
:1001E8000C084001B0004E01971670304001B6006F
:1001F8000230B70082314B228031053044018E0035
:1002080008008131802181318031BC2081318231E7
:100218005722813182316D22813182313D228131F3
:100228008131D72181318131E52181318031E4204B
:100238008131813121218131080090304B019F00AB
:100248000D309D00D0309C001D08F9001C08F800F6
:100258004E018C12961671304001B6000230B7007C
:1002680082315122813190304B019E0008004E01AD
:100278008D1240013108F1003008F0008131A921C8
:10028800813140012E082F0403194B294C2951298B
:100298002F088A002E080A00813108007708031900
:1002A8005629572961292030F3007308F100BF301F
:1002B80082311A228131F7016829F101FF30823138
:1002C8001A228131F701F70A0800770803196D2906
:1002D8006E2978292030F3007308F100BF3082318D
:1002E8001A228131F7017F29F101FF3082311A2268
:1002F8008131F701F70A080015307D01C500043087
:10030800C60007307E01A5000830A3004030430135
:100318008F00900101308D0040019412430190122A
:1003280008004E018C1279084B019D0078089C004A
:100338004001320833040319A229A329A829330844
:100348008A0032080A008131080044010E1DAD29D7
:10035800AE29B5290E1071088D0070088C000E1496
:10036800B92971088D0070088C0008004001B70099
:1003780036088131F3218131400137088131F32179
:10038800813140011A161A1208009E349E348D34A9
:100398009E34BC34BC3400349E349E348D349E3438
:1003A800BC34BC3400340130450190008F01910108
:1003B800FF308D008C014E010D13D03045018E00A9
:1003C80008004E010C100B1472304001B6000230C8
:1003D800B70082315D2281314E0116140800F40005
:1003E800740843018C004E018D1CFB29FC29F72958
:1003F8008D1043010C080800F40045018E1774089D
:100408000319072A082A0B2A74088D000C2A8E1350
:1004180008004001340835040319132A142A192A3C
:1004280035088A0034080A0082310800F200710891
:10043800823127228231720882312722823140019B
:100448001A161A120800F000700843018C004E01B9
:100458008D1C2F2A302A2B2A8D1043010C080800E6
:100468002030F3007308F100BF3082311A22823144
:1004780008008030460196007F309500C030940017
:100488000800FE0012001E00FE0B462A0034400140
:100498003708AF003608AE00080040013708B3003F
:1004A8003608B2000800510191010330930092010F
:1004B800080040013708B5003608B40008004E01AE
:1004C8000C1082310D22823108000034403401348E
:0E04D800003450018C010800080008000800E4
:020000040001F9
:04000E00ED3FE73F9C
:04001400FF3FFF3F6C
:00000001FF
