:1000000080313128080003347E1480314E01961E61
:100010000A280B2813288C1E0E280F2813288D3130
:10002000902580312F28161C162817281F280C1CF5
:100030001A281B281F288D310C2580312F280B1FD3
:10004000222823282F28971E262827282F288D1E70
:100050002A282B282F288731C62780312F287E1069
:10006000090080313328A43084008D30850094301D
:100070008600213087000230FF005C308D31322550
:100080008031803103208031F900723084008D305E
:10009000850040308600003087000030FF000D30C2
:1000A0008D3132258031D630840086308500A030F5
:1000B0008600003087000030FF0038308D31322557
:1000C0008031CD01CE01CF01D001D101D201D301C8
:1000D000D401D501D6017E1040018431212C01309C
:1000E0004001CD070030CE3D560803197828792805
:1000F00063294E08803AF00080307002031D822888
:1001000018304D02031C85288628A22840014E087D
:10011000803AF00080307002031D902831304D028B
:10012000031C93289428E32840014E08803AF000ED
:1001300080307002031D9E2860304D020318A128F4
:10014000A228E3281E30F0002230F10040014D08C3
:10015000700786004E08713D87000108520603199A
:10016000B228B3286329B601B70140013608463EDC
:10017000860087010108F0000730F036890BBD28A2
:100180007008F1007108A1003608463E860087011C
:1001900001352107F0003608463E860087017008C9
:1001A00081000130B6070030B73D3708803AF000D3
:1001B00080307002031DDE2807303602031CE12860
:1001C000E228B528632940014E08803AF0008030CB
:1001D0007002031DED2878304D02031CF028F12831
:1001E00024291E30F0002230F10040014D08700734
:1001F00086004E08713D8700010852060319012947
:1002000002292429AC01AD0140012C08463E86009C
:1002100087010314010DF0002C08463E860087017B
:10022000700881000130AC070030AD3D2D08803AE8
:10023000F00080307002031D1F2907302C02031CC0
:10024000222923290429632940014E08803AF0001D
:1002500080307002031D2E2978304D020318312999
:10026000322963294001B801B90140013808463EEE
:10027000860087010108F0000730F036890B3D2920
:100280007008F1007108A2003808463E8600870118
:1002900001352207F0003808463E860087017008C5
:1002A00081000130B8070030B93D3908803AF000CC
:1002B00080307002031D5E2907303802031C61295B
:1002C00062293529632940015408031968296929DD
:1002D0009E2A4E08803AF00080307002031D722979
:1002E00022304D02031875297629A8299A30F0008A
:1002F0002330F10040014D08700786004E08713D23
:100300008700010852060319862987299E2AAE0113
:10031000AF0140012E08463E860087010136F000FD
:100320002E08463E86008701700881000130AE0726
:100330000030AF3D2F08803AF00080307002031D7E
:10034000A32907302E02031CA629A72989299E2A42
:1003500040014E08803AF00080307002031DB2293F
:1003600025304D020318B529B629D1294001A6012F
:10037000A70140012608463E860087018101013021
:10038000A6070030A73D2708803AF00080307002B1
:10039000031DCC2907302602031CCF29D029B929F7
:1003A0009E2A40014E08803AF00080307002031D02
:1003B000DB2926304D02031CDE29DF29252A4001D6
:1003C0004E08803AF00080307002031DE9292C307D
:1003D0004D020318EC29ED29252A4001BA01BB0181
:1003E00040013A08463E860087010109F0000630C8
:1003F000F035FF3E031DF8297035F1007108A300A8
:100400002308F0000730F036890B032A3A08463EED
:100410008600870101357007F1003A08463E8600E4
:100420008701710881000130BA070030BB3D3B08ED
:10043000803AF00080307002031D202A07303A0213
:10044000031C232A242AF0299E2A40014E08803AC0
:10045000F00080307002031D2F2A2D304D02031C46
:10046000322A332A722A40014E08803AF000803046
:100470007002031D3D2A7D304D020318402A412A97
:10048000722A4001BC01BD0140013C08463E860085
:1004900087010108F0000730F036890B4C2A7008FC
:1004A000F1007108A4003C08463E86008701013532
:1004B0002407F0003C08463E860087017008810052
:1004C0000130BC070030BD3D3D08803AF00080306F
:1004D0007002031D6D2A07303C02031C702A712A2A
:1004E000442A9E2A4001BE01BF013F08803AF00025
:1004F00080307002031D7E2A07303E02031C812AD1
:10050000822A832A9E2A40013E08463E86008701B1
:100510000109F0007008A0003E08463E86008701F1
:100520000314010DF0003E08463E86008701700866
:1005300081000130BE070030BF3D752A40015508DB
:100540000319A32AA42AC82B4E08803AF000803051
:100550007002031DAD2A3A304D020318B02AB12AA9
:10056000212BA830F0002230F10040014D08700727
:1005700086004E08713D8700010851060319C12A03
:10058000C22AC82B2130F0002330F1004D0870073B
:1005900086004E08713D870001080319D02AD12A30
:1005A000C82B4F080319D52AD62AFB2AB001B1015E
:1005B0003108803AF00080307002031DE12A0730D4
:1005C0003002031CE42AE52AE62AF82A4001300812
:1005D000D13E860087010108F0003008463E8600C3
:1005E0008701700881000130B0070030B13DD82A82
:1005F0004001CF01C82BB201B3013308803AF000AB
:1006000080307002031D062B07303202031C092BB9
:100610000A2B0B2B1D2B40013208D13E860087018F
:100620000109F0003208463E86008701700881000B
:100630000130B2070030B33DFD2A4001CF01CF0A9F
:10064000C82B40014E08803AF00080307002031D34
:100650002B2B3E304D0203182E2B2F2B4E2B4001FF
:10066000A801A9012908803AF00080307002031D1A
:100670003B2B07302802031C3E2B3F2B402BC82B63
:10068000FF30F00040012808463E860087017008D0
:1006900081000130A8070030A93D322B40014D08F0
:1006A000C33EF0007008A500B52BFF30F0007008C5
:1006B000C600FF30F0007008C700F330F00070088B
:1006C000C800E330F0007008C900E330F0007008A3
:1006D000CA00FF30F0007008CB00FF30F000700857
:1006E000CC00C82BB401B5013508803AF000803049
:1006F0007002031D7D2B07303402031C802B812BDD
:10070000822BC82B40013408D13E860087010108A6
:1007100003198B2B8D2B01308E2B0030F000340809
:10072000463E86008701700881000130B407003022
:10073000B53D742BAA01AB012B08803AF000803044
:100740007002031DA52B07302A02031CA82BA92B1E
:10075000AA2BC82B40012A08463E8600870181014A
:100760000130AA070030AB3D9C2B2508F000F101B9
:100770007108003A0319BD2BC82B7008013A031900
:10078000552B033A0319722B013A03199A2BC82BE4
:10079000400154080319CD2BCE2BD52B450844011D
:1007A0008D004001440844018C00400155080319A4
:1007B000DA2BDB2BE22B420844018D00400141087B
:1007C00044018C0040014E08803AF00080307002F5
:1007D000031DEC2B8B304D02031CEF2BF02BFA2B5F
:1007E000400156080319F52BF62BFA2BD001CD0149
:1007F000CE01202C40014E08803A803C031D022C83
:100800004D0843020318052C062C0D2C40015408FA
:1008100003190B2C0C2C0D2CF62B40014E08803AA2
:10082000803C031D152C4D0840020318182C192C70
:10083000202C4001550803191E2C1F2C202CF62BB0
:1008400008008731752784318B170B178731DD2717
:100850008431430190124001941112169412430105
:1008600090168D314B2584319130F2000730F30022
:100870008D31122584314E0116148731AD27843114
:100880000230F2000D30F3008D311E2584314B0112
:100890009E138731362784316F30F2000030F30029
:1008A0008D312425843144010E108731F2278431A3
:1008B00045018E138D312A25843140011A111A12F7
:1008C0001A104101E501E6014101E301E40146306E
:1008D00086319A26843101304101E3070030E43D3E
:1008E0006408803ADC0080305C02031D792C0C30F7
:1008F0006302031C7C2C7D2C672C41016608803A26
:10090000DC0080305C02031D872C07306502031871
:100910008A2C8B2CC32C4101E701E80141016708B7
:10092000463E860087010109DC000630DC35FF3ECB
:10093000031D962C5C35DD005D08E1006108DC00DC
:100940000730DC36890BA12C6708463E86008701FC
:1009500001355C07DD006708463E860087015D08BB
:1009600081000130E7070030E83D6808803ADC008C
:1009700080305C02031DBE2C07306702031CC12CB3
:10098000C22C8E2CE52C4101E901EA0141016908E4
:10099000463E860087010314010DDC006908463ECF
:1009A000860087015C0881000130E9070030EA3DDC
:1009B0006A08803ADC0080305C02031DE12C0730BD
:1009C0006902031CE42CE52CC62C01304101E5072B
:1009D0000030E63D6608803ADC0080305C02031D92
:1009E000F32C0F306502031CF62CF72C642C4B0102
:1009F0009E1708304101DC005C08F300FE308D31A9
:100A00006525843140011A111A1050080319092D67
:100A10000A2D7F2E530803190E2D0F2D7F2E4B010B
:100A20009E138E2D8830DC005C084001C6004430E7
:100A30004101DC005C084001C70022304101DC00BC
:100A40005C084001C80011304101DC005C08400135
:100A5000C90088304101DC005C084001CA00443014
:100A60004101DC005C084001CB0022304101DC0088
:100A70005C084001CC00D601D60AA32DFF30DC0073
:100A80005C084001C600FF304101DC005C08400109
:100A9000C700FF304101DC005C084001C800FF30A6
:100AA0004101DC005C084001C900FF304101DC006D
:100AB0005C084001CA00FF304101DC005C084001D5
:100AC000CB00FF304101DC005C084001CC00D401C8
:100AD000D40AA32D4001C601E8304101DC005C08C6
:100AE0004001C700BE304101DC005C084001C80085
:100AF000FE304101DC005C084001C900BD3041010D
:100B0000DC005C084001CA00A0304101DC005C0848
:100B10004001CB00CC01D501D50AA32D40015008DE
:100B20004101DC00DD015D08003A0319982DA32D79
:100B30005C08013A0319122D033A03193E2D013ABC
:100B400003196A2DA32D44010E1445018E17D12DD2
:100B500094304101DC002130DD0040014D084101AD
:100B60005C07860040014E0841015D3D8700010899
:100B7000DE005E08F2001E30DF002230E00040019F
:100B80004D0841015F07860040014E084101603D6C
:100B900087000108873156278431463086319A26EE
:100BA0008431400150030319D62DD72DA82D3F2E97
:100BB0004E08803A4101DC0080305C02031DE32DC9
:100BC000553040014D02031CE62DE72D242E400137
:100BD0004E08803A4101DC0080305C02031DF32D99
:100BE0005B3040014D02031CF62DF72D0D2E400108
:100BF0004E08803A4101DC0080305C02031D032E68
:100C0000613040014D020318062E072E0D2EC03014
:100C10004101DC005C08E200122ED0304101DC0012
:100C20005C08E2006208DC005C08F20040014D084C
:100C30004B3E8600870101088731562784314630B4
:100C400086319A2684313F2ED0304101DC005C0889
:100C5000F2009A30DD002330DE0040014D084101F2
:100C60005D07860040014E0841015E3D8700010896
:100C7000873156278431463086319A2684310230B6
:100C8000400150060319452E462ED82D702EA8304F
:100C90004101DC002230DD0040014D0841015C07CC
:100CA000860040014E0841015D3D87000108DE00DD
:100CB0005E08F2002130DF002330E00040014D08E3
:100CC00041015F07860040014E084101603D8700F9
:100CD0000108873156278431463086319A2684317F
:100CE0000330400150060319762E772E472ED0018F
:100CF000D601D401D50144010E1045018E134001E7
:100D000053080319842E852EF72C5008031D892EB5
:100D10008A2EF72C4B019E1344010E1045018E13B1
:100D20004E010C10161440011A151A146300F72C0A
:100D3000803131284101D800DB01D901DA014101BC
:100D40005B08031DA42EA52EAA2E0130F500750800
:100D5000DB07AE2E5B35F5007508DB005B08F500A0
:100D60007508F30059085807F600760886008701D1
:100D700001088D31652586310330F5009830890BE7
:100D8000BF2EF50BBF2E01304101D9070030DA3DEF
:100D90005A08803AF50080307502031DD12E0730C5
:100DA0005902031CD42ED52E9F2E08008D348D346D
:100DB0008D348D348D348D34FC34FC34BD34BD34ED
:100DC000D434D434B234B2348D348D349E349E3421
:100DD0009E349E348D348D348D348D349E349E34C7
:100DE000BD34BD34BD34BD34EE34D434BD34BD3433
:100DF000BD34D434D434D434EE34EE34EE34EE3462
:100E0000EE34EE34EE34EE34EE34EE3400340034AE
:100E1000E834BE34FE34BD34A034003440019801BF
:100E20009A011F309200023094001F307E01CE00E4
:100E30002330B800B901CF01BA01D0013730BB006F
:100E40003F30D1003F30BC003F30D20002307D0146
:100E500090001530C50008307E01A30003309500D6
:100E60000730A50004307D01C600080044018F0151
:100E7000900104309100E1308D00BA308C004E01B9
:100E80008D1244010D084001DA0044010C084001B4
:100E9000D9004E0197160230F2000030F3008D3178
:100EA00024258731053044018E000800F4007408C1
:100EB0004001520603195D2F5E2F612F7408450112
:100EC0008D007208400151060319672F682F6B2FA0
:100ED000720845018E007408F30073084001D200C7
:100EE0007208F3007308D10008008731DD278731CD
:100EF00087310E2787318D31182587318C31FF24BA
:100F000087318D312A2587318731F2278731873123
:100F1000362787318D314B2587318731AD27873192
:100F200008000130F00070084001D0078D3106251F
:100F3000873144010E1C9D2F9E2FA32F4001D0010D
:100F4000CD01CE01A52F4001D3015008790203182D
:100F5000AA2FAB2FAC2FD001080090304B019F007F
:100F600086309D00E8309C001D08F8001C08F70042
:100F70004E018C129616FE30F2000C30F3008D31CB
:100F80001E25873190304B019E0008004E018D12C6
:100F900040015A08F1005908F0008D317F25873152
:100FA0004001570858040319D62FD72FDC2F5808B3
:100FB0008A0057080A008731080015307D01C500F6
:100FC0000430C60007307E01A5000830A300403081
:100FD00043018F00900101308D00400194124301C4
:100FE000901208000130450190008F019101FF30FF
:100FF0008D008C014E010D13B03045018E000800AC
:1019FA000800080050018C0108004001D301D30AF5
:101A0A00080078084B019D0077089C0008004E01E9
:101A1A000C108D313E258D31080073084001DE001F
:101A2A007208DD0008005101910103309300920110
:101A3A00080073084001DC007208DB000800730824
:101A4A004001D8007208D70008008030460196008D
:101A5A007F309500C03094000800FE0012001E007E
:101A6A000130FE020030FF3B7F087E04031D332D48
:101A7A00003440015D085E040319442D452D4A2DAA
:101A8A005E088A005D080A008D3108004E010C10BC
:101A9A000B14FD30F2000C30F3008D3112258D311C
:101AAA004E0116140800F200720843018C004E0120
:101ABA008D1C602D612D5C2D8D1043010C080800D2
:101ACA00F40073088D3158258D3174088D315825ED
:101ADA008D3140011A161A12080079343434EA3466
:101AEA0085342534E834FE34FF34FE34FF34FE34C2
:101AFA00FF34FE3444010E1D832D842D8B2D0E10D0
:101B0A0071088D0070088C000E148F2D71088D00DD
:101B1A0070088C0008004E018C1278084B019D0059
:101B2A0077089C0040015B085C0403199D2D9E2DDB
:101B3A00A32D5C088A005B080A008D310800D034A6
:101B4A00D034D034D034D034D034D034D034D0346B
:101B5A00D034D034D034D034D034D034D034D0345B
:101B6A00D034D034D034D034D034D034D034C0345B
:101B7A00C034C034C034C034C034C034C034C034BB
:101B8A00C034C034C034C034C034C034C034C034AB
:101B9A00C034D034D034D034D034D034D034D0342B
:101BAA00D034D034D034D034D034C034C034C0343B
:101BBA00C034D034D034D034D034D034D034D0340B
:101BCA00D034D034D034D034D034D034D034D034EB
:101BDA00D034D034D034D034D034C034C034C0340B
:101BEA00C034D034D034D034D034D034D034D034DB
:101BFA00D034D034D034D034D034D034D034C034CB
:101C0A00C034C034C034C034C034C034C034C0342A
:101C1A00C034C034C034C034C034C034C034C0341A
:101C2A00C034C034C034C034C034C034C034C0340A
:101C3A00C034D034D034D034D034D034D034D0348A
:101C4A00D034D034D034D034D034D034D034D0346A
:101C5A00D0349E349E349E348D349E349E34BC34AB
:101C6A00BC34BC34BC34BC34BC349E349E349E3444
:101C7A008D349E349E34BC34BC34BC34BC34BC3445
:101C8A00BC34D334D334D334D334D334D334FC3400
:101C9A00FC34FC34FC34FC34FC34EE34EE34EE34E4
:101CAA00EE34EE34EE349E349E349E349E349E34AA
:101CBA009E348D348D348D348D348D348D34ED34A1
:101CCA00ED34ED34FC348D348D349E349E349E34A0
:101CDA008D349E349E34BC34BC34BC34BC34BC34E5
:101CEA00BC348D348D348D348D348D348D34ED3453
:101CFA00ED34ED34FC348D348D349E349E349E3470
:101D0A008D349E349E34BC34BC34BC34BC34BC34B4
:101D1A00BC34D334D334D334D334D334D334B134BA
:101D2A00B134B134D334FC34FC34ED34ED34ED3415
:101D3A00ED34ED34ED34BC34BC34BC34BC34BC3486
:101D4A00BC34ED34ED349E349E34BC34BC349E3401
:101D5A009E349E34B134D334D334EE34EE34EE347C
:101D6A00EE34EE34EE34E034E034D034D034E034BF
:101D7A00E034D034D034E034E034D034E0340034C9
:101D8A00E034D034D034E034E034D034D034E034E9
:101D9A00E034D034D034E034E034D034E0340034A9
:101DAA00E034D034D034E034E034D034D034E034C9
:101DBA00E034D034D034E034E034D034E034003489
:101DCA00E034D034D034E034E034D034D034E034A9
:101DDA00E034D034D034E034E034D034E034003469
:101DEA000034D034D034D034D034D034D034D03499
:101DFA00D034D034D034D034D034D034D034D034B9
:101E0A00D034D034D034D034D034D034D034D034A8
:101E1A00D034D034D034D034D034D034D034D03498
:101E2A00D034D034D034D034D034D034D034D03488
:101E3A00D034D034E034E034D034D034D034D03458
:101E4A00D034D034D034D034D034D034D034D03468
:101E5A00D034D034D034D03400340034D434D434F0
:101E6A00D434D434D434D434D434D434D434D43428
:101E7A000034D434D434D434D434D434D434D434EC
:101E8A00D434D434D434D434D434D434D434D43408
:101E9A000034D434D434D43400340034D434D43474
:101EAA00D434D434D434D434D434D434D434D434E8
:101EBA000034D434D434D434D434D434D434D434AC
:101ECA00D434D434D434D434D434D434D434D434C8
:101EDA0000340034ED34D434B234B234B234B234CF
:101EEA00B234B234B234D434EE34B234B234D43438
:101EFA00B234B234B234D434EE34D434B2340034DA
:101F0A00003400340034D434EE348D349E34B23488
:101F1A00B234B234B234B234D434EE34B2340034DB
:101F2A000034003400348D348D348D348D349E3435
:101F3A009E349E349E34B2348D348D349E34B23401
:101F4A00D434D434D43400340034EE34EE34BD34D2
:101F5A00BD349E349E349E349E349E349E348D34D9
:101F6A008D348D348D349E349E34BD34BD34BD34AD
:101F7A00BD34BD349E348D348D348D348D348D34DE
:101F8A008D349E349E349E349E349E349E34003466
:101F9A000034BD349E348D348D348D348D348D347B
:101FAA008D349E349E349E349E349E349E349E34A8
:101FBA009E349E34B234B234B234BD34B234B23404
:101FCA00B2349E349E348D348D349E349E34BD3466
:101FDA00BD349E349E349E349E349E349E348D3459
:101FEA008D349E349E349E349E34BD34BD34BD340B
:101FFA00BD34BD34BD3400344034013400348D3432
:0C200A009E34B234BD34D434EE34FC34C7
:020000040001F9
:04000E00ED3FE73F9C
:04001400FF3FFF3F6C
:00000001FF
