:0400000080313128F2
:100008007E1480314E01961E0A280B2813288C1E58
:100018000E280F2813288231DF2280312F28161C42
:10002800162817281F280C1C1A281B281F2883315C
:10003800902380312F280B1F222823282F28971E32
:10004800262827282F288D1E2A282B282F2882315A
:10005800702280312F287E100900803133284930E2
:10006800840080308500DC30860022308700013033
:10007800FF001430833164238031F001F101F20173
:10008800F3017E10400181315D29D034D034D03461
:10009800D034D034D034D034D034D034D034D03438
:1000A800D034D034D034D034D034D034D034D03428
:1000B800D034D034D034D034D034C034C034C03448
:1000C800C034C034C034C034C034C034C034C03488
:1000D800C034C034C034C034C034C034C034D03468
:1000E800D034D034D034D034D034D034D034D034E8
:1000F800D034D034D034C034C034C034C034D03418
:10010800D034D034D034D034D034D034D034D034C7
:10011800D034D034D034D034D034D034D034D034B7
:10012800D034D034D034C034C034C034C034D034E7
:10013800D034D034D034D034D034D034D034D03497
:10014800D034D034D034D034D034C034C034C034B7
:10015800C034C034C034C034C034C034C034C034F7
:10016800C034C034C034C034C034C034C034C034E7
:10017800C034C034C034C034C034C034C034D034C7
:10018800D034D034D034D034D034D034D034D03447
:10019800D034D034D034D034D034D034D0349E3469
:1001A8009E349E348D349E349E34BC34BC34BC346E
:1001B800BC34BC34BC349E349E349E348D349E345E
:1001C8009E34BC34BC34BC34BC34BC34BC34D334AE
:1001D800D334D334D334D334D334FC34FC34FC3464
:1001E800FC34FC34FC34EE34EE34EE34EE34EE34CD
:1001F800EE349E349E349E349E349E349E348D3428
:100208008D348D348D348D348D34ED34ED34ED34BE
:10021800FC348D348D349E349E349E348D349E341B
:100228009E34BC34BC34BC34BC34BC34BC348D3493
:100238008D348D348D348D348D34ED34ED34ED348E
:10024800FC348D348D349E349E349E348D349E34EB
:100258009E34BC34BC34BC34BC34BC34BC34D3341D
:10026800D334D334D334D334D334B134B134B134B4
:10027800D334FC34FC34ED34ED34ED34ED34ED346A
:10028800ED34BC34BC34BC34BC34BC34BC34ED3484
:10029800ED349E349E34BC34BC349E349E349E343B
:1002A800B134D334D334EE34EE34EE34EE34EE34A9
:1002B800EE3482313A2281318B170B178231CA22F0
:1002C8008131430190124001941112169412430196
:1002D800901683312F2381319D304001A8000330CF
:1002E800A90083318A2381314E01161082315622AA
:1002F80081319E304001A8000230A90083317E235D
:1003080081314B019E13823119228131873040019E
:10031800A8000230A90083317823813144010E10EE
:1003280083312123813145018E138331702381313B
:1003380040011A111A101A12A901FF30833104233F
:10034800813172080319A929AA29EA29DC30400158
:10035800AB002230AC0070082B07860071082C3DDA
:1003680087000108AD002D08A8006630AE002330D4
:10037800AF0070082E07860071082F3D870001081E
:100388008231B52281310130F0070030F13D71082A
:10039800803A4001AB0080302B02031DD5298B30F9
:1003A8007002031CD829D929DC29F201F001F101D6
:1003B80003304001AC008A30AB005530890BE2298C
:1003C800AB0BE229AC0BE2290032A5294E010C1037
:1003D80016146300A52980313128400198019A013B
:1003E8001F309200023094001F307E01CE0023306F
:1003F800B800B901CF01BA01D0013730BB003F3096
:10040800D1003F30BC003F30D20002307D01900067
:100418001530C50008307E01A30003309500073071
:10042800A50004307D01C600080044018F01900139
:10043800043091000D308D00D0308C004E018D12AB
:1004480044010D084001A30044010C084001A2002A
:100458004E019716A0304001A8000330A90083314F
:1004680078238231053044018E0008008231CA2287
:1004780082318131F1218231833184238231833188
:100488009A2382318331702382318331212382314F
:1004980083312F23823182311922823182315622CF
:1004A8008231080090304B019F000D309D00D03004
:1004B8009C001D08F9001C08F8004E018C129616C5
:1004C800A1304001A8000330A90083317E23823186
:1004D80090304B019E0008004E018D124001230808
:1004E800F5002208F4008231F3228231400120080D
:1004F80021040319802A812A862A21088A002008D3
:100508000A0082310800730803198B2A8C2A962A5C
:100518002030F7007708F500BF3083313D23823162
:10052800F3019D2AF501FF3083313D238231F30128
:10053800F30A080073080319A22AA32AAD2A203057
:10054800F7007708F500BF3083313D238231F3018E
:10055800B42AF501FF3083313D238231F301F30AD8
:1005680008004001A90045018E1740012908031918
:10057800BE2ABF2AC72A280845018E00400129083B
:1005880045018D00C92A45018E13080015307D01EB
:10059800C5000430C60007307E01A5000830A3005E
:1005A800403043018F00900101308D0040019412CA
:1005B8004301901208004E018C1279084B019D00EE
:1005C80078089C004001240825040319EC2AED2A28
:1005D800F22A25088A0024080A008231080044010A
:1005E8000E1DF72AF82AFF2A0E1075088D007408C8
:1005F8008C000E14032B75088D0074088C000800FD
:100608004001AA00290883311323833140012A08B5
:1006180083311323833140011A161A12080040014E
:10062800A800280843018C004E018D1C1C2B1D2B93
:10063800182B8D1043010C0808000130450190006B
:100648008F019101FF308D008C014E010D13C030D8
:1006580045018E0008004E010C100B14A230400119
:10066800A8000330A90083318A2383314E01161470
:100678000800F600750883314A23833176088331F0
:100688004A23833140011A161A120800F40074082C
:1006980043018C004E018D1C522B532B4E2B8D1079
:1006A80043010C08080040012608270403195D2BA4
:1006B8005E2B632B27088A0026080A00833108006E
:1006C800FE0012001E000130FE020030FF3B7F08D2
:1006D8007E04031D652B00348030460196007F3070
:1006E8009500C0309400080040012908A10028089E
:1006F800A000080040012908A5002808A400080057
:10070800510191010330930092010800400129082A
:10071800A7002808A60008004E010C1083315723B3
:1007280083310800003440340134003450018C0116
:0E0738000800F201F20A08000800080008009C
:020000040001F9
:04000E00ED3FE73F9C
:04001400FF3FFF3F6C
:00000001FF
