:0400000080313128F2
:100008007E1480314E01961E0A280B2813288C1E58
:100018000E280F2813288531672580312F28161CB4
:10002800162817281F280C1C1A281B281F28863159
:100038003F2680312F280B1F222823282F28971E80
:10004800262827282F288D1E2A282B282F28853157
:10005800502580312F287E100900803133284A30FE
:10006800840083308500DC30860022308700013030
:10007800FF00143086310A2680311A30840085301A
:10008800850020308600003087000030FF001B30DC
:1000980086310A268031A630840085308500A0305C
:1000A8008600003087000030FF00113086310A26B4
:1000B8008031F801F901D801D901DA01DB01DC014D
:1000C800DD01DE017E1040018231062A40015C0814
:1000D80003196F2870283F295908803AF0008030AA
:1000E8007002031D792818305802031C7C287D28CB
:1000F800992840015908803AF00080307002031DA9
:10010800872831305802031C8A288B28DE284001B2
:100118005908803AF00080307002031D952860303D
:100128005802031898289928DE2840015808013EEB
:10013800F0000030593DF100F01CA328A4283F2905
:100148005808013EF0000030593DF100701CAD2800
:10015800AE283F29C601C70140014608793E8600FE
:1001680087010108F0000730F036890BB8287008BD
:10017800F1007108BB004608793E86008701013509
:100188003B07F0004608793E860087017008810029
:100198000130C6070030C73D4708803AF00080307C
:1001A8007002031DD92807304602031CDC28DD280D
:1001B800B0283F2940015908803AF0008030700289
:1001C800031DE8287F305802031CEB28EC280F2970
:1001D8004001C001C10140014008793E8600870105
:1001E8000314010DF0004008793E8600870170086D
:1001F80081000130C0070030C13D4108803AF0005D
:1002080080307002031D0A2907304002031C0D29A3
:100218000E29EF283F294001C801C90140014808BB
:10022800793E860087010108F0000730F036890B17
:100238001A297008F1007108BC004808793E860048
:10024800870101353C07F0004808793E86008701A0
:10025800700881000130C8070030C93D4908803A5C
:10026800F00080307002031D3B2907304802031C50
:100278003E293F29122940015B08031944294529D1
:10028800C9295908803AF00080307002031D4E29B0
:100298000830580203185129522974294001C20113
:1002A800C30140014208793E860087010135F0000C
:1002B8004208793E86008701700881000130C20734
:1002C8000030C33D4308803AF00080307002031DBF
:1002D8006F2907304202031C722973295529C9293D
:1002E8000830400158065904031D7B297C299929A7
:1002F800BE01BF01AA30F00040013E08793E8600E9
:100308008701700881000130BE070030BF3D3F08FB
:10031800803AF00080307002031D942907303E02B5
:10032800031C972998297E29C929581C9C299D298D
:10033800C929C401C5017908F0000730F036890BD6
:10034800A2297008F10071084001BD004408793EF7
:100358008600870101353D07F0004408793E860094
:100368008701700881000130C4070030C53D450889
:10037800803AF00080307002031DC429073044021F
:10038800031CC729C8299F29C92940015B080319EB
:10039800CE29CF29D629390844018D0040013808D3
:1003A80044018C0001304001D8070030D93D59087C
:1003B800803AF00080307002031DE4298B30580227
:1003C800031CE729E829F22940015C080319ED29F3
:1003D800EE29F229F801D801D901052A4001590866
:1003E800803A803C031DFA29580837020318FD2972
:1003F800FE29052A40015B080319032A042A052A55
:10040800EE2908008431E22482318B170B178531DD
:100418007E258231430190124001941112169412E4
:10042800430190168531F02582313530F2000530D0
:10043800F3008631392682314E0116148431FE24A8
:1004480082314930F2000630F30086312D268231A0
:100458004B019E138431C22482316A30F20000308D
:10046800F30086312726823144010E108531C825D4
:10047800823145018E1386311F26823140011A15BB
:100488001A141A12F301FF308531D62582314B0137
:100498009E1708304101B1003108F300FE30853164
:1004A800D625823140011A111A10780803195D2ADD
:1004B8005E2A382B5A080319622A632A382B4B0103
:1004C8009E13B32A8830B1003108F9004430B100D6
:1004D8003108FA002230B1003108FB001130B100B8
:1004E8003108FC008830B1003108FD004430B1000B
:1004F8003108FE002230B1003108FF004001DC0164
:10050800DC0AC72AF901FA01FB01FC01FD01FE0121
:10051800FF01C72AFE30B1003108F900FE30B100F2
:100528003108FA00FE30B1003108FB00FE30B1009E
:100538003108FC00FE30B1003108FD00FE30B1008A
:100548003108FE00FE30B1003108FF004001DB0138
:10055800DB0AED3044018D00D6308C00C72A7808BC
:100568004101B100B2013208003A0319BC2AC72A76
:100578003108013A0319662A033A0319862A013A0F
:1005880003198E2AC72A44010E1445018E17F52A2D
:10059800DC304101B1002230B2004001580841016D
:1005A80031078600400159084101323D87000108A2
:1005B800B3003308F2006630B4002330B5004001C0
:1005C8005808410134078600400159084101353D6A
:1005D80087000108853193258231793084315E2482
:1005E800823178030319F92AFA2ACC2A082BE03039
:1005F8004101B1003108F200A830853193258231DC
:10060800793084315E2482310230780603190D2B4B
:100618000E2BFB2A2A2B40015808203E8600870112
:1006280001084101B1003108F7007708B10031082D
:10063800F20040015808A03E860087010108853174
:1006480093258231793084315E24823103307806F3
:1006580003192F2B302B0F2BF8014001DC01DB0194
:1006680044010E1045018E1340015A0803193D2B11
:100678003E2B4B2A4B019E134E010C1016144001C1
:100688001A151A1463004B2A80313128D034D0341B
:10069800D034D034D034D034D034D034D034D03432
:1006A800D034D034D034D034D034D034D034D03422
:1006B800D034D034D034D034D034D034C034C03432
:1006C800C034C034C034C034C034C034C034C03482
:1006D800C034C034C034C034C034C034C034C03472
:1006E800D034D034D034D034D034D034D034D034E2
:1006F800D034D034D034D034C034C034C034C03412
:10070800D034D034D034D034D034D034D034D034C1
:10071800D034D034D034D034D034D034D034D034B1
:10072800D034D034D034D034C034C034C034C034E1
:10073800D034D034D034D034D034D034D034D03491
:10074800D034D034D034D034D034D034C034C034A1
:10075800C034C034C034C034C034C034C034C034F1
:10076800C034C034C034C034C034C034C034C034E1
:10077800C034C034C034C034C034C034C034C034D1
:10078800D034D034D034D034D034D034D034D03441
:10079800D034D034D034D034D034D034D034D03431
:1007A8009E349E349E348D349E349E34BC34BC3486
:1007B800BC34BC34BC34BC349E349E349E348D343A
:1007C8009E349E34BC34BC34BC34BC34BC34BC34DD
:1007D800D334D334D334D334D334D334FC34FC3487
:1007E800FC34FC34FC34FC34EE34EE34EE34EE34B9
:1007F800EE34EE349E349E349E349E349E349E34C1
:100808008D348D348D348D348D348D34ED34ED3418
:10081800ED34FC348D348D349E349E349E348D34C6
:100828009E349E34BC34BC34BC34BC34BC34BC347C
:100838008D348D348D348D348D348D34ED34ED34E8
:10084800ED34FC348D348D349E349E349E348D3496
:100858009E349E34BC34BC34BC34BC34BC34BC344C
:10086800D334D334D334D334D334D334B134B1348C
:10087800B134D334FC34FC34ED34ED34ED34ED34A0
:10088800ED34ED34BC34BC34BC34BC34BC34BC347E
:10089800ED34ED349E349E34BC34BC349E349E34E6
:1008A8009E34B134D334D334EE34EE34EE34EE34F3
:1008B800EE34EE344001CA00CD01CB01CC01400139
:1008C8004D08031D682C692C6E2C0130F500750845
:1008D800CD07722C4D35F5007508CD004D08F50093
:1008E8007508F3004B084A07F6007608860087016A
:1008F80001088531D62584310330F5009830890BFD
:10090800832CF50B832C01304001CB070030CC3D04
:100918004C08803AF50080307502031D952C07308D
:100928004B02031C982C992C632C08004001980159
:100938009A011F309200023094001F307E01CE00D1
:100948002330B800B901CF01BA01D0013730BB005C
:100958003F30D1003F30BC003F30D20002307D0133
:1009680090001530C50008307E01A30003309500C3
:100978000730A50004307D01C600080044018F013E
:10098800900104309100E1308D00BA308C004E01A6
:100998008D1244010D084001D10044010C084001AA
:1009A800D0004E0197165030F2000630F300863121
:1009B80027268431053044018E00080085317E25C4
:1009C800843184319A2484318631332684318631C6
:1009D8004D26843186311F2684318531C8258431DE
:1009E8008431C22484318531F02584318431FE2458
:1009F8008431080090304B019F0086309D00E8301C
:100A08009C001D084001D5004B011C084001D40082
:100A18004E018C1296165130F2000630F3008631E2
:100A28002D26843190304B019E000800B034B0343C
:100A3800B034A034A034A034A034A034C034C034BE
:100A4800C034C034C034C034C034C03488344434B2
:100A5800223411348834443422341034E434F334E6
:100A680003340130F0007008F80786311626853106
:100A780044010E1C402D412D462DF8014001D8019E
:100A8800D901482D4001DA0178083A0203184D2DA2
:100A98004E2D4F2DF80108004E018D1240015108CE
:100AA800F1005008F0008531B725853140014E0826
:100AB8004F040319602D612D662D4F088A004E08DA
:100AC8000A00853108004E018C12400155084B017F
:100AD8009D00400154084B019C00400152085304FA
:100AE8000319772D782D7D2D53088A0052080A00A6
:100AF8008531080015307D01C5000430C600073077
:100B08007E01A5000830A300403043018F0090010A
:100B180001308D0040019412430190120800F40046
:100B2800740840015D0603199A2D9B2DA02D7208AB
:100B380045018E0074088D007408F30073084001A5
:100B4800DD000800D3349E348D34D334BC34BC3437
:100B580000340034BC34BC349E349E34BC34BC34C1
:100B68008D348D348D3444010E1DBB2DBC2DC32D09
:100B78000E1071088D0070088C000E14C72D7108B6
:100B88008D0070088C0008000130450190008F012D
:100B98009101FF308D008C014E010D13B0304501DD
:100BA8008E000800F40073088531E3258531740848
:100BB8008531E325853140011A161A120800F20022
:100BC800720843018C004E018D1CEB2DEC2DE72D96
:100BD8008D1043010C0808004E010C100B14523004
:100BE800F2000630F3008631392685314E0116149D
:100BF80008004001560857040319032E042E092E35
:100C080057088A0056080A0086310800FE001200BC
:100C18001E000130FE020030FF3B7F087E04031DEA
:100C28000B2E0034400155084B019D00400154082B
:100C38004B019C0008008030460196007F309500EB
:100C4800C0309400080073084001CF007208CE003D
:100C5800080073084001D3007208D200080051014F
:100C68009101033093009201080073084001D700F6
:100C78007208D60008004E010C108531FD2586311A
:100C8800080000344034013400344001DA01DA0A43
:0E0C9800080050018C01080008000800080048
:020000040001F9
:04000E00ED3FE73F9C
:04001400FF3FFF3F6C
:00000001FF
