:1000000080313128080008007E1480314E01961E90
:100010000A280B2813288C1E0E280F2813288B3132
:10002000082380312F28161C162817281F280C1C7F
:100030001A281B281F288A315C2280312F280B1F89
:10004000222823282F28971E262827282F288D1E70
:100050002A282B282F288B311F2380312F287E1010
:100060000900803133288E3084008C3085007E304A
:100070008600203087000330FF0072308731F4277C
:1000800080317B3084008A30850048308600003023
:1000900087000030FF0007308731F427803174304B
:1000A00084008A308500B730860000308700003039
:1000B000FF0007308731F4278031CF01D001D10113
:1000C000D201D3014101C401C501C601C701C80164
:1000D000C9017E1040018531C02D01304101C407A6
:1000E0000030C53D40015308031977287828652959
:1000F00041014508803AF90080307902031D8228C9
:1001000018304402031C85288628A228410145088E
:10011000803AF90080307902031D90283130440282
:10012000031C93289428E42841014508803AF900EB
:1001300080307902031D9E28603044020318A128F4
:10014000A228E428DB30F9002230FA0041014408FB
:100150007907860045087A3D87000108400150066E
:100160000319B328B4286529C001C1014001400822
:10017000B73E860087010108F9000730F936890B80
:10018000BE287908FA007A08A0004008B73E860029
:10019000870101352007F9004008B73E8600870136
:1001A000790881000130C0070030C13D4108803A24
:1001B000F90080307902031DDF2807304002031C5C
:1001C000E228E328B628652941014508803AF9006C
:1001D00080307902031DEE2878304402031CF12898
:1001E000F2282629DB30F9002230FA0041014408C8
:1001F0007907860045087A3D8700010840015006CE
:100200000319032904292629BC01BD0140013C082A
:10021000B73E860087010314010DF9003C08B73E84
:1002200086008701790881000130BC070030BD3DA0
:100230003D08803AF90080307902031D21290730FA
:100240003C02031C2429252906296529410145086A
:10025000803AF90080307902031D30297830440259
:1002600003183329342965294001C201C301400123
:100270004208B73E860087010108F9000730F936C9
:10028000890B3F297908FA007A08A1004208B73E95
:100290008600870101352107F9004208B73E860034
:1002A0008701790881000130C2070030C33D43084F
:1002B000803AF90080307902031D6029073042023C
:1002C000031C632964293729652940015108031952
:1002D0006A296B29942ABA30F9002130FA004101C9
:1002E00044087907860045087A3D8700D430010626
:1002F000031D7B297C298C294B30F9002230FA0020
:1003000044087907860045087A3D8700D030010609
:1003100003198B298C299A296E3044064504031948
:10032000922993299A296F3044064504031D99297F
:100330009A29D7293A0A031D9E299F29BC29FF30F3
:10034000F9007908B700FF30F9007908B800F330F8
:10035000F9007908B900E330F9007908BA00E33010
:10036000F9007908BB00FF30F9007908BC00FF30C4
:10037000F9007908BD00942A4001A401A5014001BB
:100380002408B73E8600870181010130A4070030B0
:10039000A53D2508803AF90080307902031DD22955
:1003A00007302402031CD529D629BF29942ABA3044
:1003B000F9002130FA0044087907860045087A3DA3
:1003C000870001080319E529E629F629BA30F90062
:1003D0002130FA0044087907860045087A3D8700F5
:1003E00032300106031DF529F629142A4001A60121
:1003F000A701FF30F90040012608B73E86008701BB
:10040000790881000130A6070030A73D2708803A0F
:10041000F90080307902031D0F2A07302602031CE1
:10042000122A132AF929942A3808031D182A192A8E
:10043000482ABA30F9002130FA00440879078600CA
:1004400045087A3D87000108400150060319292A12
:100450002A2A482A8830F90079084101B700443037
:10046000F9007908B8002230F9007908B900113094
:10047000F9007908BA008830F9007908BB004430E7
:10048000F9007908BC002230F9007908BD00942AEF
:10049000BA30F9002130FA0041014408790786009A
:1004A00045087A3D87000108400150060319592A82
:1004B0005A2A942AC401C5014508803AF9008030BF
:1004C0007902031D652A07304402031C682A692A41
:1004D0006A2A942A0330F0000030F10040014408F9
:1004E000B73E860087010108F900FA017935F2006C
:1004F0007A0DF3008C312F2480317008FB007108D5
:10050000FC0040014408B73E8600870101357B07A7
:10051000FD004408B73E860087017D088100013058
:10052000C4070030C53D5C2A400152080319992ACE
:100530009A2A292D41014508803AF9008030790234
:10054000031DA42A0A3044020318A72AA82AC72A8E
:100550004001A801A9012908803AF90080307902F8
:10056000031DB42A07302802031CB72AB82AB92A67
:10057000292DF330F90040012808B73E8600870195
:10058000790881000130A8070030A93DAB2A41015C
:100590004508803AF90080307902031DD12A1430D1
:1005A00044020318D42AD52AF42A4001AA01AB0137
:1005B0002B08803AF90080307902031DE12A0730C8
:1005C0002A02031CE42AE52AE62A292D0F30F90025
:1005D00040012A08B73E8600870179088100013072
:1005E000AA070030AB3DD82A41014508803AF900FE
:1005F00080307902031DFE2A1D3044020318012BAE
:10060000022B212B4001AC01AD012D08803AF900ED
:1006100080307902031D0E2B07302C02031C112B96
:10062000122B132B292DFC30F90040012C08B73E6A
:1006300086008701790881000130AC070030AD3DAC
:10064000052B1D30410144064504031D282B292B91
:10065000482B4001AE01AF012F08803AF9008030ED
:100660007902031D352B07302E02031C382B392B42
:100670003A2B292D7F30F90040012E08B73E860025
:100680008701790881000130AE070030AF3D2C2B87
:100690001C30F9002130FA0044087907860045082B
:1006A0007A3D87000108031D562B572B762B4001FE
:1006B000B001B1013108803AF90080307902031DA0
:1006C000632B07303002031C662B672B682B292D08
:1006D0007F30F90040013008B73E86008701790875
:1006E00081000130B0070030B13D5A2B4508803AF7
:1006F000F90080307902031D7F2B2E30440203184D
:10070000822B832BB72B1C30F9002130FA004101DA
:1007100044087907860045087A3D870001084001B2
:1007200050060319942B952BB72BBE01BF013F0830
:10073000803AF90080307902031DA02B07303E0279
:10074000031CA32BA42BA52B292D40013E08B73E4B
:10075000860087010136F9003E08B73E8600870112
:10076000790881000130BE070030BF3D972B410161
:100770004508803AF90080307902031DC12B3E30D4
:1007800044020318C42BC52BEF2B41014508803AC6
:10079000F90080307902031DCF2B2E304402031C58
:1007A000D22BD32BEF2B4001B201B3013308803A97
:1007B000F90080307902031DDF2B07303202031C61
:1007C000E22BE32BE42B292D40013208B73E8600B3
:1007D000870181010130B2070030B33DD62B4101C2
:1007E0004508803AF90080307902031DF92B3E302C
:1007F0004402031CFC2BFD2B292D0130F900790844
:100800004001CF074F03031D062C072C252C8830F1
:10081000F90079084101B7004430F9007908B800BF
:100820002230F9007908B9001130F9007908BA00CE
:100830008830F9007908BB004430F9007908BC0021
:100840002230F9007908BD00292D09304F02031824
:100850002A2C2B2C6E2C1C30F9002130FA0041017F
:1008600044087907860045087A3D87000108400161
:10087000500603193C2C3D2C292DC601C701470801
:10088000803AF90080307902031D482C0730460277
:10089000031C4B2C4C2C4D2C292D40014608B73EF7
:1008A000860087010108F9000730F936890B552CBD
:1008B0007908FA007A08A2004608B73E8600870148
:1008C00001352207F9004608B73E860087017908FE
:1008D00081000130C6070030C73D3F2C10304F0269
:1008E0000318732C742C282D1C30F9002130FA00C9
:1008F000410144087907860045087A3D87000108D0
:10090000400150060319852C862C292D0230F00059
:100910000030F1004F08F83EF200FF3003180030BD
:10092000F3008C312F2480317008F90079084001E0
:10093000A300122DB401B5013508803AF9008030CA
:100940007902031DA52C07303402031CA82CA92C06
:10095000AA2C292D8130F90040013408B73E8600C9
:100960008701790881000130B4070030B53D9C2C27
:10097000B601B7013708803AF90080307902031DCB
:10098000C32C07303602031CC62CC72CC82C292DBB
:10099000C330F90040013608B73E86008701790868
:1009A00081000130B6070030B73DBA2CB801B9015B
:1009B0003908803AF90080307902031DE12C0730B4
:1009C0003802031CE42CE52CE62C292DE730F90035
:1009D00040013808B73E8600870179088100013060
:1009E000B8070030B93DD82CBA01BB013B08803AAA
:1009F000F90080307902031DFF2C07303A02031CF6
:100A0000022D032D042D292DFF30F90040013A0855
:100A1000B73E86008701790881000130BA070030AF
:100A2000BB3DF62C2308F900FA017A08003A0319B5
:100A30001A2D292D7908003A03199A2C013A031925
:100A4000B82C033A0319D62C013A0319F42C292D9A
:100A5000CF014001510803192E2D2F2D712DBA30D1
:100A6000F9002130FA004101440879078600450861
:100A70007A3D8700D4300106031D3F2D402D562DB1
:100A80004B30F9002230FA00440879078600450807
:100A90007A3D8700D0300106031D4F2D502D562D75
:100AA000F00100308B318D238031692D6E3044068A
:100AB000450403195C2D5D2D642D6F3044064504FB
:100AC000031D632D642D692DF00100308B318D23C2
:100AD000803140014D0844018D0040014C08440123
:100AE0008C00400152080319762D772D7E2D4A087F
:100AF00044018D004001490844018C004101450832
:100B0000803AF90080307902031D882D8B30440231
:100B1000031C8B2D8C2D972D400153080319912D0B
:100B2000922D972D4101C701C401C501BF2D41017F
:100B30004508803A803C031DA02D440840014B022B
:100B40000318A32DA42DAB2D400151080319A92D85
:100B5000AA2DAB2D922D41014508803A803C031D02
:100B6000B42D4408400148020318B72DB82DBF2DFD
:100B7000400152080319BD2DBE2DBF2D922D080036
:100B80008B31362385318B170B178A31F322853150
:100B900043019012400194111216941243019016D1
:100BA0008A31A92285316F304101A0000B30A100AC
:100BB0008A31622285314E0116148B3152238531E0
:100BC00058304101A0000A30A1008A316E228531DF
:100BD0004B019E138B31AD2385316D304101A00057
:100BE0000030A1008A319322853144010E108A31F0
:100BF000B722853145018E138A3182228531400129
:100C00001A111A121A104101B101B2014101AF01CA
:100C1000B001B7308B31F123853101304101AF078D
:100C20000030B03D3008803AA90080302902031D11
:100C30001B2E0C302F02031C1E2E1F2E092E4101CD
:100C40003208803AA90080302902031D292E07307E
:100C5000310203182C2E2D2E652E4101B301B40153
:100C600041013308B73E860087010109A90006301B
:100C7000A935FF3E031D382E2935AA002A08AE00EB
:100C80002E08A9000730A936890B432E3308B73E3A
:100C90008600870101352907AA003308B73E860080
:100CA00087012A0881000130B3070030B43D3408C1
:100CB000803AA90080302902031D602E07303302DC
:100CC000031C632E642E302E872E4101B501B60120
:100CD00041013508B73E860087010314010DA900C4
:100CE0003508B73E86008701290881000130B50725
:100CF0000030B63D3608803AA90080302902031D35
:100D0000832E07303502031C862E872E682E013075
:100D10004101B1070030B23D3208803AA90080306D
:100D20002902031D952E0F303102031C982E992E97
:100D3000062E4B019E1708304101A9002908A10089
:100D4000FE308A31D322853140011A111A10410137
:100D500047080319AC2EAD2EB12F49080319B12E47
:100D6000B22EB12F4B019E13192F8830A9002908EC
:100D7000B7004430A9002908B8002230A90029088A
:100D8000B9001130A9002908BA008830A900290843
:100D9000BB004430A9002908BC002230A900290862
:100DA000BD004001D301D30A2D2FFF30A90029082F
:100DB000B700FF30A9002908B800FF30A9002908B2
:100DC000B900FF30A9002908BA00FF30A90029089E
:100DD000BB00FF30A9002908BC00FF30A90029088A
:100DE000BD004001D101D10A2D2FFF30A9002908F3
:100DF000B700FF30A9002908B800FF30A900290872
:100E0000B900FF30A9002908BA00FF30A90029085D
:100E1000BB00FF30A9002908BC00FF30A900290849
:100E2000BD004001CF014101C6014001D201D20AFB
:100E30002D2F41014708A900AA012A08003A0319E9
:100E4000222F2D2F2908013A0319B52E033A031931
:100E5000D52E013A0319F52E2D2F44010E1445010C
:100E60008E17522F6630A9002330AA0044082907A4
:100E7000860045082A3D87000108AB002B08A0002A
:100E8000DB30AC002230AD0044082C07860045085A
:100E90002D3D870001088B31CE238531B7308B3152
:100EA000F1238531410147030319572F582F322F62
:100EB000792F4B30A9002230AA0044082907860068
:100EC00045082A3D87000108AB002B08A000BA3076
:100ED000AC002130AD0044082C07860045082D3DAC
:100EE000870001088B31CE238531B7308B31F12358
:100EF000853102304101470603197F2F802F592F7A
:100F0000A12F7E30A9002030AA00440829078600BE
:100F100045082A3D87000108AB002B08A0001C30C3
:100F2000AC002130AD0044082C07860045082D3D5B
:100F3000870001088B31CE238531B7308B31F12307
:100F400085310330410147060319A72FA82F812FB0
:100F5000C7014001D301D101D20144010E10450166
:100F60008E13410149080319B62FB72F992E470850
:100F7000031DBB2FBC2F992E4B019E1344010E1055
:100F800045018E134E010C10161440011A151A1447
:100F90006300992E80313128400198019A011F3059
:100FA0009200023094001F307E01CE002330B80042
:100FB000B901CF01BA01D0013730BB003F30D100B9
:100FC0003F30BC003F30D20002307D019000153030
:100FD000C50008307E01A300033095000730A5004E
:100FE00004307D01C6000800FE0012001E00013022
:100FF000FE020030FF3B7F087E04031DF52F003406
:1014A800080050018C0108004101C901C90A08005F
:1014B8004E010C108A319C228A3108004101210812
:1014C800C3002008C20008005101910103309300B5
:1014D8009201080041012108BF002008BE00080051
:1014E800FE34FF34FE34FF34FE34FF34FE349E34C1
:1014F8003A34F13490341C34ED34033480304601EE
:1015080096007F309500C0309400080041014108E2
:101518004B019D00410140084B019C00080041011E
:1015280021084001D500410120084001D4000800ED
:101538004101420843040319A22AA32AA82A4308FE
:101548008A0042080A008A3108004E010C100B1468
:1015580054304101A0000A30A1008A3162228A3148
:101568004E01161408000130450190008F019101C9
:10157800FF308D008C014E010D13B03045018E00F7
:1015880008004101A000200843018C004E018D1C79
:10159800CE2ACF2ACA2A8D1043010C08080041011F
:1015A800A20021088A31C5228A31410122088A31E4
:1015B800C5228A3140011A161A12080044010E1D6C
:1015C800E62AE72AEE2A0E1071088D0070088C00B2
:1015D8000E14F22A71088D0070088C00080015306E
:1015E8007D01C5000430C60007307E01A500083023
:1015F800A300403043018F00900101308D0040016D
:1016080094124301901208004E018C1241014108C6
:101618004B019D00410140084B019C0041013E08DF
:101628003F040319182B192B1E2B3F088A003E086C
:101638000A008B3108004E018D1240015708F10055
:101648005608F0008A31E2228B31400154085504D3
:1016580003192F2B302B352B55088A0054080A0004
:101668008B3108008A31F3228B318731CC278B31BB
:101678008A3168228B318A3155228B318A31822214
:101688008B318A31B7228B318B31AD238B318A3143
:10169800A9228B318B3152238B31080090304B01BA
:1016A8009F0086309D00E8309C001D084101C10064
:1016B8004B011C084101C0004E018C1296160230E5
:1016C8004101A0000030A1008A316E228B31903098
:1016D8004B019E0008000130F00070084101C70767
:1016E8008A318A228B3144010E1C7B2B7C2B812B67
:1016F8004101C701C401C501832B4101C901470844
:1017080040014E020318892B8A2B8C2B4101C701FB
:101718000800F2007208400150060319942B952B1B
:10172800982B720845018D0070084101480603197D
:101738009E2B9F2BA22B700845018E007208F1008A
:1017480071084001D0007008F10071084101C8001B
:10175800080044018F01900104309100E1308D00B0
:10176800BA308C004E018D1244010D084001D7009B
:1017780044010C084001D6004E0197160330410180
:10178800A0000030A1008A3193228B31053044013A
:101798008E0008004101A2002208400150060319EA
:1017A800D62BD72BDB2B4101220845018D004101A7
:1017B800200848060319E12BE22BE52B20084501F8
:1017C8008E0041012208A10021084001D0004101FA
:1017D8002008A1002108C80008004101A500A801AF
:1017E800A601A70141012808031DFB2BFC2B012C96
:1017F8000130A3002308A807052C2835A3002308D7
:10180800A8002808A3002308A10026082507A4008B
:1018180024088600870101088A31D3228B310330DE
:101828004101A3009730890B172CA30B172C00320A
:1018380001304101A6070030A73D2708803AA300E0
:1018480080302302031D2A2C07302602031C2D2C6E
:101858002E2CF62B0800F601F11F332C342C3B2CD0
:10186800F009F109F00A0319F10AF601F60AF31F63
:101878003E2C3F2C482CF209F309F20A0319F30A0B
:101888000130F4007408F606F701F80170087104D5
:1018980003194F2C502C7F2CF501F50A5C2C0130D4
:1018A800F035F10D890B542C0130F4007408F5075C
:1018B800F11F5F2C602C532C0130F735F80D890B84
:1018C800612C71087302031D6B2C70087202031CD3
:1018D8006E2C6F2C742C7008F2027108F33B77148D
:1018E8000130F136F00C890B752C0130F502031D1F
:1018F8007E2C7F2C602C76080319832C842C892C51
:10190800F709F809F70A0319F80A7808F1007708BF
:10191800F0000800E034E034E034E034E034E0344F
:10192800E034E034E034E034E034E034E034E0340F
:10193800E034E034E034E034E034E034E034E034FF
:10194800E034E034E034E034E034E034E034E034EF
:10195800E034E034D034D034D034D034D034D0343F
:10196800D034D034D034D034C034C034C034C0348F
:10197800D034D034D034D034D034D034D034D0343F
:10198800D034D034D034D034D034D034C034C0344F
:10199800D034D034D034D034D034D034E034D0340F
:1019A800D034D034D034D034D034D034D034D0340F
:1019B800D034D034D034D034D034D034E034D034EF
:1019C800D034D034D034D034D034D034D034D034EF
:1019D800D034D034D034D034D034D034E034D034CF
:1019E800D034D034D034D034D034D034D034D034CF
:1019F800D034D034D034D034D034D034E034D034AF
:101A0800D034D034D034D034D034D034D034D034AE
:101A1800D034D034D034D034D034D034E034D0348E
:101A2800D034D034D034D034D034D034D034D0348E
:101A3800D034D034D034D034D034D034E034D0346E
:101A4800D034D034D034D034D034D034D034D0346E
:101A5800D434D434D434D434D434D434D434D4343E
:101A6800D434D434FC34FC34FC34FC34FC34FC343E
:101A7800FC34FC34FC34FC34B234B234B234B23406
:101A8800B234B234B234B234B234B2348D348D3468
:101A9800EE34EE34D434D434BD34BD349E349E3464
:101AA8008D348D34EE34EE34D434D434BD34003433
:101AB800BD340034BD340034BD340034BD3400348A
:101AC800BD340034BD340034BD34BD349E349E343E
:101AD8009E349E34B234B2349E349E349E349E3446
:101AE800B234B234BD34BD34D434D4349E349E348C
:101AF8009E349E34B234B2349E349E349E349E3426
:101B0800B234B234BD34BD34D434D4349E349E346B
:101B18009E349E34B234B2349E349E349E349E3405
:101B2800B234B234BD34BD34D434D4349E349E344B
:101B38009E349E34B234B2349E349E349E349E34E5
:101B4800B234B234BD34BD34D434D4349E349E342B
:101B58009E349E34B234B2349E349E349E349E34C5
:101B6800B234B234BD34BD34D434D4349E349E340B
:101B78009E349E34B234B2349E349E349E349E34A5
:101B8800B234B234BD34BD34D434D43432343234C3
:101B9800D434D434EE34EE34FC34FC349E349E34E5
:101BA8009E349E34FC34FC349E349E34FC34FC3425
:101BB800EE34EE34EE34EE34FC34FC34FC34FC34D5
:101BC800EE34EE34EE34EE34FC34FC3400340034BD
:101BD800D434D434EE34EE34FC34FC349E349E34A5
:101BE8009E349E34FC34FC349E349E348D348D34C3
:101BF800FC34FC348D348D349E349E34B234B2348B
:101C0800B234B234A834A834A834A8340034003428
:101C1800D434D434EE34EE34FC34FC349E349E3464
:101C28009E349E34FC34FC349E349E34003400349C
:101C38009E3400349E349E349E349E3400340034E6
:101C48008D3400348D348D348D348D34003400342B
:101C5800D434D434EE34EE34FC34FC349E349E3424
:101C68009E349E34003400349E349E34FC34FC345C
:101C7800EE34EE34EE34EE34FC34FC34FC34FC3414
:101C8800FC34FC34EE34EE34EE34EE3400340034FC
:101C9800D434D434EE34EE34FC34FC349E349E34E4
:101CA8009E349E34003400349E349E340034003414
:101CB8000034D034D034D034D034D034D034E034BC
:101CC800E034E034E034D034D034E034E034D0349C
:101CD800D034D034D034D034D034D034D034D034DC
:101CE800D034D034D034D034D034D034D034D034CC
:101CF800D034D034D034D034D034D034D034E034AC
:101D0800E034E034E034D034D034E034E034E0344B
:101D1800E034D034D034E034E034E034E034E0343B
:101D2800E034E034E034E034E034E034E034D0341B
:101D3800D034D034D034D034D034D034D034E0346B
:101D4800E034E034E034D034D034E034E034E0340B
:101D5800E034E034E034E034E034E034E034E034DB
:101D6800E034E034E034E034E034E034E034D034DB
:101D7800D034D034D034D034D034D034D034E0342B
:101D8800E034E034E034D034D034E034E034D034DB
:101D9800D034D034D034D034D034D034D034D0341B
:101DA800D034D034D034D034D034D034D034D0340B
:101DB800D034D034D034D034D034D034D034E034EB
:101DC800E034E034E034D034D034E034E0349E34CD
:101DD8009E349E348D349E349E34BC34BC34BC3422
:101DE800BC34BC34BC349E349E349E348D349E3412
:101DF8009E34BC34BC34BC34BC34BC34BC34D33462
:101E0800D334D334D334D334D334FC34FC34FC3417
:101E1800FC34FC34FC34EE34EE34EE34EE34EE3480
:101E2800EE349E349E349E349E349E349E348D34DB
:101E38008D348D348D348D348D34ED34ED34ED3472
:101E4800FC348D348D349E349E349E348D349E34CF
:101E58009E34BC34BC34BC34BC34BC34BC348D3447
:101E68008D348D348D348D348D34ED34ED34ED3442
:101E7800FC348D348D349E349E349E348D349E349F
:101E88009E34BC34BC34BC34BC34BC34BC34D334D1
:101E9800D334D334D334D334D334B134B134B13468
:101EA800D334FC34FC34ED34ED34ED34ED34ED341E
:101EB800ED34BC34BC34BC34BC34BC34BC34ED3438
:101EC800ED349E349E34BC34BC349E349E349E34EF
:101ED800B134D334D334EE34EE34EE34EE34EE345D
:101EE800EE340034D034D034D034D034D034D0347C
:101EF800D034D034D034D034D034D034D034D034BA
:101F0800D034D034D034D034D034D034D034D034A9
:101F1800D034D034C034C034C034C034C034C034F9
:101F2800C034C034C034C034C034C034C034C03409
:101F3800C034C034C034C034D034D034D034D034B9
:101F4800D034D034D034D034D034D034D034D03469
:101F5800C034C034C034C034D034D034D034D03499
:101F6800D034D034D034D034D034D034D034D03449
:101F7800D034D034D034D034D034D034D034D03439
:101F8800C034C034C034C034D034D034D034D03469
:101F9800D034D034D034D034D034D034D034D03419
:101FA800D034D034C034C034C034C034C034C03469
:101FB800C034C034C034C034C034C034C034C03479
:101FC800C034C034C034C034C034C034C034C03469
:101FD800C034C034C034C034D034D034D034D03419
:101FE800D034D034D034D034D034D034D034D034C9
:101FF800D034D034D034D0340034403401340034B8
:020000040001F9
:04000E00ED3FE73F9C
:04001400FF3FFF3F6C
:00000001FF
