:1000000080313128080008007E1480314E01961E90
:100010000A280B2813288C1E0E280F281328873136
:10002000E02780312F28161C162817281F280C1CA3
:100030001A281B281F288F31792780312F280B1F62
:10004000222823282F28971E262827282F288D1E70
:100050002A282B282F288731B42780312F287E107B
:100060000900803133284930840085308500DC3038
:100070008600223087000130FF0014308731F427DA
:100080008031E13084008F308500383086000030C8
:1000900087000030FF000E308731F42780315D305B
:1000A000840086308500A030860000308700003054
:1000B000FF0044308731F4278031053084008730D9
:1000C000850020308600013087000030FF0020309E
:1000D0008731F4278031F901C601C701C801C90180
:1000E000CA01CB01CC01CD01CE017E10400183318C
:1000F000172B01304001C6070030C73D4E080319D9
:10010000822883284E294708803AF0008030700208
:10011000031D8C2818304602031C8F289028AC2819
:1001200040014708803AF00080307002031D9A2891
:1001300031304602031C9D289E28ED2840014708C7
:10014000803AF00080307002031DA828603046021B
:100150000318AB28AC28ED286630F0002330F100FE
:1001600040014608700786004708713D8700010876
:100170004A060319BC28BD284E29B201B30140012B
:1001800032083F3E860087010108F0000730F03654
:10019000890BC7287008F1007108A00032083F3EA3
:1001A0008600870101352007F00032083F3E8600B7
:1001B0008701700881000130B2070030B33D330879
:1001C000803AF00080307002031DE82807303202C8
:1001D000031CEB28EC28BF284E2940014708803A31
:1001E000F00080307002031DF7287F304602031CA8
:1001F000FA28FB281E294001AB01AC0140012B0865
:100200003F3E860087010314010DF0002B083F3E9E
:1002100086008701700881000130AB070030AC3DDB
:100220002C08803AF00080307002031D1929073035
:100230002B02031C1C291D29FE284E294001B40154
:10024000B501400134083F3E860087010108F000F7
:100250000730F036890B29297008F1007108A100D8
:1002600034083F3E8600870101352107F00034083D
:100270003F3E86008701700881000130B4070030DE
:10028000B53D3508803AF00080307002031D4A29E0
:1002900007303402031C4D294E29212940014C0806
:1002A000031953295429D8294708803AF00080308F
:1002B0007002031D5D290830460203186029612978
:1002C00083294001AD01AE0140012D083F3E86006B
:1002D00087010135F0002D083F3E86008701700838
:1002E00081000130AD070030AE3D2E08803AF000AD
:1002F00080307002031D7E2907302D02031C8129E6
:1003000082296429D8290830400146064704031D84
:100310008A298B29A829A301A401AA30F000400151
:1003200023083F3E86008701700881000130A30743
:100330000030A43D2408803AF00080307002031D94
:10034000A32907302302031CA629A7298D29D82910
:10035000461CAB29AC29D8293F08F0000730F036FD
:10036000890BAF297008F1007108A200AF01B0013C
:1003700040012F083F3E8600870101352207F0002B
:100380002F083F3E86008701700881000130AF07CB
:100390000030B03D3008803AF00080307002031D1C
:1003A000D32907302F02031CD629D729B829D829E9
:1003B00040014D080319DD29DE29AB2A4608A03E7D
:1003C00086008701D4300106031DE729E829022AA7
:1003D000A501A601400125083F3E86008701810155
:1003E0000130A5070030A63D2608803AF000803095
:1003F0007002031DFD2907302502031C002A012A73
:10040000EA29AB2A4608A03E860087010108031DA1
:100410000A2A0B2A282AA701A801FF30F000400170
:1004200027083F3E86008701700881000130A7073A
:100430000030A83D2808803AF00080307002031D8B
:10044000232A07302702031C262A272A0D2AAB2A33
:10045000400803192C2A2D2A322A400A031D312A6A
:10046000322A4F2AA901AA01FA30F00040012908D6
:100470003F3E86008701700881000130A9070030E7
:10048000AA3D2A08803AF00080307002031D4A2AF3
:1004900007302902031C4D2A4E2A342AAB2A46086B
:1004A000A03E8600870101084A060319582A592AE6
:1004B000AB2AB601B701400136083F3E86008701EE
:1004C0000135F0007008B1003108F0000730F03657
:1004D000890B672A7008F1007108B10036083F3EA9
:1004E0008600870101353107F00036083F3E86005F
:1004F00087017008810036083F3E8600870101357C
:10050000F0007008B1003108F0000730F036890BB8
:10051000862A7008F1007108B10036083F3E860057
:10052000870101353107F00036083F3E860087011C
:10053000700881000130B6070030B73D3708803AB7
:10054000F00080307002031DA72A07303602031C1A
:10055000AA2AAB2A5B2A40014C080319B02AB12A07
:10056000B82A3D0844018D0040013C0844018C003C
:1005700040014D080319BD2ABE2AC52A3A08440184
:100580008D004001390844018C0040014708803A41
:10059000F00080307002031DCF2A8B304602031C0E
:1005A000D22AD32ADD2A40014E080319D82AD92A93
:1005B000DD2AC901C601C701162B40014708803A50
:1005C000803C031DE52A46083B020318E82AE92A75
:1005D000F02A40014C080319EE2AEF2AF02AD92A02
:1005E00040014708803A803C031DF82A460838023B
:1005F0000318FB2AFC2A162B40014D080319012B76
:10060000022B162BC901C601C7010230480203188C
:100610000A2B0B2B162BC601C7010330F000700804
:10062000C9000130F0007008C807162B0800873198
:10063000632783318B170B178731CB278331430116
:1006400090124001941112169412430190168F31AA
:10065000AC2783317F30F2000730F3008F317F27E2
:1006600083314E01161487319B2783316F30F2009E
:100670000F30F3008F318B2783314B019E1387316D
:10068000252783317930F2000030F3008F31912734
:10069000833144010E108F31D327833145018E13EE
:1006A0008F319727833140011A111A121A10420113
:1006B000C301C4014201C101C2013F308631A126FC
:1006C000833101304201C1070030C23D4208803A07
:1006D0004101E80080306802031D712B0C3042019B
:1006E0004102031C742B752B5D2B42014408803A98
:1006F0004101E80080306802031D812B0730420170
:1007000043020318842B852BC72B4201C501C60168
:10071000420145083F3E8600870101094101E8008A
:100720000630E835FF3E031D912B6835E900690866
:100730004201C00040084101E8000730E836890B5B
:100740009E2B420145083F3E86008701013541014D
:100750006807E900420145083F3E860087014101E4
:100760006908810001304201C5070030C63D4608D6
:10077000803A4101E80080306802031DC22B073037
:1007800042014502031CC52BC62B882BEF2B4201CF
:10079000C701C801420147083F3E86008701031494
:1007A000010D4101E800420147083F3E86008701F4
:1007B00041016808810001304201C7070030C83D8F
:1007C0004808803A4101E80080306802031DEB2BA5
:1007D000073042014702031CEE2BEF2BCA2B0130DE
:1007E0004201C3070030C43D4408803A4101E8009B
:1007F00080306802031DFF2B0F3042014302031CAF
:10080000022C032C5A2B4B019E17F301F30A0230E2
:100810008F31C627833140011A111A104908031974
:10082000122C132C2E2D4B080319172C182C2E2D9F
:100830004B019E13A02C8830E80068084001BF00DF
:1008400044304101E80068084001C0002230410105
:10085000E80068084001C10011304101E800680863
:100860004001C20088304101E80068084001C3002F
:1008700044304101E80068084001C40022304101D1
:10088000E80068084001C500CE01CE0AB52CFE3054
:10089000E80068084001BF00FE304101E800680838
:1008A0004001C000FE304101E80068084001C1007D
:1008B000FE304101E80068084001C200FE304101FD
:1008C000E80068084001C300FE304101E800680804
:1008D0004001C400FE304101E80068084001C50045
:1008E000CC01CC0AB52CFF30E80068084001BF00FD
:1008F000FF304101E80068084001C000FF304101BD
:10090000E80068084001C100FF304101E8006808C4
:100910004001C200FF304101E80068084001C30007
:10092000FF304101E80068084001C400FF30410188
:10093000E80068084001C500C801CD01CD0AB52C0A
:10094000400149084101E800E9016908003A03193A
:10095000AA2CB52C6808013A03191B2C033A031979
:10096000472C013A0319732CB52C44010E14450190
:100970008E17E32CDC304101E8002230E900400111
:100980004608410168078600400147084101693D6A
:1009900087000108EA006A08F2006630EB002330A5
:1009A000EC004001460841016B0786004001470802
:1009B00041016C3D870001088731452783313F3075
:1009C0008631A1268331400149030319E82CE92C23
:1009D000BA2C002D4608C03E86008701010841015F
:1009E000E8006808F20040014608D23E8600870110
:1009F00001088731452783313F308631A126833175
:100A00000230400149060319062D072DEA2C1F2D3F
:100A10004608203E86000130870001084101E800B9
:100A20006808F20040014608A03E860087010108E0
:100A30008731452783313F308631A126833103300A
:100A4000400149060319252D262D082DC901CE0187
:100A5000CC01CD0144010E1045018E1340014B081D
:100A60000319332D342D032C4908031D382D392D3E
:100A7000032C4B019E1344010E1045018E134E01B1
:100A80000C10161440011A151A146300032C80313F
:100A90003128D034D034D034D034D034D034D034E1
:100AA000D034D034D034D034D034D034D034D03426
:100AB000D034D034D034D034D034D034D034D03416
:100AC000D034C034C034C034C034C034C034C03476
:100AD000C034C034C034C034C034C034C034C03476
:100AE000C034C034C034D034D034D034D034D03416
:100AF000D034D034D034D034D034D034D034C034E6
:100B0000C034C034C034D034D034D034D034D034F5
:100B1000D034D034D034D034D034D034D034D034B5
:100B2000D034D034D034D034D034D034D034C034B5
:100B3000C034C034C034D034D034D034D034D034C5
:100B4000D034D034D034D034D034D034D034D03485
:100B5000D034C034C034C034C034C034C034C034E5
:100B6000C034C034C034C034C034C034C034C034E5
:100B7000C034C034C034C034C034C034C034C034D5
:100B8000C034C034C034D034D034D034D034D03475
:100B9000D034D034D034D034D034D034D034D03435
:100BA000D034D034D0349E349E349E348D349E3430
:100BB0009E34BC34BC34BC34BC34BC34BC349E34F1
:100BC0009E349E348D349E349E34BC34BC34BC344C
:100BD000BC34BC34BC34D334D334D334D334D33422
:100BE000D334FC34FC34FC34FC34FC34FC34EE34BC
:100BF000EE34EE34EE34EE34EE349E349E349E34D5
:100C00009E349E349E348D348D348D348D348D34A9
:100C10008D34ED34ED34ED34FC348D348D349E342C
:100C20009E349E348D349E349E34BC34BC34BC34EB
:100C3000BC34BC34BC348D348D348D348D348D341F
:100C40008D34ED34ED34ED34FC348D348D349E34FC
:100C50009E349E348D349E349E34BC34BC34BC34BB
:100C6000BC34BC34BC34D334D334D334D334D33491
:100C7000D334B134B134B134D334FC34FC34ED3436
:100C8000ED34ED34ED34ED34ED34BC34BC34BC34EF
:100C9000BC34BC34BC34ED34ED349E349E34BC34AE
:100CA000BC349E349E349E34B134D334D334EE34C9
:100CB000EE34EE34EE34EE34EE34D4340034D43446
:100CC000EE34FC34EE34FC348D349E349E34D43413
:100CD0000034D434D4340034003400340034D434F8
:100CE000EE34FC34EE34FC348D349E349E34D434F3
:100CF0000034D434D43400340034C034C034C0346C
:100D0000B034B034B034B034B034B034D034D03483
:100D1000D034D034D034D034D034D034D034D334B0
:100D20009E348D34D334BC34BC34003400340034AD
:100D3000BC34BC349E349E34BC34BC348D348D34CD
:100D40008D344101E400E701E501E6014101670856
:100D5000031DAB2EAC2EB12E0130F5007508E70750
:100D6000B52E6735F5007508E7006708F5007508CA
:100D7000F30065086407F60076088600870101081D
:100D80008F31C62786310330F5009830890BC62E87
:100D9000F50BC62E01304101E5070030E63D66083F
:100DA000803AF50080307502031DD82E07306502A9
:100DB000031CDB2EDC2EA62E0800400198019A01B0
:100DC0001F309200023094001F307E01CE0023308D
:100DD000B800B901CF01BA01D0013730BB003F30B4
:100DE000D1003F30BC003F30D20002307D01900086
:100DF0001530C50008307E01A30003309500073090
:100E0000A50004307D01C6000800D034D034D034B1
:100E1000D034D034D034D034E034E034E034E03472
:100E2000E034E034E034D034D034D034D034D03472
:100E3000D034D034D034D034E034E034E034E03452
:100E4000E034E034E034D034D03444018F019001F8
:100E500004309100E1308D00BA308C004E018D12CB
:100E600044010D084001D20044010C084001D100AA
:100E70004E0197160330F2000030F3008F319127B6
:100E80008731053044018E000800F40074084001E9
:100E90004A0603194C2F4D2F502F740845018D0021
:100EA000720879060319552F562F592F72084501DC
:100EB0008E007408F30073084001CA007208F30042
:100EC0007308F90008008731CB2787318631DD268A
:100ED00087318F31852787318F316C2787318F316B
:100EE000972787318F31D32787318731252787315E
:100EF0008F31AC27873187319B278731080001303C
:100F0000F00070084001C9078F3173278731440111
:100F10000E1C8B2F8C2F912F4001C901C601C701D8
:100F2000932F4001CB0149083E020318982F992FB7
:100F30009A2FC901080090304B019F0086309D0018
:100F4000E8309C001D08F8001C08F7004E018C12C8
:100F500096160230F2000030F3008F318B27873174
:100F600090304B019E0008004E018D124001520846
:100F7000F1005108F0008F31EF27873140014F0811
:100F800050040319C42FC52FCA2F50088A004F08D8
:100F90000A008731080015307D01C5000430C60005
:100FA00007307E01A5000830A300403043018F00C8
:100FB000900101308D00400194124301901208000D
:100FC0004E018C1278084B019D0077089C0040016F
:100FD000530854040319ED2FEE2FF32F54088A0001
:100FE00053080A0087310800FE0012001E0001307D
:100FF000FE020030FF3B7F087E04031DF52F003406
:101ED600080050018C0108004001CB01CB0A080024
:101EE60078084B019D0077089C0008004E010C10F5
:101EF6008F319F278F31080073084001D600720882
:101F0600D5000800510191010330930092010800A9
:101F160073084001D4007208D3000800730840011A
:101F2600D0007208CF0008008030460196007F304E
:101F36009500C03094000800400155085604031966
:101F4600A52FA62FAB2F56088A0055080A008F31F9
:101F560008004E010C100B146B30F2000F30F3002A
:101F66008F317F278F314E0116140800F200720858
:101F760043018C004E018D1CC12FC22FBD2F8D1029
:101F860043010C080800F40073088F31B9278F311C
:101F960074088F31B9278F3140011A161A120800BA
:101FA6000130450190008F019101FF308D008C01B9
:101FB6004E010D13B03045018E0008001F348834E1
:101FC600EF341034E434F3340334FE34FF34FE3497
:101FD600FF34FE34FF34FE3444010E1DF32FF42F7C
:101FE600FB2F0E1071088D0070088C000E14FF2F49
:101FF60071088D0070088C000800003440340134EC
:022006000034A4
:020000040001F9
:04000E00ED3FE73F9C
:04001400FF3FFF3F6C
:00000001FF
